{
  "_format": "hh-sol-artifact-1",
  "contractName": "DeBounty",
  "sourceName": "contracts/DeBounty.sol",
  "abi": [
    {
      "inputs": [],
      "stateMutability": "nonpayable",
      "type": "constructor"
    },
    {
      "stateMutability": "payable",
      "type": "fallback"
    },
    {
      "inputs": [
        {
          "internalType": "uint256",
          "name": "_proposedSolnID",
          "type": "uint256"
        },
        {
          "internalType": "uint256",
          "name": "_issueID",
          "type": "uint256"
        }
      ],
      "name": "acceptProposedSolution",
      "outputs": [],
      "stateMutability": "nonpayable",
      "type": "function"
    },
    {
      "inputs": [],
      "name": "admin",
      "outputs": [
        {
          "internalType": "address",
          "name": "",
          "type": "address"
        }
      ],
      "stateMutability": "view",
      "type": "function"
    },
    {
      "inputs": [
        {
          "internalType": "uint256",
          "name": "_issueID",
          "type": "uint256"
        }
      ],
      "name": "getAllProposedSolution",
      "outputs": [
        {
          "components": [
            {
              "internalType": "uint256",
              "name": "id",
              "type": "uint256"
            },
            {
              "internalType": "uint256",
              "name": "issueID",
              "type": "uint256"
            },
            {
              "internalType": "address",
              "name": "issueCreator",
              "type": "address"
            },
            {
              "internalType": "address",
              "name": "proposer",
              "type": "address"
            },
            {
              "internalType": "enum DeBounty.PROPOSED_SOLUTION_STATUS",
              "name": "status",
              "type": "uint8"
            }
          ],
          "internalType": "struct DeBounty.ProposedSolution[]",
          "name": "",
          "type": "tuple[]"
        }
      ],
      "stateMutability": "view",
      "type": "function"
    },
    {
      "inputs": [],
      "name": "getAllUnsolvedIssues",
      "outputs": [
        {
          "components": [
            {
              "internalType": "uint256",
              "name": "id",
              "type": "uint256"
            },
            {
              "internalType": "address",
              "name": "creator",
              "type": "address"
            },
            {
              "internalType": "address",
              "name": "solver",
              "type": "address"
            },
            {
              "internalType": "uint256",
              "name": "solutionID",
              "type": "uint256"
            },
            {
              "internalType": "string",
              "name": "title",
              "type": "string"
            },
            {
              "internalType": "string",
              "name": "description",
              "type": "string"
            },
            {
              "internalType": "string",
              "name": "hash",
              "type": "string"
            },
            {
              "internalType": "uint256",
              "name": "reward",
              "type": "uint256"
            },
            {
              "internalType": "enum DeBounty.ISSUE_STATUS",
              "name": "status",
              "type": "uint8"
            }
          ],
          "internalType": "struct DeBounty.Issue[]",
          "name": "",
          "type": "tuple[]"
        }
      ],
      "stateMutability": "view",
      "type": "function"
    },
    {
      "inputs": [],
      "name": "getCompany",
      "outputs": [
        {
          "components": [
            {
              "internalType": "string",
              "name": "name",
              "type": "string"
            },
            {
              "internalType": "string",
              "name": "nftMetadata",
              "type": "string"
            },
            {
              "internalType": "bool",
              "name": "isRegistered",
              "type": "bool"
            }
          ],
          "internalType": "struct DeBounty.Company",
          "name": "company",
          "type": "tuple"
        }
      ],
      "stateMutability": "view",
      "type": "function"
    },
    {
      "inputs": [],
      "name": "getHunter",
      "outputs": [
        {
          "components": [
            {
              "internalType": "string",
              "name": "name",
              "type": "string"
            },
            {
              "internalType": "bool",
              "name": "isRegistered",
              "type": "bool"
            }
          ],
          "internalType": "struct DeBounty.Hunter",
          "name": "hunter",
          "type": "tuple"
        }
      ],
      "stateMutability": "view",
      "type": "function"
    },
    {
      "inputs": [],
      "name": "isCompanyValid",
      "outputs": [
        {
          "internalType": "bool",
          "name": "",
          "type": "bool"
        }
      ],
      "stateMutability": "view",
      "type": "function"
    },
    {
      "inputs": [],
      "name": "isHunterValid",
      "outputs": [
        {
          "internalType": "bool",
          "name": "",
          "type": "bool"
        }
      ],
      "stateMutability": "view",
      "type": "function"
    },
    {
      "inputs": [],
      "name": "issueCount",
      "outputs": [
        {
          "internalType": "uint256",
          "name": "",
          "type": "uint256"
        }
      ],
      "stateMutability": "view",
      "type": "function"
    },
    {
      "inputs": [
        {
          "internalType": "uint256",
          "name": "",
          "type": "uint256"
        }
      ],
      "name": "issues",
      "outputs": [
        {
          "internalType": "uint256",
          "name": "id",
          "type": "uint256"
        },
        {
          "internalType": "address",
          "name": "creator",
          "type": "address"
        },
        {
          "internalType": "address",
          "name": "solver",
          "type": "address"
        },
        {
          "internalType": "uint256",
          "name": "solutionID",
          "type": "uint256"
        },
        {
          "internalType": "string",
          "name": "title",
          "type": "string"
        },
        {
          "internalType": "string",
          "name": "description",
          "type": "string"
        },
        {
          "internalType": "string",
          "name": "hash",
          "type": "string"
        },
        {
          "internalType": "uint256",
          "name": "reward",
          "type": "uint256"
        },
        {
          "internalType": "enum DeBounty.ISSUE_STATUS",
          "name": "status",
          "type": "uint8"
        }
      ],
      "stateMutability": "view",
      "type": "function"
    },
    {
      "inputs": [
        {
          "internalType": "address payable",
          "name": "_hunterAddress",
          "type": "address"
        },
        {
          "internalType": "uint256",
          "name": "_issueId",
          "type": "uint256"
        }
      ],
      "name": "payHunter",
      "outputs": [],
      "stateMutability": "payable",
      "type": "function"
    },
    {
      "inputs": [
        {
          "internalType": "string",
          "name": "title",
          "type": "string"
        },
        {
          "internalType": "string",
          "name": "description",
          "type": "string"
        },
        {
          "internalType": "string",
          "name": "hash",
          "type": "string"
        },
        {
          "internalType": "uint256",
          "name": "reward",
          "type": "uint256"
        }
      ],
      "name": "postIssue",
      "outputs": [
        {
          "components": [
            {
              "internalType": "uint256",
              "name": "id",
              "type": "uint256"
            },
            {
              "internalType": "address",
              "name": "creator",
              "type": "address"
            },
            {
              "internalType": "address",
              "name": "solver",
              "type": "address"
            },
            {
              "internalType": "uint256",
              "name": "solutionID",
              "type": "uint256"
            },
            {
              "internalType": "string",
              "name": "title",
              "type": "string"
            },
            {
              "internalType": "string",
              "name": "description",
              "type": "string"
            },
            {
              "internalType": "string",
              "name": "hash",
              "type": "string"
            },
            {
              "internalType": "uint256",
              "name": "reward",
              "type": "uint256"
            },
            {
              "internalType": "enum DeBounty.ISSUE_STATUS",
              "name": "status",
              "type": "uint8"
            }
          ],
          "internalType": "struct DeBounty.Issue",
          "name": "",
          "type": "tuple"
        }
      ],
      "stateMutability": "payable",
      "type": "function"
    },
    {
      "inputs": [
        {
          "internalType": "uint256",
          "name": "_issueID",
          "type": "uint256"
        }
      ],
      "name": "postSolutionProposal",
      "outputs": [],
      "stateMutability": "nonpayable",
      "type": "function"
    },
    {
      "inputs": [],
      "name": "proposedSolutionCount",
      "outputs": [
        {
          "internalType": "uint256",
          "name": "",
          "type": "uint256"
        }
      ],
      "stateMutability": "view",
      "type": "function"
    },
    {
      "inputs": [
        {
          "internalType": "string",
          "name": "_name",
          "type": "string"
        },
        {
          "internalType": "string",
          "name": "_nftMetadata",
          "type": "string"
        }
      ],
      "name": "registerCompany",
      "outputs": [
        {
          "components": [
            {
              "internalType": "string",
              "name": "name",
              "type": "string"
            },
            {
              "internalType": "string",
              "name": "nftMetadata",
              "type": "string"
            },
            {
              "internalType": "bool",
              "name": "isRegistered",
              "type": "bool"
            }
          ],
          "internalType": "struct DeBounty.Company",
          "name": "",
          "type": "tuple"
        }
      ],
      "stateMutability": "nonpayable",
      "type": "function"
    },
    {
      "inputs": [
        {
          "internalType": "string",
          "name": "_name",
          "type": "string"
        }
      ],
      "name": "registerHunter",
      "outputs": [],
      "stateMutability": "nonpayable",
      "type": "function"
    },
    {
      "stateMutability": "payable",
      "type": "receive"
    }
  ],
  "bytecode": "0x608060405234801561001057600080fd5b50336000806101000a81548173ffffffffffffffffffffffffffffffffffffffff021916908373ffffffffffffffffffffffffffffffffffffffff16021790555060006003819055506134f5806100686000396000f3fe6080604052600436106100f75760003560e01c8063afa83f0e1161008a578063e83b33ec11610059578063e83b33ec14610334578063f36d65571461035f578063f76540431461038a578063f851a440146103b3576100fe565b8063afa83f0e1461028a578063b77b5171146102b3578063befa098d146102de578063e254120214610309576100fe565b806374448ba4116100c657806374448ba4146101d657806375e77f1d1461021357806381c1c1391461024357806398cf147a1461025f576100fe565b806304e15de514610100578063127810bc146101455780632b6f0495146101705780634d58b84514610199576100fe565b366100fe57005b005b34801561010c57600080fd5b5061012760048036038101906101229190612517565b6103de565b60405161013c99989796959493929190612de7565b60405180910390f35b34801561015157600080fd5b5061015a610611565b6040516101679190612d66565b60405180910390f35b34801561017c57600080fd5b50610197600480360381019061019291906123bf565b6107a7565b005b3480156101a557600080fd5b506101c060048036038101906101bb9190612517565b61096f565b6040516101cd9190612be9565b60405180910390f35b3480156101e257600080fd5b506101fd60048036038101906101f89190612400565b610c62565b60405161020a9190612d66565b60405180910390f35b61022d6004803603810190610228919061246c565b610fe3565b60405161023a9190612daa565b60405180910390f35b61025d60048036038101906102589190612383565b611490565b005b34801561026b57600080fd5b50610274611557565b6040516102819190612dcc565b60405180910390f35b34801561029657600080fd5b506102b160048036038101906102ac9190612517565b61155d565b005b3480156102bf57600080fd5b506102c86118cc565b6040516102d59190612bc7565b60405180910390f35b3480156102ea57600080fd5b506102f3611cc9565b6040516103009190612c0b565b60405180910390f35b34801561031557600080fd5b5061031e611d38565b60405161032b9190612dcc565b60405180910390f35b34801561034057600080fd5b50610349611d3e565b6040516103569190612c0b565b60405180910390f35b34801561036b57600080fd5b50610374611dad565b6040516103819190612d88565b60405180910390f35b34801561039657600080fd5b506103b160048036038101906103ac9190612540565b611eb1565b005b3480156103bf57600080fd5b506103c861213b565b6040516103d59190612bac565b60405180910390f35b60016020528060005260406000206000915090508060000154908060010160009054906101000a900473ffffffffffffffffffffffffffffffffffffffff16908060020160009054906101000a900473ffffffffffffffffffffffffffffffffffffffff16908060030154908060040180546104599061306f565b80601f01602080910402602001604051908101604052809291908181526020018280546104859061306f565b80156104d25780601f106104a7576101008083540402835291602001916104d2565b820191906000526020600020905b8154815290600101906020018083116104b557829003601f168201915b5050505050908060050180546104e79061306f565b80601f01602080910402602001604051908101604052809291908181526020018280546105139061306f565b80156105605780601f1061053557610100808354040283529160200191610560565b820191906000526020600020905b81548152906001019060200180831161054357829003601f168201915b5050505050908060060180546105759061306f565b80601f01602080910402602001604051908101604052809291908181526020018280546105a19061306f565b80156105ee5780601f106105c3576101008083540402835291602001916105ee565b820191906000526020600020905b8154815290600101906020018083116105d157829003601f168201915b5050505050908060070154908060080160009054906101000a900460ff16905089565b61061961215f565b600660003373ffffffffffffffffffffffffffffffffffffffff1673ffffffffffffffffffffffffffffffffffffffff1681526020019081526020016000206040518060600160405290816000820180546106739061306f565b80601f016020809104026020016040519081016040528092919081815260200182805461069f9061306f565b80156106ec5780601f106106c1576101008083540402835291602001916106ec565b820191906000526020600020905b8154815290600101906020018083116106cf57829003601f168201915b505050505081526020016001820180546107059061306f565b80601f01602080910402602001604051908101604052809291908181526020018280546107319061306f565b801561077e5780601f106107535761010080835404028352916020019161077e565b820191906000526020600020905b81548152906001019060200180831161076157829003601f168201915b505050505081526020016002820160009054906101000a900460ff161515151581525050905090565b60011515600560003373ffffffffffffffffffffffffffffffffffffffff1673ffffffffffffffffffffffffffffffffffffffff16815260200190815260200160002060010160009054906101000a900460ff161515141561083e576040517f08c379a000000000000000000000000000000000000000000000000000000000815260040161083590612c66565b60405180910390fd5b60011515600660003373ffffffffffffffffffffffffffffffffffffffff1673ffffffffffffffffffffffffffffffffffffffff16815260200190815260200160002060020160009054906101000a900460ff16151514156108d5576040517f08c379a00000000000000000000000000000000000000000000000000000000081526004016108cc90612d26565b60405180910390fd5b604051806040016040528082815260200160011515815250600560003373ffffffffffffffffffffffffffffffffffffffff1673ffffffffffffffffffffffffffffffffffffffff1681526020019081526020016000206000820151816000019080519060200190610948929190612182565b5060208201518160010160006101000a81548160ff02191690831515021790555090505050565b606060011515600660003373ffffffffffffffffffffffffffffffffffffffff1673ffffffffffffffffffffffffffffffffffffffff16815260200190815260200160002060020160009054906101000a900460ff16151514610a07576040517f08c379a00000000000000000000000000000000000000000000000000000000081526004016109fe90612ca6565b60405180910390fd5b3373ffffffffffffffffffffffffffffffffffffffff166001600084815260200190815260200160002060010160009054906101000a900473ffffffffffffffffffffffffffffffffffffffff1673ffffffffffffffffffffffffffffffffffffffff1614610aab576040517f08c379a0000000000000000000000000000000000000000000000000000000008152600401610aa290612c26565b60405180910390fd5b60026000838152602001908152602001600020805480602002602001604051908101604052809291908181526020016000905b82821015610c5757838290600052602060002090600402016040518060a001604052908160008201548152602001600182015481526020016002820160009054906101000a900473ffffffffffffffffffffffffffffffffffffffff1673ffffffffffffffffffffffffffffffffffffffff1673ffffffffffffffffffffffffffffffffffffffff1681526020016003820160009054906101000a900473ffffffffffffffffffffffffffffffffffffffff1673ffffffffffffffffffffffffffffffffffffffff1673ffffffffffffffffffffffffffffffffffffffff1681526020016003820160149054906101000a900460ff166002811115610c0c577f4e487b7100000000000000000000000000000000000000000000000000000000600052602160045260246000fd5b6002811115610c44577f4e487b7100000000000000000000000000000000000000000000000000000000600052602160045260246000fd5b8152505081526020019060010190610ade565b505050509050919050565b610c6a61215f565b60011515600660003373ffffffffffffffffffffffffffffffffffffffff1673ffffffffffffffffffffffffffffffffffffffff16815260200190815260200160002060020160009054906101000a900460ff1615151415610d01576040517f08c379a0000000000000000000000000000000000000000000000000000000008152600401610cf890612c46565b60405180910390fd5b60011515600560003373ffffffffffffffffffffffffffffffffffffffff1673ffffffffffffffffffffffffffffffffffffffff16815260200190815260200160002060010160009054906101000a900460ff1615151415610d98576040517f08c379a0000000000000000000000000000000000000000000000000000000008152600401610d8f90612cc6565b60405180910390fd5b604051806060016040528084815260200183815260200160011515815250600660003373ffffffffffffffffffffffffffffffffffffffff1673ffffffffffffffffffffffffffffffffffffffff1681526020019081526020016000206000820151816000019080519060200190610e11929190612182565b506020820151816001019080519060200190610e2e929190612182565b5060408201518160020160006101000a81548160ff021916908315150217905550905050600660003373ffffffffffffffffffffffffffffffffffffffff1673ffffffffffffffffffffffffffffffffffffffff168152602001908152602001600020604051806060016040529081600082018054610eac9061306f565b80601f0160208091040260200160405190810160405280929190818152602001828054610ed89061306f565b8015610f255780601f10610efa57610100808354040283529160200191610f25565b820191906000526020600020905b815481529060010190602001808311610f0857829003601f168201915b50505050508152602001600182018054610f3e9061306f565b80601f0160208091040260200160405190810160405280929190818152602001828054610f6a9061306f565b8015610fb75780601f10610f8c57610100808354040283529160200191610fb7565b820191906000526020600020905b815481529060010190602001808311610f9a57829003601f168201915b505050505081526020016002820160009054906101000a900460ff161515151581525050905092915050565b610feb612208565b60011515600660003373ffffffffffffffffffffffffffffffffffffffff1673ffffffffffffffffffffffffffffffffffffffff16815260200190815260200160002060020160009054906101000a900460ff16151514611081576040517f08c379a000000000000000000000000000000000000000000000000000000000815260040161107890612ca6565b60405180910390fd5b813410156110c4576040517f08c379a00000000000000000000000000000000000000000000000000000000081526004016110bb90612ce6565b60405180910390fd5b600060405180610120016040528060035481526020013373ffffffffffffffffffffffffffffffffffffffff168152602001600073ffffffffffffffffffffffffffffffffffffffff168152602001600081526020018781526020018681526020018581526020018481526020016000600281111561116c577f4e487b7100000000000000000000000000000000000000000000000000000000600052602160045260246000fd5b8152509050806001600060035481526020019081526020016000206000820151816000015560208201518160010160006101000a81548173ffffffffffffffffffffffffffffffffffffffff021916908373ffffffffffffffffffffffffffffffffffffffff16021790555060408201518160020160006101000a81548173ffffffffffffffffffffffffffffffffffffffff021916908373ffffffffffffffffffffffffffffffffffffffff160217905550606082015181600301556080820151816004019080519060200190611245929190612182565b5060a0820151816005019080519060200190611262929190612182565b5060c082015181600601908051906020019061127f929190612182565b5060e082015181600701556101008201518160080160006101000a81548160ff021916908360028111156112dc577f4e487b7100000000000000000000000000000000000000000000000000000000600052602160045260246000fd5b021790555090505060078190806001815401808255809150506001900390600052602060002090600902016000909190919091506000820151816000015560208201518160010160006101000a81548173ffffffffffffffffffffffffffffffffffffffff021916908373ffffffffffffffffffffffffffffffffffffffff16021790555060408201518160020160006101000a81548173ffffffffffffffffffffffffffffffffffffffff021916908373ffffffffffffffffffffffffffffffffffffffff1602179055506060820151816003015560808201518160040190805190602001906113ce929190612182565b5060a08201518160050190805190602001906113eb929190612182565b5060c0820151816006019080519060200190611408929190612182565b5060e082015181600701556101008201518160080160006101000a81548160ff02191690836002811115611465577f4e487b7100000000000000000000000000000000000000000000000000000000600052602160045260246000fd5b021790555050506003600081548092919061147f906130d2565b919050555080915050949350505050565b60008273ffffffffffffffffffffffffffffffffffffffff1660016000848152602001908152602001600020600701546040516114cc90612b97565b60006040518083038185875af1925050503d8060008114611509576040519150601f19603f3d011682016040523d82523d6000602084013e61150e565b606091505b5050905080611552576040517f08c379a000000000000000000000000000000000000000000000000000000000815260040161154990612d46565b60405180910390fd5b505050565b60035481565b60011515600560003373ffffffffffffffffffffffffffffffffffffffff1673ffffffffffffffffffffffffffffffffffffffff16815260200190815260200160002060010160009054906101000a900460ff161515146115f3576040517f08c379a00000000000000000000000000000000000000000000000000000000081526004016115ea90612d06565b60405180910390fd5b6000600281111561162d577f4e487b7100000000000000000000000000000000000000000000000000000000600052602160045260246000fd5b6001600083815260200190815260200160002060080160009054906101000a900460ff166002811115611689577f4e487b7100000000000000000000000000000000000000000000000000000000600052602160045260246000fd5b146116c9576040517f08c379a00000000000000000000000000000000000000000000000000000000081526004016116c090612c86565b60405180910390fd5b6000600260008381526020019081526020016000209050806040518060a0016040528060045481526020018481526020016001600086815260200190815260200160002060010160009054906101000a900473ffffffffffffffffffffffffffffffffffffffff1673ffffffffffffffffffffffffffffffffffffffff1681526020013373ffffffffffffffffffffffffffffffffffffffff168152602001600060028111156117a2577f4e487b7100000000000000000000000000000000000000000000000000000000600052602160045260246000fd5b8152509080600181540180825580915050600190039060005260206000209060040201600090919091909150600082015181600001556020820151816001015560408201518160020160006101000a81548173ffffffffffffffffffffffffffffffffffffffff021916908373ffffffffffffffffffffffffffffffffffffffff16021790555060608201518160030160006101000a81548173ffffffffffffffffffffffffffffffffffffffff021916908373ffffffffffffffffffffffffffffffffffffffff16021790555060808201518160030160146101000a81548160ff021916908360028111156118c1577f4e487b7100000000000000000000000000000000000000000000000000000000600052602160045260246000fd5b021790555050505050565b606060011515600560003373ffffffffffffffffffffffffffffffffffffffff1673ffffffffffffffffffffffffffffffffffffffff16815260200190815260200160002060010160009054906101000a900460ff16151514611964576040517f08c379a000000000000000000000000000000000000000000000000000000000815260040161195b90612d06565b60405180910390fd5b6007805480602002602001604051908101604052809291908181526020016000905b82821015611cc0578382906000526020600020906009020160405180610120016040529081600082015481526020016001820160009054906101000a900473ffffffffffffffffffffffffffffffffffffffff1673ffffffffffffffffffffffffffffffffffffffff1673ffffffffffffffffffffffffffffffffffffffff1681526020016002820160009054906101000a900473ffffffffffffffffffffffffffffffffffffffff1673ffffffffffffffffffffffffffffffffffffffff1673ffffffffffffffffffffffffffffffffffffffff16815260200160038201548152602001600482018054611a7a9061306f565b80601f0160208091040260200160405190810160405280929190818152602001828054611aa69061306f565b8015611af35780601f10611ac857610100808354040283529160200191611af3565b820191906000526020600020905b815481529060010190602001808311611ad657829003601f168201915b50505050508152602001600582018054611b0c9061306f565b80601f0160208091040260200160405190810160405280929190818152602001828054611b389061306f565b8015611b855780601f10611b5a57610100808354040283529160200191611b85565b820191906000526020600020905b815481529060010190602001808311611b6857829003601f168201915b50505050508152602001600682018054611b9e9061306f565b80601f0160208091040260200160405190810160405280929190818152602001828054611bca9061306f565b8015611c175780601f10611bec57610100808354040283529160200191611c17565b820191906000526020600020905b815481529060010190602001808311611bfa57829003601f168201915b50505050508152602001600782015481526020016008820160009054906101000a900460ff166002811115611c75577f4e487b7100000000000000000000000000000000000000000000000000000000600052602160045260246000fd5b6002811115611cad577f4e487b7100000000000000000000000000000000000000000000000000000000600052602160045260246000fd5b8152505081526020019060010190611986565b50505050905090565b600060011515600660003373ffffffffffffffffffffffffffffffffffffffff1673ffffffffffffffffffffffffffffffffffffffff16815260200190815260200160002060020160009054906101000a900460ff1615151415611d305760019050611d35565b600090505b90565b60045481565b600060011515600560003373ffffffffffffffffffffffffffffffffffffffff1673ffffffffffffffffffffffffffffffffffffffff16815260200190815260200160002060010160009054906101000a900460ff1615151415611da55760019050611daa565b600090505b90565b611db56122b8565b600560003373ffffffffffffffffffffffffffffffffffffffff1673ffffffffffffffffffffffffffffffffffffffff168152602001908152602001600020604051806040016040529081600082018054611e0f9061306f565b80601f0160208091040260200160405190810160405280929190818152602001828054611e3b9061306f565b8015611e885780601f10611e5d57610100808354040283529160200191611e88565b820191906000526020600020905b815481529060010190602001808311611e6b57829003601f168201915b505050505081526020016001820160009054906101000a900460ff161515151581525050905090565b60011515600660003373ffffffffffffffffffffffffffffffffffffffff1673ffffffffffffffffffffffffffffffffffffffff16815260200190815260200160002060020160009054906101000a900460ff16151514611f47576040517f08c379a0000000000000000000000000000000000000000000000000000000008152600401611f3e90612ca6565b60405180910390fd5b6000600260008381526020019081526020016000208381548110611f94577f4e487b7100000000000000000000000000000000000000000000000000000000600052603260045260246000fd5b906000526020600020906004020160030160009054906101000a900473ffffffffffffffffffffffffffffffffffffffff169050600180600084815260200190815260200160002060080160006101000a81548160ff02191690836002811115612027577f4e487b7100000000000000000000000000000000000000000000000000000000600052602160045260246000fd5b0217905550806001600084815260200190815260200160002060020160006101000a81548173ffffffffffffffffffffffffffffffffffffffff021916908373ffffffffffffffffffffffffffffffffffffffff16021790555060016002600084815260200190815260200160002084815481106120ce577f4e487b7100000000000000000000000000000000000000000000000000000000600052603260045260246000fd5b906000526020600020906004020160030160146101000a81548160ff02191690836002811115612127577f4e487b7100000000000000000000000000000000000000000000000000000000600052602160045260246000fd5b02179055506121368183611490565b505050565b60008054906101000a900473ffffffffffffffffffffffffffffffffffffffff1681565b604051806060016040528060608152602001606081526020016000151581525090565b82805461218e9061306f565b90600052602060002090601f0160209004810192826121b057600085556121f7565b82601f106121c957805160ff19168380011785556121f7565b828001600101855582156121f7579182015b828111156121f65782518255916020019190600101906121db565b5b50905061220491906122d4565b5090565b60405180610120016040528060008152602001600073ffffffffffffffffffffffffffffffffffffffff168152602001600073ffffffffffffffffffffffffffffffffffffffff1681526020016000815260200160608152602001606081526020016060815260200160008152602001600060028111156122b2577f4e487b7100000000000000000000000000000000000000000000000000000000600052602160045260246000fd5b81525090565b6040518060400160405280606081526020016000151581525090565b5b808211156122ed5760008160009055506001016122d5565b5090565b60006123046122ff84612eae565b612e89565b90508281526020810184848401111561231c57600080fd5b61232784828561302d565b509392505050565b60008135905061233e81613491565b92915050565b600082601f83011261235557600080fd5b81356123658482602086016122f1565b91505092915050565b60008135905061237d816134a8565b92915050565b6000806040838503121561239657600080fd5b60006123a48582860161232f565b92505060206123b58582860161236e565b9150509250929050565b6000602082840312156123d157600080fd5b600082013567ffffffffffffffff8111156123eb57600080fd5b6123f784828501612344565b91505092915050565b6000806040838503121561241357600080fd5b600083013567ffffffffffffffff81111561242d57600080fd5b61243985828601612344565b925050602083013567ffffffffffffffff81111561245657600080fd5b61246285828601612344565b9150509250929050565b6000806000806080858703121561248257600080fd5b600085013567ffffffffffffffff81111561249c57600080fd5b6124a887828801612344565b945050602085013567ffffffffffffffff8111156124c557600080fd5b6124d187828801612344565b935050604085013567ffffffffffffffff8111156124ee57600080fd5b6124fa87828801612344565b925050606061250b8782880161236e565b91505092959194509250565b60006020828403121561252957600080fd5b60006125378482850161236e565b91505092915050565b6000806040838503121561255357600080fd5b60006125618582860161236e565b92505060206125728582860161236e565b9150509250929050565b6000612588838361296b565b905092915050565b600061259c8383612b11565b60a08301905092915050565b6125b181612f89565b82525050565b6125c081612f89565b82525050565b60006125d182612eff565b6125db8185612f3a565b9350836020820285016125ed85612edf565b8060005b85811015612629578484038952815161260a858261257c565b945061261583612f20565b925060208a019950506001810190506125f1565b50829750879550505050505092915050565b600061264682612f0a565b6126508185612f4b565b935061265b83612eef565b8060005b8381101561268c5781516126738882612590565b975061267e83612f2d565b92505060018101905061265f565b5085935050505092915050565b6126a281612fad565b82525050565b6126b181612fad565b82525050565b6126c081613009565b82525050565b6126cf81613009565b82525050565b6126de8161301b565b82525050565b60006126ef82612f15565b6126f98185612f67565b935061270981856020860161303c565b612712816131d7565b840191505092915050565b600061272882612f15565b6127328185612f78565b935061274281856020860161303c565b61274b816131d7565b840191505092915050565b6000612763602d83612f78565b915061276e826131e8565b604082019050919050565b6000612786602283612f78565b915061279182613237565b604082019050919050565b60006127a9602183612f78565b91506127b482613286565b604082019050919050565b60006127cc602183612f78565b91506127d7826132d5565b604082019050919050565b60006127ef601d83612f78565b91506127fa82613324565b602082019050919050565b6000612812602683612f78565b915061281d8261334d565b604082019050919050565b6000612835600083612f5c565b91506128408261339c565b600082019050919050565b6000612858601383612f78565b91506128638261339f565b602082019050919050565b600061287b601c83612f78565b9150612886826133c8565b602082019050919050565b600061289e602783612f78565b91506128a9826133f1565b604082019050919050565b60006128c1601383612f78565b91506128cc82613440565b602082019050919050565b600060608301600083015184820360008601526128f482826126e4565b9150506020830151848203602086015261290e82826126e4565b91505060408301516129236040860182612699565b508091505092915050565b6000604083016000830151848203600086015261294b82826126e4565b91505060208301516129606020860182612699565b508091505092915050565b6000610120830160008301516129846000860182612b79565b50602083015161299760208601826125a8565b5060408301516129aa60408601826125a8565b5060608301516129bd6060860182612b79565b50608083015184820360808601526129d582826126e4565b91505060a083015184820360a08601526129ef82826126e4565b91505060c083015184820360c0860152612a0982826126e4565b91505060e0830151612a1e60e0860182612b79565b50610100830151612a336101008601826126b7565b508091505092915050565b600061012083016000830151612a576000860182612b79565b506020830151612a6a60208601826125a8565b506040830151612a7d60408601826125a8565b506060830151612a906060860182612b79565b5060808301518482036080860152612aa882826126e4565b91505060a083015184820360a0860152612ac282826126e4565b91505060c083015184820360c0860152612adc82826126e4565b91505060e0830151612af160e0860182612b79565b50610100830151612b066101008601826126b7565b508091505092915050565b60a082016000820151612b276000850182612b79565b506020820151612b3a6020850182612b79565b506040820151612b4d60408501826125a8565b506060820151612b6060608501826125a8565b506080820151612b7360808501826126d5565b50505050565b612b8281612fff565b82525050565b612b9181612fff565b82525050565b6000612ba282612828565b9150819050919050565b6000602082019050612bc160008301846125b7565b92915050565b60006020820190508181036000830152612be181846125c6565b905092915050565b60006020820190508181036000830152612c03818461263b565b905092915050565b6000602082019050612c2060008301846126a8565b92915050565b60006020820190508181036000830152612c3f81612756565b9050919050565b60006020820190508181036000830152612c5f81612779565b9050919050565b60006020820190508181036000830152612c7f8161279c565b9050919050565b60006020820190508181036000830152612c9f816127bf565b9050919050565b60006020820190508181036000830152612cbf816127e2565b9050919050565b60006020820190508181036000830152612cdf81612805565b9050919050565b60006020820190508181036000830152612cff8161284b565b9050919050565b60006020820190508181036000830152612d1f8161286e565b9050919050565b60006020820190508181036000830152612d3f81612891565b9050919050565b60006020820190508181036000830152612d5f816128b4565b9050919050565b60006020820190508181036000830152612d8081846128d7565b905092915050565b60006020820190508181036000830152612da2818461292e565b905092915050565b60006020820190508181036000830152612dc48184612a3e565b905092915050565b6000602082019050612de16000830184612b88565b92915050565b600061012082019050612dfd600083018c612b88565b612e0a602083018b6125b7565b612e17604083018a6125b7565b612e246060830189612b88565b8181036080830152612e36818861271d565b905081810360a0830152612e4a818761271d565b905081810360c0830152612e5e818661271d565b9050612e6d60e0830185612b88565b612e7b6101008301846126c6565b9a9950505050505050505050565b6000612e93612ea4565b9050612e9f82826130a1565b919050565b6000604051905090565b600067ffffffffffffffff821115612ec957612ec86131a8565b5b612ed2826131d7565b9050602081019050919050565b6000819050602082019050919050565b6000819050602082019050919050565b600081519050919050565b600081519050919050565b600081519050919050565b6000602082019050919050565b6000602082019050919050565b600082825260208201905092915050565b600082825260208201905092915050565b600081905092915050565b600082825260208201905092915050565b600082825260208201905092915050565b6000612f9482612fdf565b9050919050565b6000612fa682612fdf565b9050919050565b60008115159050919050565b6000819050612fc782613469565b919050565b6000819050612fda8261347d565b919050565b600073ffffffffffffffffffffffffffffffffffffffff82169050919050565b6000819050919050565b600061301482612fb9565b9050919050565b600061302682612fcc565b9050919050565b82818337600083830152505050565b60005b8381101561305a57808201518184015260208101905061303f565b83811115613069576000848401525b50505050565b6000600282049050600182168061308757607f821691505b6020821081141561309b5761309a613179565b5b50919050565b6130aa826131d7565b810181811067ffffffffffffffff821117156130c9576130c86131a8565b5b80604052505050565b60006130dd82612fff565b91507fffffffffffffffffffffffffffffffffffffffffffffffffffffffffffffffff8214156131105761310f61311b565b5b600182019050919050565b7f4e487b7100000000000000000000000000000000000000000000000000000000600052601160045260246000fd5b7f4e487b7100000000000000000000000000000000000000000000000000000000600052602160045260246000fd5b7f4e487b7100000000000000000000000000000000000000000000000000000000600052602260045260246000fd5b7f4e487b7100000000000000000000000000000000000000000000000000000000600052604160045260246000fd5b6000601f19601f8301169050919050565b7f596f752068617665206e6f2061636365737320746f20766965772070726f706f60008201527f73656420736f6c7574696f6e7300000000000000000000000000000000000000602082015250565b7f436f6d70616e79206164647265737320616c726561647920726567697374657260008201527f6564000000000000000000000000000000000000000000000000000000000000602082015250565b7f48756e746572206164647265737320616c72656164792072656769737465726560008201527f6400000000000000000000000000000000000000000000000000000000000000602082015250565b7f43616e277420706f7374207468697320736f6c7574696f6e2070726f706f736160008201527f6c00000000000000000000000000000000000000000000000000000000000000602082015250565b7f436f6d70616e79206973206e6f74207265676973746572656420796574000000600082015250565b7f54686973206163636f756e74206973207265676973746572656420617320612060008201527f68756e7465720000000000000000000000000000000000000000000000000000602082015250565b50565b7f496e73756666696369656e742066756e64732000000000000000000000000000600082015250565b7f48756e746572206973206e6f7420726567697374657265642079657400000000600082015250565b7f546869732061646472657373206973207265676973746572656420617320612060008201527f636f6d70616e7900000000000000000000000000000000000000000000000000602082015250565b7f6661696c6564207472616e7361636374696f6e00000000000000000000000000600082015250565b6003811061347a5761347961314a565b5b50565b6003811061348e5761348d61314a565b5b50565b61349a81612f9b565b81146134a557600080fd5b50565b6134b181612fff565b81146134bc57600080fd5b5056fea26469706673582212204f66860427816e56a74fb3e36f9e61c8f169c6d5fe9781e4bba38e6c749a453764736f6c63430008040033",
  "linkReferences": {},
  "deployedLinkReferences": {}
}