{
  "_format": "hh-sol-artifact-1",
  "contractName": "DeBounty",
  "sourceName": "contracts/DeBounty.sol",
  "abi": [
    {
      "inputs": [],
      "stateMutability": "nonpayable",
      "type": "constructor"
    },
    {
      "stateMutability": "payable",
      "type": "fallback"
    },
    {
      "inputs": [
        {
          "internalType": "uint256",
          "name": "_proposedSolnID",
          "type": "uint256"
        },
        {
          "internalType": "uint256",
          "name": "_issueID",
          "type": "uint256"
        }
      ],
      "name": "acceptProposedSolution",
      "outputs": [],
      "stateMutability": "nonpayable",
      "type": "function"
    },
    {
      "inputs": [],
      "name": "admin",
      "outputs": [
        {
          "internalType": "address",
          "name": "",
          "type": "address"
        }
      ],
      "stateMutability": "view",
      "type": "function"
    },
    {
      "inputs": [
        {
          "internalType": "uint256",
          "name": "_issueID",
          "type": "uint256"
        }
      ],
      "name": "getAllProposedSolution",
      "outputs": [
        {
          "components": [
            {
              "internalType": "uint256",
              "name": "id",
              "type": "uint256"
            },
            {
              "internalType": "uint256",
              "name": "issueID",
              "type": "uint256"
            },
            {
              "internalType": "address",
              "name": "issueCreator",
              "type": "address"
            },
            {
              "internalType": "address",
              "name": "proposer",
              "type": "address"
            },
            {
              "internalType": "enum DeBounty.PROPOSED_SOLUTION_STATUS",
              "name": "status",
              "type": "uint8"
            }
          ],
          "internalType": "struct DeBounty.ProposedSolution[]",
          "name": "",
          "type": "tuple[]"
        }
      ],
      "stateMutability": "view",
      "type": "function"
    },
    {
      "inputs": [],
      "name": "getAllUnsolvedIssues",
      "outputs": [
        {
          "components": [
            {
              "internalType": "uint256",
              "name": "id",
              "type": "uint256"
            },
            {
              "internalType": "address",
              "name": "creator",
              "type": "address"
            },
            {
              "internalType": "address",
              "name": "solver",
              "type": "address"
            },
            {
              "internalType": "uint256",
              "name": "solutionID",
              "type": "uint256"
            },
            {
              "internalType": "string",
              "name": "title",
              "type": "string"
            },
            {
              "internalType": "string",
              "name": "description",
              "type": "string"
            },
            {
              "internalType": "string",
              "name": "hash",
              "type": "string"
            },
            {
              "internalType": "uint256",
              "name": "reward",
              "type": "uint256"
            },
            {
              "internalType": "enum DeBounty.ISSUE_STATUS",
              "name": "status",
              "type": "uint8"
            }
          ],
          "internalType": "struct DeBounty.Issue[]",
          "name": "",
          "type": "tuple[]"
        }
      ],
      "stateMutability": "view",
      "type": "function"
    },
    {
      "inputs": [],
      "name": "getCompany",
      "outputs": [
        {
          "components": [
            {
              "internalType": "string",
              "name": "name",
              "type": "string"
            },
            {
              "internalType": "string",
              "name": "nftMetadata",
              "type": "string"
            },
            {
              "internalType": "bool",
              "name": "isRegistered",
              "type": "bool"
            }
          ],
          "internalType": "struct DeBounty.Company",
          "name": "company",
          "type": "tuple"
        }
      ],
      "stateMutability": "view",
      "type": "function"
    },
    {
      "inputs": [],
      "name": "getHunter",
      "outputs": [
        {
          "components": [
            {
              "internalType": "string",
              "name": "name",
              "type": "string"
            },
            {
              "internalType": "bool",
              "name": "isRegistered",
              "type": "bool"
            }
          ],
          "internalType": "struct DeBounty.Hunter",
          "name": "hunter",
          "type": "tuple"
        }
      ],
      "stateMutability": "view",
      "type": "function"
    },
    {
      "inputs": [],
      "name": "issueCount",
      "outputs": [
        {
          "internalType": "uint256",
          "name": "",
          "type": "uint256"
        }
      ],
      "stateMutability": "view",
      "type": "function"
    },
    {
      "inputs": [
        {
          "internalType": "uint256",
          "name": "",
          "type": "uint256"
        }
      ],
      "name": "issues",
      "outputs": [
        {
          "internalType": "uint256",
          "name": "id",
          "type": "uint256"
        },
        {
          "internalType": "address",
          "name": "creator",
          "type": "address"
        },
        {
          "internalType": "address",
          "name": "solver",
          "type": "address"
        },
        {
          "internalType": "uint256",
          "name": "solutionID",
          "type": "uint256"
        },
        {
          "internalType": "string",
          "name": "title",
          "type": "string"
        },
        {
          "internalType": "string",
          "name": "description",
          "type": "string"
        },
        {
          "internalType": "string",
          "name": "hash",
          "type": "string"
        },
        {
          "internalType": "uint256",
          "name": "reward",
          "type": "uint256"
        },
        {
          "internalType": "enum DeBounty.ISSUE_STATUS",
          "name": "status",
          "type": "uint8"
        }
      ],
      "stateMutability": "view",
      "type": "function"
    },
    {
      "inputs": [
        {
          "internalType": "address payable",
          "name": "_hunterAddress",
          "type": "address"
        },
        {
          "internalType": "uint256",
          "name": "_issueId",
          "type": "uint256"
        }
      ],
      "name": "payHunter",
      "outputs": [],
      "stateMutability": "payable",
      "type": "function"
    },
    {
      "inputs": [
        {
          "internalType": "string",
          "name": "title",
          "type": "string"
        },
        {
          "internalType": "string",
          "name": "description",
          "type": "string"
        },
        {
          "internalType": "string",
          "name": "hash",
          "type": "string"
        },
        {
          "internalType": "uint256",
          "name": "reward",
          "type": "uint256"
        }
      ],
      "name": "postIssue",
      "outputs": [
        {
          "components": [
            {
              "internalType": "uint256",
              "name": "id",
              "type": "uint256"
            },
            {
              "internalType": "address",
              "name": "creator",
              "type": "address"
            },
            {
              "internalType": "address",
              "name": "solver",
              "type": "address"
            },
            {
              "internalType": "uint256",
              "name": "solutionID",
              "type": "uint256"
            },
            {
              "internalType": "string",
              "name": "title",
              "type": "string"
            },
            {
              "internalType": "string",
              "name": "description",
              "type": "string"
            },
            {
              "internalType": "string",
              "name": "hash",
              "type": "string"
            },
            {
              "internalType": "uint256",
              "name": "reward",
              "type": "uint256"
            },
            {
              "internalType": "enum DeBounty.ISSUE_STATUS",
              "name": "status",
              "type": "uint8"
            }
          ],
          "internalType": "struct DeBounty.Issue",
          "name": "",
          "type": "tuple"
        }
      ],
      "stateMutability": "payable",
      "type": "function"
    },
    {
      "inputs": [
        {
          "internalType": "uint256",
          "name": "_issueID",
          "type": "uint256"
        }
      ],
      "name": "postSolutionProposal",
      "outputs": [],
      "stateMutability": "nonpayable",
      "type": "function"
    },
    {
      "inputs": [],
      "name": "proposedSolutionCount",
      "outputs": [
        {
          "internalType": "uint256",
          "name": "",
          "type": "uint256"
        }
      ],
      "stateMutability": "view",
      "type": "function"
    },
    {
      "inputs": [
        {
          "internalType": "string",
          "name": "_name",
          "type": "string"
        },
        {
          "internalType": "string",
          "name": "_nftMetadata",
          "type": "string"
        }
      ],
      "name": "registerCompany",
      "outputs": [
        {
          "components": [
            {
              "internalType": "string",
              "name": "name",
              "type": "string"
            },
            {
              "internalType": "string",
              "name": "nftMetadata",
              "type": "string"
            },
            {
              "internalType": "bool",
              "name": "isRegistered",
              "type": "bool"
            }
          ],
          "internalType": "struct DeBounty.Company",
          "name": "",
          "type": "tuple"
        }
      ],
      "stateMutability": "nonpayable",
      "type": "function"
    },
    {
      "inputs": [
        {
          "internalType": "string",
          "name": "_name",
          "type": "string"
        }
      ],
      "name": "registerHunter",
      "outputs": [],
      "stateMutability": "nonpayable",
      "type": "function"
    },
    {
      "stateMutability": "payable",
      "type": "receive"
    }
  ],
  "bytecode": "0x608060405234801561001057600080fd5b50336000806101000a81548173ffffffffffffffffffffffffffffffffffffffff021916908373ffffffffffffffffffffffffffffffffffffffff1602179055506000600381905550613381806100686000396000f3fe6080604052600436106100e15760003560e01c806398cf147a1161007f578063e254120211610059578063e2541202146102c8578063f36d6557146102f3578063f76540431461031e578063f851a44014610347576100e8565b806398cf147a14610249578063afa83f0e14610274578063b77b51711461029d576100e8565b80634d58b845116100bb5780634d58b8451461018357806374448ba4146101c057806375e77f1d146101fd57806381c1c1391461022d576100e8565b806304e15de5146100ea578063127810bc1461012f5780632b6f04951461015a576100e8565b366100e857005b005b3480156100f657600080fd5b50610111600480360381019061010c91906123cd565b610372565b60405161012699989796959493929190612c73565b60405180910390f35b34801561013b57600080fd5b506101446105a5565b6040516101519190612bf2565b60405180910390f35b34801561016657600080fd5b50610181600480360381019061017c9190612275565b61073b565b005b34801561018f57600080fd5b506101aa60048036038101906101a591906123cd565b610903565b6040516101b79190612a90565b60405180910390f35b3480156101cc57600080fd5b506101e760048036038101906101e291906122b6565b610bf6565b6040516101f49190612bf2565b60405180910390f35b61021760048036038101906102129190612322565b610f77565b6040516102249190612c36565b60405180910390f35b61024760048036038101906102429190612239565b611424565b005b34801561025557600080fd5b5061025e6114eb565b60405161026b9190612c58565b60405180910390f35b34801561028057600080fd5b5061029b600480360381019061029691906123cd565b6114f1565b005b3480156102a957600080fd5b506102b2611860565b6040516102bf9190612a6e565b60405180910390f35b3480156102d457600080fd5b506102dd611c5d565b6040516102ea9190612c58565b60405180910390f35b3480156102ff57600080fd5b50610308611c63565b6040516103159190612c14565b60405180910390f35b34801561032a57600080fd5b50610345600480360381019061034091906123f6565b611d67565b005b34801561035357600080fd5b5061035c611ff1565b6040516103699190612a53565b60405180910390f35b60016020528060005260406000206000915090508060000154908060010160009054906101000a900473ffffffffffffffffffffffffffffffffffffffff16908060020160009054906101000a900473ffffffffffffffffffffffffffffffffffffffff16908060030154908060040180546103ed90612efb565b80601f016020809104026020016040519081016040528092919081815260200182805461041990612efb565b80156104665780601f1061043b57610100808354040283529160200191610466565b820191906000526020600020905b81548152906001019060200180831161044957829003601f168201915b50505050509080600501805461047b90612efb565b80601f01602080910402602001604051908101604052809291908181526020018280546104a790612efb565b80156104f45780601f106104c9576101008083540402835291602001916104f4565b820191906000526020600020905b8154815290600101906020018083116104d757829003601f168201915b50505050509080600601805461050990612efb565b80601f016020809104026020016040519081016040528092919081815260200182805461053590612efb565b80156105825780601f1061055757610100808354040283529160200191610582565b820191906000526020600020905b81548152906001019060200180831161056557829003601f168201915b5050505050908060070154908060080160009054906101000a900460ff16905089565b6105ad612015565b600660003373ffffffffffffffffffffffffffffffffffffffff1673ffffffffffffffffffffffffffffffffffffffff16815260200190815260200160002060405180606001604052908160008201805461060790612efb565b80601f016020809104026020016040519081016040528092919081815260200182805461063390612efb565b80156106805780601f1061065557610100808354040283529160200191610680565b820191906000526020600020905b81548152906001019060200180831161066357829003601f168201915b5050505050815260200160018201805461069990612efb565b80601f01602080910402602001604051908101604052809291908181526020018280546106c590612efb565b80156107125780601f106106e757610100808354040283529160200191610712565b820191906000526020600020905b8154815290600101906020018083116106f557829003601f168201915b505050505081526020016002820160009054906101000a900460ff161515151581525050905090565b60011515600560003373ffffffffffffffffffffffffffffffffffffffff1673ffffffffffffffffffffffffffffffffffffffff16815260200190815260200160002060010160009054906101000a900460ff16151514156107d2576040517f08c379a00000000000000000000000000000000000000000000000000000000081526004016107c990612af2565b60405180910390fd5b60011515600660003373ffffffffffffffffffffffffffffffffffffffff1673ffffffffffffffffffffffffffffffffffffffff16815260200190815260200160002060020160009054906101000a900460ff1615151415610869576040517f08c379a000000000000000000000000000000000000000000000000000000000815260040161086090612bb2565b60405180910390fd5b604051806040016040528082815260200160011515815250600560003373ffffffffffffffffffffffffffffffffffffffff1673ffffffffffffffffffffffffffffffffffffffff16815260200190815260200160002060008201518160000190805190602001906108dc929190612038565b5060208201518160010160006101000a81548160ff02191690831515021790555090505050565b606060011515600660003373ffffffffffffffffffffffffffffffffffffffff1673ffffffffffffffffffffffffffffffffffffffff16815260200190815260200160002060020160009054906101000a900460ff1615151461099b576040517f08c379a000000000000000000000000000000000000000000000000000000000815260040161099290612b32565b60405180910390fd5b3373ffffffffffffffffffffffffffffffffffffffff166001600084815260200190815260200160002060010160009054906101000a900473ffffffffffffffffffffffffffffffffffffffff1673ffffffffffffffffffffffffffffffffffffffff1614610a3f576040517f08c379a0000000000000000000000000000000000000000000000000000000008152600401610a3690612ab2565b60405180910390fd5b60026000838152602001908152602001600020805480602002602001604051908101604052809291908181526020016000905b82821015610beb57838290600052602060002090600402016040518060a001604052908160008201548152602001600182015481526020016002820160009054906101000a900473ffffffffffffffffffffffffffffffffffffffff1673ffffffffffffffffffffffffffffffffffffffff1673ffffffffffffffffffffffffffffffffffffffff1681526020016003820160009054906101000a900473ffffffffffffffffffffffffffffffffffffffff1673ffffffffffffffffffffffffffffffffffffffff1673ffffffffffffffffffffffffffffffffffffffff1681526020016003820160149054906101000a900460ff166002811115610ba0577f4e487b7100000000000000000000000000000000000000000000000000000000600052602160045260246000fd5b6002811115610bd8577f4e487b7100000000000000000000000000000000000000000000000000000000600052602160045260246000fd5b8152505081526020019060010190610a72565b505050509050919050565b610bfe612015565b60011515600660003373ffffffffffffffffffffffffffffffffffffffff1673ffffffffffffffffffffffffffffffffffffffff16815260200190815260200160002060020160009054906101000a900460ff1615151415610c95576040517f08c379a0000000000000000000000000000000000000000000000000000000008152600401610c8c90612ad2565b60405180910390fd5b60011515600560003373ffffffffffffffffffffffffffffffffffffffff1673ffffffffffffffffffffffffffffffffffffffff16815260200190815260200160002060010160009054906101000a900460ff1615151415610d2c576040517f08c379a0000000000000000000000000000000000000000000000000000000008152600401610d2390612b52565b60405180910390fd5b604051806060016040528084815260200183815260200160011515815250600660003373ffffffffffffffffffffffffffffffffffffffff1673ffffffffffffffffffffffffffffffffffffffff1681526020019081526020016000206000820151816000019080519060200190610da5929190612038565b506020820151816001019080519060200190610dc2929190612038565b5060408201518160020160006101000a81548160ff021916908315150217905550905050600660003373ffffffffffffffffffffffffffffffffffffffff1673ffffffffffffffffffffffffffffffffffffffff168152602001908152602001600020604051806060016040529081600082018054610e4090612efb565b80601f0160208091040260200160405190810160405280929190818152602001828054610e6c90612efb565b8015610eb95780601f10610e8e57610100808354040283529160200191610eb9565b820191906000526020600020905b815481529060010190602001808311610e9c57829003601f168201915b50505050508152602001600182018054610ed290612efb565b80601f0160208091040260200160405190810160405280929190818152602001828054610efe90612efb565b8015610f4b5780601f10610f2057610100808354040283529160200191610f4b565b820191906000526020600020905b815481529060010190602001808311610f2e57829003601f168201915b505050505081526020016002820160009054906101000a900460ff161515151581525050905092915050565b610f7f6120be565b60011515600660003373ffffffffffffffffffffffffffffffffffffffff1673ffffffffffffffffffffffffffffffffffffffff16815260200190815260200160002060020160009054906101000a900460ff16151514611015576040517f08c379a000000000000000000000000000000000000000000000000000000000815260040161100c90612b32565b60405180910390fd5b81341015611058576040517f08c379a000000000000000000000000000000000000000000000000000000000815260040161104f90612b72565b60405180910390fd5b600060405180610120016040528060035481526020013373ffffffffffffffffffffffffffffffffffffffff168152602001600073ffffffffffffffffffffffffffffffffffffffff1681526020016000815260200187815260200186815260200185815260200184815260200160006002811115611100577f4e487b7100000000000000000000000000000000000000000000000000000000600052602160045260246000fd5b8152509050806001600060035481526020019081526020016000206000820151816000015560208201518160010160006101000a81548173ffffffffffffffffffffffffffffffffffffffff021916908373ffffffffffffffffffffffffffffffffffffffff16021790555060408201518160020160006101000a81548173ffffffffffffffffffffffffffffffffffffffff021916908373ffffffffffffffffffffffffffffffffffffffff1602179055506060820151816003015560808201518160040190805190602001906111d9929190612038565b5060a08201518160050190805190602001906111f6929190612038565b5060c0820151816006019080519060200190611213929190612038565b5060e082015181600701556101008201518160080160006101000a81548160ff02191690836002811115611270577f4e487b7100000000000000000000000000000000000000000000000000000000600052602160045260246000fd5b021790555090505060078190806001815401808255809150506001900390600052602060002090600902016000909190919091506000820151816000015560208201518160010160006101000a81548173ffffffffffffffffffffffffffffffffffffffff021916908373ffffffffffffffffffffffffffffffffffffffff16021790555060408201518160020160006101000a81548173ffffffffffffffffffffffffffffffffffffffff021916908373ffffffffffffffffffffffffffffffffffffffff160217905550606082015181600301556080820151816004019080519060200190611362929190612038565b5060a082015181600501908051906020019061137f929190612038565b5060c082015181600601908051906020019061139c929190612038565b5060e082015181600701556101008201518160080160006101000a81548160ff021916908360028111156113f9577f4e487b7100000000000000000000000000000000000000000000000000000000600052602160045260246000fd5b021790555050506003600081548092919061141390612f5e565b919050555080915050949350505050565b60008273ffffffffffffffffffffffffffffffffffffffff16600160008481526020019081526020016000206007015460405161146090612a3e565b60006040518083038185875af1925050503d806000811461149d576040519150601f19603f3d011682016040523d82523d6000602084013e6114a2565b606091505b50509050806114e6576040517f08c379a00000000000000000000000000000000000000000000000000000000081526004016114dd90612bd2565b60405180910390fd5b505050565b60035481565b60011515600560003373ffffffffffffffffffffffffffffffffffffffff1673ffffffffffffffffffffffffffffffffffffffff16815260200190815260200160002060010160009054906101000a900460ff16151514611587576040517f08c379a000000000000000000000000000000000000000000000000000000000815260040161157e90612b92565b60405180910390fd5b600060028111156115c1577f4e487b7100000000000000000000000000000000000000000000000000000000600052602160045260246000fd5b6001600083815260200190815260200160002060080160009054906101000a900460ff16600281111561161d577f4e487b7100000000000000000000000000000000000000000000000000000000600052602160045260246000fd5b1461165d576040517f08c379a000000000000000000000000000000000000000000000000000000000815260040161165490612b12565b60405180910390fd5b6000600260008381526020019081526020016000209050806040518060a0016040528060045481526020018481526020016001600086815260200190815260200160002060010160009054906101000a900473ffffffffffffffffffffffffffffffffffffffff1673ffffffffffffffffffffffffffffffffffffffff1681526020013373ffffffffffffffffffffffffffffffffffffffff16815260200160006002811115611736577f4e487b7100000000000000000000000000000000000000000000000000000000600052602160045260246000fd5b8152509080600181540180825580915050600190039060005260206000209060040201600090919091909150600082015181600001556020820151816001015560408201518160020160006101000a81548173ffffffffffffffffffffffffffffffffffffffff021916908373ffffffffffffffffffffffffffffffffffffffff16021790555060608201518160030160006101000a81548173ffffffffffffffffffffffffffffffffffffffff021916908373ffffffffffffffffffffffffffffffffffffffff16021790555060808201518160030160146101000a81548160ff02191690836002811115611855577f4e487b7100000000000000000000000000000000000000000000000000000000600052602160045260246000fd5b021790555050505050565b606060011515600560003373ffffffffffffffffffffffffffffffffffffffff1673ffffffffffffffffffffffffffffffffffffffff16815260200190815260200160002060010160009054906101000a900460ff161515146118f8576040517f08c379a00000000000000000000000000000000000000000000000000000000081526004016118ef90612b92565b60405180910390fd5b6007805480602002602001604051908101604052809291908181526020016000905b82821015611c54578382906000526020600020906009020160405180610120016040529081600082015481526020016001820160009054906101000a900473ffffffffffffffffffffffffffffffffffffffff1673ffffffffffffffffffffffffffffffffffffffff1673ffffffffffffffffffffffffffffffffffffffff1681526020016002820160009054906101000a900473ffffffffffffffffffffffffffffffffffffffff1673ffffffffffffffffffffffffffffffffffffffff1673ffffffffffffffffffffffffffffffffffffffff16815260200160038201548152602001600482018054611a0e90612efb565b80601f0160208091040260200160405190810160405280929190818152602001828054611a3a90612efb565b8015611a875780601f10611a5c57610100808354040283529160200191611a87565b820191906000526020600020905b815481529060010190602001808311611a6a57829003601f168201915b50505050508152602001600582018054611aa090612efb565b80601f0160208091040260200160405190810160405280929190818152602001828054611acc90612efb565b8015611b195780601f10611aee57610100808354040283529160200191611b19565b820191906000526020600020905b815481529060010190602001808311611afc57829003601f168201915b50505050508152602001600682018054611b3290612efb565b80601f0160208091040260200160405190810160405280929190818152602001828054611b5e90612efb565b8015611bab5780601f10611b8057610100808354040283529160200191611bab565b820191906000526020600020905b815481529060010190602001808311611b8e57829003601f168201915b50505050508152602001600782015481526020016008820160009054906101000a900460ff166002811115611c09577f4e487b7100000000000000000000000000000000000000000000000000000000600052602160045260246000fd5b6002811115611c41577f4e487b7100000000000000000000000000000000000000000000000000000000600052602160045260246000fd5b815250508152602001906001019061191a565b50505050905090565b60045481565b611c6b61216e565b600560003373ffffffffffffffffffffffffffffffffffffffff1673ffffffffffffffffffffffffffffffffffffffff168152602001908152602001600020604051806040016040529081600082018054611cc590612efb565b80601f0160208091040260200160405190810160405280929190818152602001828054611cf190612efb565b8015611d3e5780601f10611d1357610100808354040283529160200191611d3e565b820191906000526020600020905b815481529060010190602001808311611d2157829003601f168201915b505050505081526020016001820160009054906101000a900460ff161515151581525050905090565b60011515600660003373ffffffffffffffffffffffffffffffffffffffff1673ffffffffffffffffffffffffffffffffffffffff16815260200190815260200160002060020160009054906101000a900460ff16151514611dfd576040517f08c379a0000000000000000000000000000000000000000000000000000000008152600401611df490612b32565b60405180910390fd5b6000600260008381526020019081526020016000208381548110611e4a577f4e487b7100000000000000000000000000000000000000000000000000000000600052603260045260246000fd5b906000526020600020906004020160030160009054906101000a900473ffffffffffffffffffffffffffffffffffffffff169050600180600084815260200190815260200160002060080160006101000a81548160ff02191690836002811115611edd577f4e487b7100000000000000000000000000000000000000000000000000000000600052602160045260246000fd5b0217905550806001600084815260200190815260200160002060020160006101000a81548173ffffffffffffffffffffffffffffffffffffffff021916908373ffffffffffffffffffffffffffffffffffffffff1602179055506001600260008481526020019081526020016000208481548110611f84577f4e487b7100000000000000000000000000000000000000000000000000000000600052603260045260246000fd5b906000526020600020906004020160030160146101000a81548160ff02191690836002811115611fdd577f4e487b7100000000000000000000000000000000000000000000000000000000600052602160045260246000fd5b0217905550611fec8183611424565b505050565b60008054906101000a900473ffffffffffffffffffffffffffffffffffffffff1681565b604051806060016040528060608152602001606081526020016000151581525090565b82805461204490612efb565b90600052602060002090601f01602090048101928261206657600085556120ad565b82601f1061207f57805160ff19168380011785556120ad565b828001600101855582156120ad579182015b828111156120ac578251825591602001919060010190612091565b5b5090506120ba919061218a565b5090565b60405180610120016040528060008152602001600073ffffffffffffffffffffffffffffffffffffffff168152602001600073ffffffffffffffffffffffffffffffffffffffff168152602001600081526020016060815260200160608152602001606081526020016000815260200160006002811115612168577f4e487b7100000000000000000000000000000000000000000000000000000000600052602160045260246000fd5b81525090565b6040518060400160405280606081526020016000151581525090565b5b808211156121a357600081600090555060010161218b565b5090565b60006121ba6121b584612d3a565b612d15565b9050828152602081018484840111156121d257600080fd5b6121dd848285612eb9565b509392505050565b6000813590506121f48161331d565b92915050565b600082601f83011261220b57600080fd5b813561221b8482602086016121a7565b91505092915050565b60008135905061223381613334565b92915050565b6000806040838503121561224c57600080fd5b600061225a858286016121e5565b925050602061226b85828601612224565b9150509250929050565b60006020828403121561228757600080fd5b600082013567ffffffffffffffff8111156122a157600080fd5b6122ad848285016121fa565b91505092915050565b600080604083850312156122c957600080fd5b600083013567ffffffffffffffff8111156122e357600080fd5b6122ef858286016121fa565b925050602083013567ffffffffffffffff81111561230c57600080fd5b612318858286016121fa565b9150509250929050565b6000806000806080858703121561233857600080fd5b600085013567ffffffffffffffff81111561235257600080fd5b61235e878288016121fa565b945050602085013567ffffffffffffffff81111561237b57600080fd5b612387878288016121fa565b935050604085013567ffffffffffffffff8111156123a457600080fd5b6123b0878288016121fa565b92505060606123c187828801612224565b91505092959194509250565b6000602082840312156123df57600080fd5b60006123ed84828501612224565b91505092915050565b6000806040838503121561240957600080fd5b600061241785828601612224565b925050602061242885828601612224565b9150509250929050565b600061243e8383612812565b905092915050565b600061245283836129b8565b60a08301905092915050565b61246781612e15565b82525050565b61247681612e15565b82525050565b600061248782612d8b565b6124918185612dc6565b9350836020820285016124a385612d6b565b8060005b858110156124df57848403895281516124c08582612432565b94506124cb83612dac565b925060208a019950506001810190506124a7565b50829750879550505050505092915050565b60006124fc82612d96565b6125068185612dd7565b935061251183612d7b565b8060005b838110156125425781516125298882612446565b975061253483612db9565b925050600181019050612515565b5085935050505092915050565b61255881612e39565b82525050565b61256781612e95565b82525050565b61257681612e95565b82525050565b61258581612ea7565b82525050565b600061259682612da1565b6125a08185612df3565b93506125b0818560208601612ec8565b6125b981613063565b840191505092915050565b60006125cf82612da1565b6125d98185612e04565b93506125e9818560208601612ec8565b6125f281613063565b840191505092915050565b600061260a602d83612e04565b915061261582613074565b604082019050919050565b600061262d602283612e04565b9150612638826130c3565b604082019050919050565b6000612650602183612e04565b915061265b82613112565b604082019050919050565b6000612673602183612e04565b915061267e82613161565b604082019050919050565b6000612696601d83612e04565b91506126a1826131b0565b602082019050919050565b60006126b9602683612e04565b91506126c4826131d9565b604082019050919050565b60006126dc600083612de8565b91506126e782613228565b600082019050919050565b60006126ff601383612e04565b915061270a8261322b565b602082019050919050565b6000612722601c83612e04565b915061272d82613254565b602082019050919050565b6000612745602783612e04565b91506127508261327d565b604082019050919050565b6000612768601383612e04565b9150612773826132cc565b602082019050919050565b6000606083016000830151848203600086015261279b828261258b565b915050602083015184820360208601526127b5828261258b565b91505060408301516127ca604086018261254f565b508091505092915050565b600060408301600083015184820360008601526127f2828261258b565b9150506020830151612807602086018261254f565b508091505092915050565b60006101208301600083015161282b6000860182612a20565b50602083015161283e602086018261245e565b506040830151612851604086018261245e565b5060608301516128646060860182612a20565b506080830151848203608086015261287c828261258b565b91505060a083015184820360a0860152612896828261258b565b91505060c083015184820360c08601526128b0828261258b565b91505060e08301516128c560e0860182612a20565b506101008301516128da61010086018261255e565b508091505092915050565b6000610120830160008301516128fe6000860182612a20565b506020830151612911602086018261245e565b506040830151612924604086018261245e565b5060608301516129376060860182612a20565b506080830151848203608086015261294f828261258b565b91505060a083015184820360a0860152612969828261258b565b91505060c083015184820360c0860152612983828261258b565b91505060e083015161299860e0860182612a20565b506101008301516129ad61010086018261255e565b508091505092915050565b60a0820160008201516129ce6000850182612a20565b5060208201516129e16020850182612a20565b5060408201516129f4604085018261245e565b506060820151612a07606085018261245e565b506080820151612a1a608085018261257c565b50505050565b612a2981612e8b565b82525050565b612a3881612e8b565b82525050565b6000612a49826126cf565b9150819050919050565b6000602082019050612a68600083018461246d565b92915050565b60006020820190508181036000830152612a88818461247c565b905092915050565b60006020820190508181036000830152612aaa81846124f1565b905092915050565b60006020820190508181036000830152612acb816125fd565b9050919050565b60006020820190508181036000830152612aeb81612620565b9050919050565b60006020820190508181036000830152612b0b81612643565b9050919050565b60006020820190508181036000830152612b2b81612666565b9050919050565b60006020820190508181036000830152612b4b81612689565b9050919050565b60006020820190508181036000830152612b6b816126ac565b9050919050565b60006020820190508181036000830152612b8b816126f2565b9050919050565b60006020820190508181036000830152612bab81612715565b9050919050565b60006020820190508181036000830152612bcb81612738565b9050919050565b60006020820190508181036000830152612beb8161275b565b9050919050565b60006020820190508181036000830152612c0c818461277e565b905092915050565b60006020820190508181036000830152612c2e81846127d5565b905092915050565b60006020820190508181036000830152612c5081846128e5565b905092915050565b6000602082019050612c6d6000830184612a2f565b92915050565b600061012082019050612c89600083018c612a2f565b612c96602083018b61246d565b612ca3604083018a61246d565b612cb06060830189612a2f565b8181036080830152612cc281886125c4565b905081810360a0830152612cd681876125c4565b905081810360c0830152612cea81866125c4565b9050612cf960e0830185612a2f565b612d0761010083018461256d565b9a9950505050505050505050565b6000612d1f612d30565b9050612d2b8282612f2d565b919050565b6000604051905090565b600067ffffffffffffffff821115612d5557612d54613034565b5b612d5e82613063565b9050602081019050919050565b6000819050602082019050919050565b6000819050602082019050919050565b600081519050919050565b600081519050919050565b600081519050919050565b6000602082019050919050565b6000602082019050919050565b600082825260208201905092915050565b600082825260208201905092915050565b600081905092915050565b600082825260208201905092915050565b600082825260208201905092915050565b6000612e2082612e6b565b9050919050565b6000612e3282612e6b565b9050919050565b60008115159050919050565b6000819050612e53826132f5565b919050565b6000819050612e6682613309565b919050565b600073ffffffffffffffffffffffffffffffffffffffff82169050919050565b6000819050919050565b6000612ea082612e45565b9050919050565b6000612eb282612e58565b9050919050565b82818337600083830152505050565b60005b83811015612ee6578082015181840152602081019050612ecb565b83811115612ef5576000848401525b50505050565b60006002820490506001821680612f1357607f821691505b60208210811415612f2757612f26613005565b5b50919050565b612f3682613063565b810181811067ffffffffffffffff82111715612f5557612f54613034565b5b80604052505050565b6000612f6982612e8b565b91507fffffffffffffffffffffffffffffffffffffffffffffffffffffffffffffffff821415612f9c57612f9b612fa7565b5b600182019050919050565b7f4e487b7100000000000000000000000000000000000000000000000000000000600052601160045260246000fd5b7f4e487b7100000000000000000000000000000000000000000000000000000000600052602160045260246000fd5b7f4e487b7100000000000000000000000000000000000000000000000000000000600052602260045260246000fd5b7f4e487b7100000000000000000000000000000000000000000000000000000000600052604160045260246000fd5b6000601f19601f8301169050919050565b7f596f752068617665206e6f2061636365737320746f20766965772070726f706f60008201527f73656420736f6c7574696f6e7300000000000000000000000000000000000000602082015250565b7f436f6d70616e79206164647265737320616c726561647920726567697374657260008201527f6564000000000000000000000000000000000000000000000000000000000000602082015250565b7f48756e746572206164647265737320616c72656164792072656769737465726560008201527f6400000000000000000000000000000000000000000000000000000000000000602082015250565b7f43616e277420706f7374207468697320736f6c7574696f6e2070726f706f736160008201527f6c00000000000000000000000000000000000000000000000000000000000000602082015250565b7f436f6d70616e79206973206e6f74207265676973746572656420796574000000600082015250565b7f54686973206163636f756e74206973207265676973746572656420617320612060008201527f68756e7465720000000000000000000000000000000000000000000000000000602082015250565b50565b7f496e73756666696369656e742066756e64732000000000000000000000000000600082015250565b7f48756e746572206973206e6f7420726567697374657265642079657400000000600082015250565b7f546869732061646472657373206973207265676973746572656420617320612060008201527f636f6d70616e7900000000000000000000000000000000000000000000000000602082015250565b7f6661696c6564207472616e7361636374696f6e00000000000000000000000000600082015250565b6003811061330657613305612fd6565b5b50565b6003811061331a57613319612fd6565b5b50565b61332681612e27565b811461333157600080fd5b50565b61333d81612e8b565b811461334857600080fd5b5056fea2646970667358221220489abd5167ede3c7289f82651402b6151bf90f215b4dbdfc393f69fa812b4cdd64736f6c63430008040033",
  "linkReferences": {},
  "deployedLinkReferences": {}
}