{
  "_format": "hh-sol-artifact-1",
  "contractName": "DeBounty",
  "sourceName": "contracts/DeBounty.sol",
  "abi": [
    {
      "inputs": [],
      "stateMutability": "nonpayable",
      "type": "constructor"
    },
    {
      "anonymous": false,
      "inputs": [
        {
          "indexed": true,
          "internalType": "address",
          "name": "owner",
          "type": "address"
        },
        {
          "indexed": true,
          "internalType": "address",
          "name": "approved",
          "type": "address"
        },
        {
          "indexed": true,
          "internalType": "uint256",
          "name": "tokenId",
          "type": "uint256"
        }
      ],
      "name": "Approval",
      "type": "event"
    },
    {
      "anonymous": false,
      "inputs": [
        {
          "indexed": true,
          "internalType": "address",
          "name": "owner",
          "type": "address"
        },
        {
          "indexed": true,
          "internalType": "address",
          "name": "operator",
          "type": "address"
        },
        {
          "indexed": false,
          "internalType": "bool",
          "name": "approved",
          "type": "bool"
        }
      ],
      "name": "ApprovalForAll",
      "type": "event"
    },
    {
      "anonymous": false,
      "inputs": [
        {
          "indexed": true,
          "internalType": "address",
          "name": "from",
          "type": "address"
        },
        {
          "indexed": true,
          "internalType": "address",
          "name": "to",
          "type": "address"
        },
        {
          "indexed": true,
          "internalType": "uint256",
          "name": "tokenId",
          "type": "uint256"
        }
      ],
      "name": "Transfer",
      "type": "event"
    },
    {
      "stateMutability": "payable",
      "type": "fallback"
    },
    {
      "inputs": [
        {
          "internalType": "uint256",
          "name": "_proposedSolnID",
          "type": "uint256"
        }
      ],
      "name": "acceptProposedSolution",
      "outputs": [],
      "stateMutability": "nonpayable",
      "type": "function"
    },
    {
      "inputs": [],
      "name": "admin",
      "outputs": [
        {
          "internalType": "address",
          "name": "",
          "type": "address"
        }
      ],
      "stateMutability": "view",
      "type": "function"
    },
    {
      "inputs": [
        {
          "internalType": "address",
          "name": "to",
          "type": "address"
        },
        {
          "internalType": "uint256",
          "name": "tokenId",
          "type": "uint256"
        }
      ],
      "name": "approve",
      "outputs": [],
      "stateMutability": "nonpayable",
      "type": "function"
    },
    {
      "inputs": [
        {
          "internalType": "address",
          "name": "owner",
          "type": "address"
        }
      ],
      "name": "balanceOf",
      "outputs": [
        {
          "internalType": "uint256",
          "name": "",
          "type": "uint256"
        }
      ],
      "stateMutability": "view",
      "type": "function"
    },
    {
      "inputs": [
        {
          "internalType": "uint256",
          "name": "tokenId",
          "type": "uint256"
        }
      ],
      "name": "getApproved",
      "outputs": [
        {
          "internalType": "address",
          "name": "",
          "type": "address"
        }
      ],
      "stateMutability": "view",
      "type": "function"
    },
    {
      "inputs": [],
      "name": "getCompany",
      "outputs": [
        {
          "components": [
            {
              "internalType": "string",
              "name": "name",
              "type": "string"
            },
            {
              "internalType": "string",
              "name": "nftMetadata",
              "type": "string"
            },
            {
              "internalType": "bool",
              "name": "isRegistered",
              "type": "bool"
            }
          ],
          "internalType": "struct DeBounty.Company",
          "name": "company",
          "type": "tuple"
        }
      ],
      "stateMutability": "view",
      "type": "function"
    },
    {
      "inputs": [],
      "name": "getHunter",
      "outputs": [
        {
          "components": [
            {
              "internalType": "string",
              "name": "name",
              "type": "string"
            },
            {
              "internalType": "bool",
              "name": "isRegistered",
              "type": "bool"
            }
          ],
          "internalType": "struct DeBounty.Hunter",
          "name": "hunter",
          "type": "tuple"
        }
      ],
      "stateMutability": "view",
      "type": "function"
    },
    {
      "inputs": [
        {
          "internalType": "address",
          "name": "owner",
          "type": "address"
        },
        {
          "internalType": "address",
          "name": "operator",
          "type": "address"
        }
      ],
      "name": "isApprovedForAll",
      "outputs": [
        {
          "internalType": "bool",
          "name": "",
          "type": "bool"
        }
      ],
      "stateMutability": "view",
      "type": "function"
    },
    {
      "inputs": [],
      "name": "isCompanyValid",
      "outputs": [
        {
          "internalType": "bool",
          "name": "",
          "type": "bool"
        }
      ],
      "stateMutability": "view",
      "type": "function"
    },
    {
      "inputs": [],
      "name": "isHunterValid",
      "outputs": [
        {
          "internalType": "bool",
          "name": "",
          "type": "bool"
        }
      ],
      "stateMutability": "view",
      "type": "function"
    },
    {
      "inputs": [],
      "name": "issueCount",
      "outputs": [
        {
          "internalType": "uint256",
          "name": "",
          "type": "uint256"
        }
      ],
      "stateMutability": "view",
      "type": "function"
    },
    {
      "inputs": [
        {
          "internalType": "uint256",
          "name": "",
          "type": "uint256"
        }
      ],
      "name": "issues",
      "outputs": [
        {
          "internalType": "uint256",
          "name": "id",
          "type": "uint256"
        },
        {
          "internalType": "address",
          "name": "creator",
          "type": "address"
        },
        {
          "internalType": "address",
          "name": "solver",
          "type": "address"
        },
        {
          "internalType": "uint256",
          "name": "solutionID",
          "type": "uint256"
        },
        {
          "internalType": "string",
          "name": "title",
          "type": "string"
        },
        {
          "internalType": "string",
          "name": "description",
          "type": "string"
        },
        {
          "internalType": "string",
          "name": "issueHash",
          "type": "string"
        },
        {
          "internalType": "uint256",
          "name": "reward",
          "type": "uint256"
        },
        {
          "internalType": "enum DeBounty.ISSUE_STATUS",
          "name": "status",
          "type": "uint8"
        }
      ],
      "stateMutability": "view",
      "type": "function"
    },
    {
      "inputs": [],
      "name": "name",
      "outputs": [
        {
          "internalType": "string",
          "name": "",
          "type": "string"
        }
      ],
      "stateMutability": "view",
      "type": "function"
    },
    {
      "inputs": [
        {
          "internalType": "uint256",
          "name": "tokenId",
          "type": "uint256"
        }
      ],
      "name": "ownerOf",
      "outputs": [
        {
          "internalType": "address",
          "name": "",
          "type": "address"
        }
      ],
      "stateMutability": "view",
      "type": "function"
    },
    {
      "inputs": [
        {
          "internalType": "address payable",
          "name": "_hunterAddress",
          "type": "address"
        },
        {
          "internalType": "uint256",
          "name": "_issueId",
          "type": "uint256"
        }
      ],
      "name": "payHunter",
      "outputs": [],
      "stateMutability": "payable",
      "type": "function"
    },
    {
      "inputs": [
        {
          "internalType": "string",
          "name": "title",
          "type": "string"
        },
        {
          "internalType": "string",
          "name": "description",
          "type": "string"
        },
        {
          "internalType": "string",
          "name": "issueHash",
          "type": "string"
        },
        {
          "internalType": "uint256",
          "name": "reward",
          "type": "uint256"
        }
      ],
      "name": "postIssue",
      "outputs": [],
      "stateMutability": "payable",
      "type": "function"
    },
    {
      "inputs": [
        {
          "internalType": "uint256",
          "name": "_issueID",
          "type": "uint256"
        },
        {
          "internalType": "string",
          "name": "_solutionDescription",
          "type": "string"
        }
      ],
      "name": "postSolutionProposal",
      "outputs": [],
      "stateMutability": "nonpayable",
      "type": "function"
    },
    {
      "inputs": [],
      "name": "proposedSolutionCount",
      "outputs": [
        {
          "internalType": "uint256",
          "name": "",
          "type": "uint256"
        }
      ],
      "stateMutability": "view",
      "type": "function"
    },
    {
      "inputs": [
        {
          "internalType": "uint256",
          "name": "",
          "type": "uint256"
        }
      ],
      "name": "proposedSolutions",
      "outputs": [
        {
          "internalType": "uint256",
          "name": "id",
          "type": "uint256"
        },
        {
          "internalType": "uint256",
          "name": "issueID",
          "type": "uint256"
        },
        {
          "internalType": "enum DeBounty.ISSUE_STATUS",
          "name": "issueStatus",
          "type": "uint8"
        },
        {
          "internalType": "address",
          "name": "issueCreator",
          "type": "address"
        },
        {
          "internalType": "address",
          "name": "proposer",
          "type": "address"
        },
        {
          "internalType": "string",
          "name": "solutionDescription",
          "type": "string"
        },
        {
          "internalType": "enum DeBounty.PROPOSED_SOLUTION_STATUS",
          "name": "status",
          "type": "uint8"
        }
      ],
      "stateMutability": "view",
      "type": "function"
    },
    {
      "inputs": [
        {
          "internalType": "string",
          "name": "_name",
          "type": "string"
        },
        {
          "internalType": "string",
          "name": "_nftMetadata",
          "type": "string"
        }
      ],
      "name": "registerCompany",
      "outputs": [],
      "stateMutability": "nonpayable",
      "type": "function"
    },
    {
      "inputs": [
        {
          "internalType": "string",
          "name": "_name",
          "type": "string"
        }
      ],
      "name": "registerHunter",
      "outputs": [],
      "stateMutability": "nonpayable",
      "type": "function"
    },
    {
      "inputs": [
        {
          "internalType": "address",
          "name": "from",
          "type": "address"
        },
        {
          "internalType": "address",
          "name": "to",
          "type": "address"
        },
        {
          "internalType": "uint256",
          "name": "tokenId",
          "type": "uint256"
        }
      ],
      "name": "safeTransferFrom",
      "outputs": [],
      "stateMutability": "nonpayable",
      "type": "function"
    },
    {
      "inputs": [
        {
          "internalType": "address",
          "name": "from",
          "type": "address"
        },
        {
          "internalType": "address",
          "name": "to",
          "type": "address"
        },
        {
          "internalType": "uint256",
          "name": "tokenId",
          "type": "uint256"
        },
        {
          "internalType": "bytes",
          "name": "data",
          "type": "bytes"
        }
      ],
      "name": "safeTransferFrom",
      "outputs": [],
      "stateMutability": "nonpayable",
      "type": "function"
    },
    {
      "inputs": [
        {
          "internalType": "address",
          "name": "operator",
          "type": "address"
        },
        {
          "internalType": "bool",
          "name": "approved",
          "type": "bool"
        }
      ],
      "name": "setApprovalForAll",
      "outputs": [],
      "stateMutability": "nonpayable",
      "type": "function"
    },
    {
      "inputs": [
        {
          "internalType": "bytes4",
          "name": "interfaceId",
          "type": "bytes4"
        }
      ],
      "name": "supportsInterface",
      "outputs": [
        {
          "internalType": "bool",
          "name": "",
          "type": "bool"
        }
      ],
      "stateMutability": "view",
      "type": "function"
    },
    {
      "inputs": [],
      "name": "symbol",
      "outputs": [
        {
          "internalType": "string",
          "name": "",
          "type": "string"
        }
      ],
      "stateMutability": "view",
      "type": "function"
    },
    {
      "inputs": [
        {
          "internalType": "uint256",
          "name": "tokenId",
          "type": "uint256"
        }
      ],
      "name": "tokenURI",
      "outputs": [
        {
          "internalType": "string",
          "name": "",
          "type": "string"
        }
      ],
      "stateMutability": "view",
      "type": "function"
    },
    {
      "inputs": [
        {
          "internalType": "address",
          "name": "from",
          "type": "address"
        },
        {
          "internalType": "address",
          "name": "to",
          "type": "address"
        },
        {
          "internalType": "uint256",
          "name": "tokenId",
          "type": "uint256"
        }
      ],
      "name": "transferFrom",
      "outputs": [],
      "stateMutability": "nonpayable",
      "type": "function"
    },
    {
      "stateMutability": "payable",
      "type": "receive"
    }
  ],
  "bytecode": "0x60806040523480156200001157600080fd5b506040518060400160405280600a81526020017f426f756e7479204e4654000000000000000000000000000000000000000000008152506040518060400160405280600681526020017f4e46542d4254000000000000000000000000000000000000000000000000000081525081600090805190602001906200009692919062000111565b508060019080519060200190620000af92919062000111565b50505033600760006101000a81548173ffffffffffffffffffffffffffffffffffffffff021916908373ffffffffffffffffffffffffffffffffffffffff1602179055506000600a819055506000600b819055506000600c8190555062000226565b8280546200011f90620001c1565b90600052602060002090601f0160209004810192826200014357600085556200018f565b82601f106200015e57805160ff19168380011785556200018f565b828001600101855582156200018f579182015b828111156200018e57825182559160200191906001019062000171565b5b5090506200019e9190620001a2565b5090565b5b80821115620001bd576000816000905550600101620001a3565b5090565b60006002820490506001821680620001da57607f821691505b60208210811415620001f157620001f0620001f7565b5b50919050565b7f4e487b7100000000000000000000000000000000000000000000000000000000600052602260045260246000fd5b6152ea80620002366000396000f3fe6080604052600436106101bb5760003560e01c80638e90d0f7116100ec578063d2cbf17f1161008a578063e985e9c511610064578063e985e9c51461062a578063e98c967314610667578063f36d655714610690578063f851a440146106bb576101c2565b8063d2cbf17f14610591578063e2541202146105d4578063e83b33ec146105ff576101c2565b8063a22cb465116100c6578063a22cb465146104d7578063b88d4fde14610500578063befa098d14610529578063c87b56dd14610554576101c2565b80638e90d0f71461045857806395d89b411461048157806398cf147a146104ac576101c2565b80632b6f04951161015957806370a082311161013357806370a08231146103ba57806374448ba4146103f757806375e77f1d1461042057806381c1c1391461043c576101c2565b80632b6f04951461032b57806342842e0e146103545780636352211e1461037d576101c2565b8063081812fc11610195578063081812fc14610271578063095ea7b3146102ae578063127810bc146102d757806323b872dd14610302576101c2565b806301ffc9a7146101c457806304e15de51461020157806306fdde0314610246576101c2565b366101c257005b005b3480156101d057600080fd5b506101eb60048036038101906101e69190613aee565b6106e6565b6040516101f891906142ea565b60405180910390f35b34801561020d57600080fd5b5061022860048036038101906102239190613c98565b6107c8565b60405161023d99989796959493929190614686565b60405180910390f35b34801561025257600080fd5b5061025b610a0b565b6040516102689190614305565b60405180910390f35b34801561027d57600080fd5b5061029860048036038101906102939190613c98565b610a9d565b6040516102a59190614283565b60405180910390f35b3480156102ba57600080fd5b506102d560048036038101906102d09190613ab2565b610ae3565b005b3480156102e357600080fd5b506102ec610bfb565b6040516102f99190614627565b60405180910390f35b34801561030e57600080fd5b50610329600480360381019061032491906139ac565b610d91565b005b34801561033757600080fd5b50610352600480360381019061034d9190613b40565b610df1565b005b34801561036057600080fd5b5061037b600480360381019061037691906139ac565b610fb9565b005b34801561038957600080fd5b506103a4600480360381019061039f9190613c98565b610fd9565b6040516103b19190614283565b60405180910390f35b3480156103c657600080fd5b506103e160048036038101906103dc919061390b565b61108b565b6040516103ee919061466b565b60405180910390f35b34801561040357600080fd5b5061041e60048036038101906104199190613b81565b611143565b005b61043a60048036038101906104359190613bed565b61132f565b005b61045660048036038101906104519190613934565b61165c565b005b34801561046457600080fd5b5061047f600480360381019061047a9190613c98565b6117e5565b005b34801561048d57600080fd5b50610496611e60565b6040516104a39190614305565b60405180910390f35b3480156104b857600080fd5b506104c1611ef2565b6040516104ce919061466b565b60405180910390f35b3480156104e357600080fd5b506104fe60048036038101906104f99190613a76565b611ef8565b005b34801561050c57600080fd5b50610527600480360381019061052291906139fb565b611f0e565b005b34801561053557600080fd5b5061053e611f70565b60405161054b91906142ea565b60405180910390f35b34801561056057600080fd5b5061057b60048036038101906105769190613c98565b611fdf565b6040516105889190614305565b60405180910390f35b34801561059d57600080fd5b506105b860048036038101906105b39190613c98565b6120f2565b6040516105cb9796959493929190614728565b60405180910390f35b3480156105e057600080fd5b506105e9612226565b6040516105f6919061466b565b60405180910390f35b34801561060b57600080fd5b5061061461222c565b60405161062191906142ea565b60405180910390f35b34801561063657600080fd5b50610651600480360381019061064c9190613970565b61229b565b60405161065e91906142ea565b60405180910390f35b34801561067357600080fd5b5061068e60048036038101906106899190613cc1565b61232f565b005b34801561069c57600080fd5b506106a561281f565b6040516106b29190614649565b60405180910390f35b3480156106c757600080fd5b506106d0612923565b6040516106dd9190614283565b60405180910390f35b60007f80ac58cd000000000000000000000000000000000000000000000000000000007bffffffffffffffffffffffffffffffffffffffffffffffffffffffff1916827bffffffffffffffffffffffffffffffffffffffffffffffffffffffff191614806107b157507f5b5e139f000000000000000000000000000000000000000000000000000000007bffffffffffffffffffffffffffffffffffffffffffffffffffffffff1916827bffffffffffffffffffffffffffffffffffffffffffffffffffffffff1916145b806107c157506107c082612949565b5b9050919050565b600881815481106107d857600080fd5b90600052602060002090600902016000915090508060000154908060010160009054906101000a900473ffffffffffffffffffffffffffffffffffffffff16908060020160009054906101000a900473ffffffffffffffffffffffffffffffffffffffff169080600301549080600401805461085390614a51565b80601f016020809104026020016040519081016040528092919081815260200182805461087f90614a51565b80156108cc5780601f106108a1576101008083540402835291602001916108cc565b820191906000526020600020905b8154815290600101906020018083116108af57829003601f168201915b5050505050908060050180546108e190614a51565b80601f016020809104026020016040519081016040528092919081815260200182805461090d90614a51565b801561095a5780601f1061092f5761010080835404028352916020019161095a565b820191906000526020600020905b81548152906001019060200180831161093d57829003601f168201915b50505050509080600601805461096f90614a51565b80601f016020809104026020016040519081016040528092919081815260200182805461099b90614a51565b80156109e85780601f106109bd576101008083540402835291602001916109e8565b820191906000526020600020905b8154815290600101906020018083116109cb57829003601f168201915b5050505050908060070154908060080160009054906101000a900460ff16905089565b606060008054610a1a90614a51565b80601f0160208091040260200160405190810160405280929190818152602001828054610a4690614a51565b8015610a935780601f10610a6857610100808354040283529160200191610a93565b820191906000526020600020905b815481529060010190602001808311610a7657829003601f168201915b5050505050905090565b6000610aa8826129b3565b6004600083815260200190815260200160002060009054906101000a900473ffffffffffffffffffffffffffffffffffffffff169050919050565b6000610aee82610fd9565b90508073ffffffffffffffffffffffffffffffffffffffff168373ffffffffffffffffffffffffffffffffffffffff161415610b5f576040517f08c379a0000000000000000000000000000000000000000000000000000000008152600401610b5690614567565b60405180910390fd5b8073ffffffffffffffffffffffffffffffffffffffff16610b7e6129fe565b73ffffffffffffffffffffffffffffffffffffffff161480610bad5750610bac81610ba76129fe565b61229b565b5b610bec576040517f08c379a0000000000000000000000000000000000000000000000000000000008152600401610be390614487565b60405180910390fd5b610bf68383612a06565b505050565b610c036136db565b600e60003373ffffffffffffffffffffffffffffffffffffffff1673ffffffffffffffffffffffffffffffffffffffff168152602001908152602001600020604051806060016040529081600082018054610c5d90614a51565b80601f0160208091040260200160405190810160405280929190818152602001828054610c8990614a51565b8015610cd65780601f10610cab57610100808354040283529160200191610cd6565b820191906000526020600020905b815481529060010190602001808311610cb957829003601f168201915b50505050508152602001600182018054610cef90614a51565b80601f0160208091040260200160405190810160405280929190818152602001828054610d1b90614a51565b8015610d685780601f10610d3d57610100808354040283529160200191610d68565b820191906000526020600020905b815481529060010190602001808311610d4b57829003601f168201915b505050505081526020016002820160009054906101000a900460ff161515151581525050905090565b610da2610d9c6129fe565b82612abf565b610de1576040517f08c379a0000000000000000000000000000000000000000000000000000000008152600401610dd8906145a7565b60405180910390fd5b610dec838383612b54565b505050565b60011515600d60003373ffffffffffffffffffffffffffffffffffffffff1673ffffffffffffffffffffffffffffffffffffffff16815260200190815260200160002060010160009054906101000a900460ff1615151415610e88576040517f08c379a0000000000000000000000000000000000000000000000000000000008152600401610e7f90614407565b60405180910390fd5b60011515600e60003373ffffffffffffffffffffffffffffffffffffffff1673ffffffffffffffffffffffffffffffffffffffff16815260200190815260200160002060020160009054906101000a900460ff1615151415610f1f576040517f08c379a0000000000000000000000000000000000000000000000000000000008152600401610f16906145e7565b60405180910390fd5b604051806040016040528082815260200160011515815250600d60003373ffffffffffffffffffffffffffffffffffffffff1673ffffffffffffffffffffffffffffffffffffffff1681526020019081526020016000206000820151816000019080519060200190610f929291906136fe565b5060208201518160010160006101000a81548160ff02191690831515021790555090505050565b610fd483838360405180602001604052806000815250611f0e565b505050565b6000806002600084815260200190815260200160002060009054906101000a900473ffffffffffffffffffffffffffffffffffffffff169050600073ffffffffffffffffffffffffffffffffffffffff168173ffffffffffffffffffffffffffffffffffffffff161415611082576040517f08c379a000000000000000000000000000000000000000000000000000000000815260040161107990614527565b60405180910390fd5b80915050919050565b60008073ffffffffffffffffffffffffffffffffffffffff168273ffffffffffffffffffffffffffffffffffffffff1614156110fc576040517f08c379a00000000000000000000000000000000000000000000000000000000081526004016110f390614427565b60405180910390fd5b600360008373ffffffffffffffffffffffffffffffffffffffff1673ffffffffffffffffffffffffffffffffffffffff168152602001908152602001600020549050919050565b60011515600e60003373ffffffffffffffffffffffffffffffffffffffff1673ffffffffffffffffffffffffffffffffffffffff16815260200190815260200160002060020160009054906101000a900460ff16151514156111da576040517f08c379a00000000000000000000000000000000000000000000000000000000081526004016111d190614387565b60405180910390fd5b60011515600d60003373ffffffffffffffffffffffffffffffffffffffff1673ffffffffffffffffffffffffffffffffffffffff16815260200190815260200160002060010160009054906101000a900460ff1615151415611271576040517f08c379a000000000000000000000000000000000000000000000000000000000815260040161126890614547565b60405180910390fd5b604051806060016040528083815260200182815260200160011515815250600e60003373ffffffffffffffffffffffffffffffffffffffff1673ffffffffffffffffffffffffffffffffffffffff16815260200190815260200160002060008201518160000190805190602001906112ea9291906136fe565b5060208201518160010190805190602001906113079291906136fe565b5060408201518160020160006101000a81548160ff0219169083151502179055509050505050565b60011515600e60003373ffffffffffffffffffffffffffffffffffffffff1673ffffffffffffffffffffffffffffffffffffffff16815260200190815260200160002060020160009054906101000a900460ff161515146113c5576040517f08c379a00000000000000000000000000000000000000000000000000000000081526004016113bc906144a7565b60405180910390fd5b80341015611408576040517f08c379a00000000000000000000000000000000000000000000000000000000081526004016113ff90614587565b60405180910390fd5b6000604051806101200160405280600a5481526020013373ffffffffffffffffffffffffffffffffffffffff168152602001600073ffffffffffffffffffffffffffffffffffffffff16815260200160008152602001868152602001858152602001848152602001838152602001600060028111156114b0577f4e487b7100000000000000000000000000000000000000000000000000000000600052602160045260246000fd5b815250905060088190806001815401808255809150506001900390600052602060002090600902016000909190919091506000820151816000015560208201518160010160006101000a81548173ffffffffffffffffffffffffffffffffffffffff021916908373ffffffffffffffffffffffffffffffffffffffff16021790555060408201518160020160006101000a81548173ffffffffffffffffffffffffffffffffffffffff021916908373ffffffffffffffffffffffffffffffffffffffff16021790555060608201518160030155608082015181600401908051906020019061159f9291906136fe565b5060a08201518160050190805190602001906115bc9291906136fe565b5060c08201518160060190805190602001906115d99291906136fe565b5060e082015181600701556101008201518160080160006101000a81548160ff02191690836002811115611636577f4e487b7100000000000000000000000000000000000000000000000000000000600052602160045260246000fd5b02179055505050600a600081548092919061165090614ab4565b91905055505050505050565b60088181548110611696577f4e487b7100000000000000000000000000000000000000000000000000000000600052603260045260246000fd5b90600052602060002090600902016007015447116116e9576040517f08c379a00000000000000000000000000000000000000000000000000000000081526004016116e0906143a7565b60405180910390fd5b60008273ffffffffffffffffffffffffffffffffffffffff166008838154811061173c577f4e487b7100000000000000000000000000000000000000000000000000000000600052603260045260246000fd5b90600052602060002090600902016007015460405161175a9061426e565b60006040518083038185875af1925050503d8060008114611797576040519150601f19603f3d011682016040523d82523d6000602084013e61179c565b606091505b50509050806117e0576040517f08c379a00000000000000000000000000000000000000000000000000000000081526004016117d7906144e7565b60405180910390fd5b505050565b60011515600e60003373ffffffffffffffffffffffffffffffffffffffff1673ffffffffffffffffffffffffffffffffffffffff16815260200190815260200160002060020160009054906101000a900460ff1615151461187b576040517f08c379a0000000000000000000000000000000000000000000000000000000008152600401611872906144a7565b60405180910390fd5b6000600982815481106118b7577f4e487b7100000000000000000000000000000000000000000000000000000000600052603260045260246000fd5b906000526020600020906006020160020160019054906101000a900473ffffffffffffffffffffffffffffffffffffffff1690503373ffffffffffffffffffffffffffffffffffffffff168173ffffffffffffffffffffffffffffffffffffffff1614611959576040517f08c379a000000000000000000000000000000000000000000000000000000000815260040161195090614507565b60405180910390fd5b600060098381548110611995577f4e487b7100000000000000000000000000000000000000000000000000000000600052603260045260246000fd5b906000526020600020906006020160030160009054906101000a900473ffffffffffffffffffffffffffffffffffffffff169050600060098481548110611a05577f4e487b7100000000000000000000000000000000000000000000000000000000600052603260045260246000fd5b906000526020600020906006020160010154905060006002811115611a53577f4e487b7100000000000000000000000000000000000000000000000000000000600052602160045260246000fd5b60088281548110611a8d577f4e487b7100000000000000000000000000000000000000000000000000000000600052603260045260246000fd5b906000526020600020906009020160080160009054906101000a900460ff166002811115611ae4577f4e487b7100000000000000000000000000000000000000000000000000000000600052602160045260246000fd5b14611b24576040517f08c379a0000000000000000000000000000000000000000000000000000000008152600401611b1b90614607565b60405180910390fd5b600160088281548110611b60577f4e487b7100000000000000000000000000000000000000000000000000000000600052603260045260246000fd5b906000526020600020906009020160080160006101000a81548160ff02191690836002811115611bb9577f4e487b7100000000000000000000000000000000000000000000000000000000600052602160045260246000fd5b02179055508160088281548110611bf9577f4e487b7100000000000000000000000000000000000000000000000000000000600052603260045260246000fd5b906000526020600020906009020160020160006101000a81548173ffffffffffffffffffffffffffffffffffffffff021916908373ffffffffffffffffffffffffffffffffffffffff160217905550600160098581548110611c84577f4e487b7100000000000000000000000000000000000000000000000000000000600052603260045260246000fd5b906000526020600020906006020160050160006101000a81548160ff02191690836002811115611cdd577f4e487b7100000000000000000000000000000000000000000000000000000000600052602160045260246000fd5b0217905550600160098581548110611d1e577f4e487b7100000000000000000000000000000000000000000000000000000000600052603260045260246000fd5b906000526020600020906006020160020160006101000a81548160ff02191690836002811115611d77577f4e487b7100000000000000000000000000000000000000000000000000000000600052602160045260246000fd5b0217905550611d86828261165c565b611e5a82600e60008673ffffffffffffffffffffffffffffffffffffffff1673ffffffffffffffffffffffffffffffffffffffff1681526020019081526020016000206001018054611dd790614a51565b80601f0160208091040260200160405190810160405280929190818152602001828054611e0390614a51565b8015611e505780601f10611e2557610100808354040283529160200191611e50565b820191906000526020600020905b815481529060010190602001808311611e3357829003601f168201915b5050505050612dbb565b50505050565b606060018054611e6f90614a51565b80601f0160208091040260200160405190810160405280929190818152602001828054611e9b90614a51565b8015611ee85780601f10611ebd57610100808354040283529160200191611ee8565b820191906000526020600020905b815481529060010190602001808311611ecb57829003601f168201915b5050505050905090565b600a5481565b611f0a611f036129fe565b8383612def565b5050565b611f1f611f196129fe565b83612abf565b611f5e576040517f08c379a0000000000000000000000000000000000000000000000000000000008152600401611f55906145a7565b60405180910390fd5b611f6a84848484612f5c565b50505050565b600060011515600e60003373ffffffffffffffffffffffffffffffffffffffff1673ffffffffffffffffffffffffffffffffffffffff16815260200190815260200160002060020160009054906101000a900460ff1615151415611fd75760019050611fdc565b600090505b90565b6060611fea826129b3565b600060066000848152602001908152602001600020805461200a90614a51565b80601f016020809104026020016040519081016040528092919081815260200182805461203690614a51565b80156120835780601f1061205857610100808354040283529160200191612083565b820191906000526020600020905b81548152906001019060200180831161206657829003601f168201915b505050505090506000612094612fb8565b90506000815114156120aa5781925050506120ed565b6000825111156120df5780826040516020016120c792919061424a565b604051602081830303815290604052925050506120ed565b6120e884612fcf565b925050505b919050565b6009818154811061210257600080fd5b90600052602060002090600602016000915090508060000154908060010154908060020160009054906101000a900460ff16908060020160019054906101000a900473ffffffffffffffffffffffffffffffffffffffff16908060030160009054906101000a900473ffffffffffffffffffffffffffffffffffffffff169080600401805461219090614a51565b80601f01602080910402602001604051908101604052809291908181526020018280546121bc90614a51565b80156122095780601f106121de57610100808354040283529160200191612209565b820191906000526020600020905b8154815290600101906020018083116121ec57829003601f168201915b5050505050908060050160009054906101000a900460ff16905087565b600b5481565b600060011515600d60003373ffffffffffffffffffffffffffffffffffffffff1673ffffffffffffffffffffffffffffffffffffffff16815260200190815260200160002060010160009054906101000a900460ff16151514156122935760019050612298565b600090505b90565b6000600560008473ffffffffffffffffffffffffffffffffffffffff1673ffffffffffffffffffffffffffffffffffffffff16815260200190815260200160002060008373ffffffffffffffffffffffffffffffffffffffff1673ffffffffffffffffffffffffffffffffffffffff16815260200190815260200160002060009054906101000a900460ff16905092915050565b60011515600d60003373ffffffffffffffffffffffffffffffffffffffff1673ffffffffffffffffffffffffffffffffffffffff16815260200190815260200160002060010160009054906101000a900460ff161515146123c5576040517f08c379a00000000000000000000000000000000000000000000000000000000081526004016123bc906145c7565b60405180910390fd5b600060028111156123ff577f4e487b7100000000000000000000000000000000000000000000000000000000600052602160045260246000fd5b60088381548110612439577f4e487b7100000000000000000000000000000000000000000000000000000000600052603260045260246000fd5b906000526020600020906009020160080160009054906101000a900460ff166002811115612490577f4e487b7100000000000000000000000000000000000000000000000000000000600052602160045260246000fd5b146124d0576040517f08c379a00000000000000000000000000000000000000000000000000000000081526004016124c790614447565b60405180910390fd5b60006040518060e00160405280600b54815260200184815260200160088581548110612525577f4e487b7100000000000000000000000000000000000000000000000000000000600052603260045260246000fd5b906000526020600020906009020160080160009054906101000a900460ff16600281111561257c577f4e487b7100000000000000000000000000000000000000000000000000000000600052602160045260246000fd5b8152602001600885815481106125bb577f4e487b7100000000000000000000000000000000000000000000000000000000600052603260045260246000fd5b906000526020600020906009020160010160009054906101000a900473ffffffffffffffffffffffffffffffffffffffff1673ffffffffffffffffffffffffffffffffffffffff1681526020013373ffffffffffffffffffffffffffffffffffffffff16815260200183815260200160006002811115612664577f4e487b7100000000000000000000000000000000000000000000000000000000600052602160045260246000fd5b81525090506009819080600181540180825580915050600190039060005260206000209060060201600090919091909150600082015181600001556020820151816001015560408201518160020160006101000a81548160ff021916908360028111156126fa577f4e487b7100000000000000000000000000000000000000000000000000000000600052602160045260246000fd5b021790555060608201518160020160016101000a81548173ffffffffffffffffffffffffffffffffffffffff021916908373ffffffffffffffffffffffffffffffffffffffff16021790555060808201518160030160006101000a81548173ffffffffffffffffffffffffffffffffffffffff021916908373ffffffffffffffffffffffffffffffffffffffff16021790555060a08201518160040190805190602001906127a99291906136fe565b5060c08201518160050160006101000a81548160ff021916908360028111156127fb577f4e487b7100000000000000000000000000000000000000000000000000000000600052602160045260246000fd5b02179055505050600b600081548092919061281590614ab4565b9190505550505050565b612827613784565b600d60003373ffffffffffffffffffffffffffffffffffffffff1673ffffffffffffffffffffffffffffffffffffffff16815260200190815260200160002060405180604001604052908160008201805461288190614a51565b80601f01602080910402602001604051908101604052809291908181526020018280546128ad90614a51565b80156128fa5780601f106128cf576101008083540402835291602001916128fa565b820191906000526020600020905b8154815290600101906020018083116128dd57829003601f168201915b505050505081526020016001820160009054906101000a900460ff161515151581525050905090565b600760009054906101000a900473ffffffffffffffffffffffffffffffffffffffff1681565b60007f01ffc9a7000000000000000000000000000000000000000000000000000000007bffffffffffffffffffffffffffffffffffffffffffffffffffffffff1916827bffffffffffffffffffffffffffffffffffffffffffffffffffffffff1916149050919050565b6129bc81613037565b6129fb576040517f08c379a00000000000000000000000000000000000000000000000000000000081526004016129f290614527565b60405180910390fd5b50565b600033905090565b816004600083815260200190815260200160002060006101000a81548173ffffffffffffffffffffffffffffffffffffffff021916908373ffffffffffffffffffffffffffffffffffffffff160217905550808273ffffffffffffffffffffffffffffffffffffffff16612a7983610fd9565b73ffffffffffffffffffffffffffffffffffffffff167f8c5be1e5ebec7d5bd14f71427d1e84f3dd0314c0f7b2291e5b200ac8c7c3b92560405160405180910390a45050565b600080612acb83610fd9565b90508073ffffffffffffffffffffffffffffffffffffffff168473ffffffffffffffffffffffffffffffffffffffff161480612b0d5750612b0c818561229b565b5b80612b4b57508373ffffffffffffffffffffffffffffffffffffffff16612b3384610a9d565b73ffffffffffffffffffffffffffffffffffffffff16145b91505092915050565b8273ffffffffffffffffffffffffffffffffffffffff16612b7482610fd9565b73ffffffffffffffffffffffffffffffffffffffff1614612bca576040517f08c379a0000000000000000000000000000000000000000000000000000000008152600401612bc190614347565b60405180910390fd5b600073ffffffffffffffffffffffffffffffffffffffff168273ffffffffffffffffffffffffffffffffffffffff161415612c3a576040517f08c379a0000000000000000000000000000000000000000000000000000000008152600401612c31906143c7565b60405180910390fd5b612c458383836130a3565b612c50600082612a06565b6001600360008573ffffffffffffffffffffffffffffffffffffffff1673ffffffffffffffffffffffffffffffffffffffff1681526020019081526020016000206000828254612ca0919061490b565b925050819055506001600360008473ffffffffffffffffffffffffffffffffffffffff1673ffffffffffffffffffffffffffffffffffffffff1681526020019081526020016000206000828254612cf79190614884565b92505081905550816002600083815260200190815260200160002060006101000a81548173ffffffffffffffffffffffffffffffffffffffff021916908373ffffffffffffffffffffffffffffffffffffffff160217905550808273ffffffffffffffffffffffffffffffffffffffff168473ffffffffffffffffffffffffffffffffffffffff167fddf252ad1be2c89b69c2b068fc378daa952ba7f163c4a11628f55a4df523b3ef60405160405180910390a4612db68383836130a8565b505050565b612dc782600c546130ad565b612dd3600c54826130cb565b600c6000815480929190612de690614ab4565b91905055505050565b8173ffffffffffffffffffffffffffffffffffffffff168373ffffffffffffffffffffffffffffffffffffffff161415612e5e576040517f08c379a0000000000000000000000000000000000000000000000000000000008152600401612e55906143e7565b60405180910390fd5b80600560008573ffffffffffffffffffffffffffffffffffffffff1673ffffffffffffffffffffffffffffffffffffffff16815260200190815260200160002060008473ffffffffffffffffffffffffffffffffffffffff1673ffffffffffffffffffffffffffffffffffffffff16815260200190815260200160002060006101000a81548160ff0219169083151502179055508173ffffffffffffffffffffffffffffffffffffffff168373ffffffffffffffffffffffffffffffffffffffff167f17307eab39ab6107e8899845ad3d59bd9653f200f220920489ca2b5937696c3183604051612f4f91906142ea565b60405180910390a3505050565b612f67848484612b54565b612f738484848461313f565b612fb2576040517f08c379a0000000000000000000000000000000000000000000000000000000008152600401612fa990614327565b60405180910390fd5b50505050565b606060405180602001604052806000815250905090565b6060612fda826129b3565b6000612fe4612fb8565b90506000815111613004576040518060200160405280600081525061302f565b8061300e846132d6565b60405160200161301f92919061424a565b6040516020818303038152906040525b915050919050565b60008073ffffffffffffffffffffffffffffffffffffffff166002600084815260200190815260200160002060009054906101000a900473ffffffffffffffffffffffffffffffffffffffff1673ffffffffffffffffffffffffffffffffffffffff1614159050919050565b505050565b505050565b6130c7828260405180602001604052806000815250613483565b5050565b6130d482613037565b613113576040517f08c379a000000000000000000000000000000000000000000000000000000000815260040161310a90614467565b60405180910390fd5b8060066000848152602001908152602001600020908051906020019061313a9291906136fe565b505050565b60006131608473ffffffffffffffffffffffffffffffffffffffff166134de565b156132c9578373ffffffffffffffffffffffffffffffffffffffff1663150b7a026131896129fe565b8786866040518563ffffffff1660e01b81526004016131ab949392919061429e565b602060405180830381600087803b1580156131c557600080fd5b505af19250505080156131f657506040513d601f19601f820116820180604052508101906131f39190613b17565b60015b613279573d8060008114613226576040519150601f19603f3d011682016040523d82523d6000602084013e61322b565b606091505b50600081511415613271576040517f08c379a000000000000000000000000000000000000000000000000000000000815260040161326890614327565b60405180910390fd5b805181602001fd5b63150b7a0260e01b7bffffffffffffffffffffffffffffffffffffffffffffffffffffffff1916817bffffffffffffffffffffffffffffffffffffffffffffffffffffffff1916149150506132ce565b600190505b949350505050565b6060600082141561331e576040518060400160405280600181526020017f3000000000000000000000000000000000000000000000000000000000000000815250905061347e565b600082905060005b6000821461335057808061333990614ab4565b915050600a8261334991906148da565b9150613326565b60008167ffffffffffffffff811115613392577f4e487b7100000000000000000000000000000000000000000000000000000000600052604160045260246000fd5b6040519080825280601f01601f1916602001820160405280156133c45781602001600182028036833780820191505090505b5090505b60008514613477576001826133dd919061490b565b9150600a856133ec9190614afd565b60306133f89190614884565b60f81b818381518110613434577f4e487b7100000000000000000000000000000000000000000000000000000000600052603260045260246000fd5b60200101907effffffffffffffffffffffffffffffffffffffffffffffffffffffffffffff1916908160001a905350600a8561347091906148da565b94506133c8565b8093505050505b919050565b61348d8383613501565b61349a600084848461313f565b6134d9576040517f08c379a00000000000000000000000000000000000000000000000000000000081526004016134d090614327565b60405180910390fd5b505050565b6000808273ffffffffffffffffffffffffffffffffffffffff163b119050919050565b600073ffffffffffffffffffffffffffffffffffffffff168273ffffffffffffffffffffffffffffffffffffffff161415613571576040517f08c379a0000000000000000000000000000000000000000000000000000000008152600401613568906144c7565b60405180910390fd5b61357a81613037565b156135ba576040517f08c379a00000000000000000000000000000000000000000000000000000000081526004016135b190614367565b60405180910390fd5b6135c6600083836130a3565b6001600360008473ffffffffffffffffffffffffffffffffffffffff1673ffffffffffffffffffffffffffffffffffffffff16815260200190815260200160002060008282546136169190614884565b92505081905550816002600083815260200190815260200160002060006101000a81548173ffffffffffffffffffffffffffffffffffffffff021916908373ffffffffffffffffffffffffffffffffffffffff160217905550808273ffffffffffffffffffffffffffffffffffffffff16600073ffffffffffffffffffffffffffffffffffffffff167fddf252ad1be2c89b69c2b068fc378daa952ba7f163c4a11628f55a4df523b3ef60405160405180910390a46136d7600083836130a8565b5050565b604051806060016040528060608152602001606081526020016000151581525090565b82805461370a90614a51565b90600052602060002090601f01602090048101928261372c5760008555613773565b82601f1061374557805160ff1916838001178555613773565b82800160010185558215613773579182015b82811115613772578251825591602001919060010190613757565b5b50905061378091906137a0565b5090565b6040518060400160405280606081526020016000151581525090565b5b808211156137b95760008160009055506001016137a1565b5090565b60006137d06137cb846147c3565b61479e565b9050828152602081018484840111156137e857600080fd5b6137f3848285614a0f565b509392505050565b600061380e613809846147f4565b61479e565b90508281526020810184848401111561382657600080fd5b613831848285614a0f565b509392505050565b60008135905061384881615241565b92915050565b60008135905061385d81615258565b92915050565b6000813590506138728161526f565b92915050565b60008135905061388781615286565b92915050565b60008151905061389c81615286565b92915050565b600082601f8301126138b357600080fd5b81356138c38482602086016137bd565b91505092915050565b600082601f8301126138dd57600080fd5b81356138ed8482602086016137fb565b91505092915050565b6000813590506139058161529d565b92915050565b60006020828403121561391d57600080fd5b600061392b84828501613839565b91505092915050565b6000806040838503121561394757600080fd5b60006139558582860161384e565b9250506020613966858286016138f6565b9150509250929050565b6000806040838503121561398357600080fd5b600061399185828601613839565b92505060206139a285828601613839565b9150509250929050565b6000806000606084860312156139c157600080fd5b60006139cf86828701613839565b93505060206139e086828701613839565b92505060406139f1868287016138f6565b9150509250925092565b60008060008060808587031215613a1157600080fd5b6000613a1f87828801613839565b9450506020613a3087828801613839565b9350506040613a41878288016138f6565b925050606085013567ffffffffffffffff811115613a5e57600080fd5b613a6a878288016138a2565b91505092959194509250565b60008060408385031215613a8957600080fd5b6000613a9785828601613839565b9250506020613aa885828601613863565b9150509250929050565b60008060408385031215613ac557600080fd5b6000613ad385828601613839565b9250506020613ae4858286016138f6565b9150509250929050565b600060208284031215613b0057600080fd5b6000613b0e84828501613878565b91505092915050565b600060208284031215613b2957600080fd5b6000613b378482850161388d565b91505092915050565b600060208284031215613b5257600080fd5b600082013567ffffffffffffffff811115613b6c57600080fd5b613b78848285016138cc565b91505092915050565b60008060408385031215613b9457600080fd5b600083013567ffffffffffffffff811115613bae57600080fd5b613bba858286016138cc565b925050602083013567ffffffffffffffff811115613bd757600080fd5b613be3858286016138cc565b9150509250929050565b60008060008060808587031215613c0357600080fd5b600085013567ffffffffffffffff811115613c1d57600080fd5b613c29878288016138cc565b945050602085013567ffffffffffffffff811115613c4657600080fd5b613c52878288016138cc565b935050604085013567ffffffffffffffff811115613c6f57600080fd5b613c7b878288016138cc565b9250506060613c8c878288016138f6565b91505092959194509250565b600060208284031215613caa57600080fd5b6000613cb8848285016138f6565b91505092915050565b60008060408385031215613cd457600080fd5b6000613ce2858286016138f6565b925050602083013567ffffffffffffffff811115613cff57600080fd5b613d0b858286016138cc565b9150509250929050565b613d1e8161493f565b82525050565b613d2d81614963565b82525050565b613d3c81614963565b82525050565b6000613d4d82614825565b613d57818561483b565b9350613d67818560208601614a1e565b613d7081614c19565b840191505092915050565b613d84816149eb565b82525050565b613d93816149fd565b82525050565b6000613da482614830565b613dae8185614857565b9350613dbe818560208601614a1e565b613dc781614c19565b840191505092915050565b6000613ddd82614830565b613de78185614868565b9350613df7818560208601614a1e565b613e0081614c19565b840191505092915050565b6000613e1682614830565b613e208185614879565b9350613e30818560208601614a1e565b80840191505092915050565b6000613e49603283614868565b9150613e5482614c2a565b604082019050919050565b6000613e6c602583614868565b9150613e7782614c79565b604082019050919050565b6000613e8f601c83614868565b9150613e9a82614cc8565b602082019050919050565b6000613eb2602283614868565b9150613ebd82614cf1565b604082019050919050565b6000613ed5601083614868565b9150613ee082614d40565b602082019050919050565b6000613ef8602483614868565b9150613f0382614d69565b604082019050919050565b6000613f1b601983614868565b9150613f2682614db8565b602082019050919050565b6000613f3e602183614868565b9150613f4982614de1565b604082019050919050565b6000613f61602983614868565b9150613f6c82614e30565b604082019050919050565b6000613f84602183614868565b9150613f8f82614e7f565b604082019050919050565b6000613fa7602e83614868565b9150613fb282614ece565b604082019050919050565b6000613fca603e83614868565b9150613fd582614f1d565b604082019050919050565b6000613fed601d83614868565b9150613ff882614f6c565b602082019050919050565b6000614010602083614868565b915061401b82614f95565b602082019050919050565b6000614033601283614868565b915061403e82614fbe565b602082019050919050565b6000614056601883614868565b915061406182614fe7565b602082019050919050565b6000614079601883614868565b915061408482615010565b602082019050919050565b600061409c602683614868565b91506140a782615039565b604082019050919050565b60006140bf602183614868565b91506140ca82615088565b604082019050919050565b60006140e260008361484c565b91506140ed826150d7565b600082019050919050565b6000614105601383614868565b9150614110826150da565b602082019050919050565b6000614128602e83614868565b915061413382615103565b604082019050919050565b600061414b601c83614868565b915061415682615152565b602082019050919050565b600061416e602783614868565b91506141798261517b565b604082019050919050565b6000614191602583614868565b915061419c826151ca565b604082019050919050565b600060608301600083015184820360008601526141c48282613d99565b915050602083015184820360208601526141de8282613d99565b91505060408301516141f36040860182613d24565b508091505092915050565b6000604083016000830151848203600086015261421b8282613d99565b91505060208301516142306020860182613d24565b508091505092915050565b614244816149e1565b82525050565b60006142568285613e0b565b91506142628284613e0b565b91508190509392505050565b6000614279826140d5565b9150819050919050565b60006020820190506142986000830184613d15565b92915050565b60006080820190506142b36000830187613d15565b6142c06020830186613d15565b6142cd604083018561423b565b81810360608301526142df8184613d42565b905095945050505050565b60006020820190506142ff6000830184613d33565b92915050565b6000602082019050818103600083015261431f8184613dd2565b905092915050565b6000602082019050818103600083015261434081613e3c565b9050919050565b6000602082019050818103600083015261436081613e5f565b9050919050565b6000602082019050818103600083015261438081613e82565b9050919050565b600060208201905081810360008301526143a081613ea5565b9050919050565b600060208201905081810360008301526143c081613ec8565b9050919050565b600060208201905081810360008301526143e081613eeb565b9050919050565b6000602082019050818103600083015261440081613f0e565b9050919050565b6000602082019050818103600083015261442081613f31565b9050919050565b6000602082019050818103600083015261444081613f54565b9050919050565b6000602082019050818103600083015261446081613f77565b9050919050565b6000602082019050818103600083015261448081613f9a565b9050919050565b600060208201905081810360008301526144a081613fbd565b9050919050565b600060208201905081810360008301526144c081613fe0565b9050919050565b600060208201905081810360008301526144e081614003565b9050919050565b6000602082019050818103600083015261450081614026565b9050919050565b6000602082019050818103600083015261452081614049565b9050919050565b600060208201905081810360008301526145408161406c565b9050919050565b600060208201905081810360008301526145608161408f565b9050919050565b60006020820190508181036000830152614580816140b2565b9050919050565b600060208201905081810360008301526145a0816140f8565b9050919050565b600060208201905081810360008301526145c08161411b565b9050919050565b600060208201905081810360008301526145e08161413e565b9050919050565b6000602082019050818103600083015261460081614161565b9050919050565b6000602082019050818103600083015261462081614184565b9050919050565b6000602082019050818103600083015261464181846141a7565b905092915050565b6000602082019050818103600083015261466381846141fe565b905092915050565b6000602082019050614680600083018461423b565b92915050565b60006101208201905061469c600083018c61423b565b6146a9602083018b613d15565b6146b6604083018a613d15565b6146c3606083018961423b565b81810360808301526146d58188613dd2565b905081810360a08301526146e98187613dd2565b905081810360c08301526146fd8186613dd2565b905061470c60e083018561423b565b61471a610100830184613d7b565b9a9950505050505050505050565b600060e08201905061473d600083018a61423b565b61474a602083018961423b565b6147576040830188613d7b565b6147646060830187613d15565b6147716080830186613d15565b81810360a08301526147838185613dd2565b905061479260c0830184613d8a565b98975050505050505050565b60006147a86147b9565b90506147b48282614a83565b919050565b6000604051905090565b600067ffffffffffffffff8211156147de576147dd614bea565b5b6147e782614c19565b9050602081019050919050565b600067ffffffffffffffff82111561480f5761480e614bea565b5b61481882614c19565b9050602081019050919050565b600081519050919050565b600081519050919050565b600082825260208201905092915050565b600081905092915050565b600082825260208201905092915050565b600082825260208201905092915050565b600081905092915050565b600061488f826149e1565b915061489a836149e1565b9250827fffffffffffffffffffffffffffffffffffffffffffffffffffffffffffffffff038211156148cf576148ce614b2e565b5b828201905092915050565b60006148e5826149e1565b91506148f0836149e1565b925082614900576148ff614b5d565b5b828204905092915050565b6000614916826149e1565b9150614921836149e1565b92508282101561493457614933614b2e565b5b828203905092915050565b600061494a826149c1565b9050919050565b600061495c826149c1565b9050919050565b60008115159050919050565b60007fffffffff0000000000000000000000000000000000000000000000000000000082169050919050565b60008190506149a982615219565b919050565b60008190506149bc8261522d565b919050565b600073ffffffffffffffffffffffffffffffffffffffff82169050919050565b6000819050919050565b60006149f68261499b565b9050919050565b6000614a08826149ae565b9050919050565b82818337600083830152505050565b60005b83811015614a3c578082015181840152602081019050614a21565b83811115614a4b576000848401525b50505050565b60006002820490506001821680614a6957607f821691505b60208210811415614a7d57614a7c614bbb565b5b50919050565b614a8c82614c19565b810181811067ffffffffffffffff82111715614aab57614aaa614bea565b5b80604052505050565b6000614abf826149e1565b91507fffffffffffffffffffffffffffffffffffffffffffffffffffffffffffffffff821415614af257614af1614b2e565b5b600182019050919050565b6000614b08826149e1565b9150614b13836149e1565b925082614b2357614b22614b5d565b5b828206905092915050565b7f4e487b7100000000000000000000000000000000000000000000000000000000600052601160045260246000fd5b7f4e487b7100000000000000000000000000000000000000000000000000000000600052601260045260246000fd5b7f4e487b7100000000000000000000000000000000000000000000000000000000600052602160045260246000fd5b7f4e487b7100000000000000000000000000000000000000000000000000000000600052602260045260246000fd5b7f4e487b7100000000000000000000000000000000000000000000000000000000600052604160045260246000fd5b6000601f19601f8301169050919050565b7f4552433732313a207472616e7366657220746f206e6f6e20455243373231526560008201527f63656976657220696d706c656d656e7465720000000000000000000000000000602082015250565b7f4552433732313a207472616e736665722066726f6d20696e636f72726563742060008201527f6f776e6572000000000000000000000000000000000000000000000000000000602082015250565b7f4552433732313a20746f6b656e20616c7265616479206d696e74656400000000600082015250565b7f436f6d70616e79206164647265737320616c726561647920726567697374657260008201527f6564000000000000000000000000000000000000000000000000000000000000602082015250565b7f4e6f7420656e6f7567682066756e647300000000000000000000000000000000600082015250565b7f4552433732313a207472616e7366657220746f20746865207a65726f2061646460008201527f7265737300000000000000000000000000000000000000000000000000000000602082015250565b7f4552433732313a20617070726f766520746f2063616c6c657200000000000000600082015250565b7f48756e746572206164647265737320616c72656164792072656769737465726560008201527f6400000000000000000000000000000000000000000000000000000000000000602082015250565b7f4552433732313a2061646472657373207a65726f206973206e6f74206120766160008201527f6c6964206f776e65720000000000000000000000000000000000000000000000602082015250565b7f43616e277420706f7374207468697320736f6c7574696f6e2070726f706f736160008201527f6c00000000000000000000000000000000000000000000000000000000000000602082015250565b7f45524337323155524953746f726167653a2055524920736574206f66206e6f6e60008201527f6578697374656e7420746f6b656e000000000000000000000000000000000000602082015250565b7f4552433732313a20617070726f76652063616c6c6572206973206e6f7420746f60008201527f6b656e206f776e6572206e6f7220617070726f76656420666f7220616c6c0000602082015250565b7f436f6d70616e79206973206e6f74207265676973746572656420796574000000600082015250565b7f4552433732313a206d696e7420746f20746865207a65726f2061646472657373600082015250565b7f6661696c6564207472616e73616374696f6e0000000000000000000000000000600082015250565b7f4e6f7420617574686f72697a656420746f206163636570740000000000000000600082015250565b7f4552433732313a20696e76616c696420746f6b656e2049440000000000000000600082015250565b7f54686973206163636f756e74206973207265676973746572656420617320612060008201527f68756e7465720000000000000000000000000000000000000000000000000000602082015250565b7f4552433732313a20617070726f76616c20746f2063757272656e74206f776e6560008201527f7200000000000000000000000000000000000000000000000000000000000000602082015250565b50565b7f496e73756666696369656e742066756e64732000000000000000000000000000600082015250565b7f4552433732313a2063616c6c6572206973206e6f7420746f6b656e206f776e6560008201527f72206e6f7220617070726f766564000000000000000000000000000000000000602082015250565b7f48756e746572206973206e6f7420726567697374657265642079657400000000600082015250565b7f546869732061646472657373206973207265676973746572656420617320612060008201527f636f6d70616e7900000000000000000000000000000000000000000000000000602082015250565b7f43616e6e6f742061636365707420736f6c7574696f6e20666f7220746869732060008201527f6973737565000000000000000000000000000000000000000000000000000000602082015250565b6003811061522a57615229614b8c565b5b50565b6003811061523e5761523d614b8c565b5b50565b61524a8161493f565b811461525557600080fd5b50565b61526181614951565b811461526c57600080fd5b50565b61527881614963565b811461528357600080fd5b50565b61528f8161496f565b811461529a57600080fd5b50565b6152a6816149e1565b81146152b157600080fd5b5056fea2646970667358221220f3b85a03b1e9d924bed5bdc2f7a6d020d143dc75615135d5b22c9249880a812564736f6c63430008040033",
  "linkReferences": {},
  "deployedLinkReferences": {}
}