{
  "_format": "hh-sol-artifact-1",
  "contractName": "DeBounty",
  "sourceName": "contracts/DeBounty.sol",
  "abi": [
    {
      "inputs": [],
      "stateMutability": "nonpayable",
      "type": "constructor"
    },
    {
      "anonymous": false,
      "inputs": [
        {
          "indexed": true,
          "internalType": "address",
          "name": "owner",
          "type": "address"
        },
        {
          "indexed": true,
          "internalType": "address",
          "name": "approved",
          "type": "address"
        },
        {
          "indexed": true,
          "internalType": "uint256",
          "name": "tokenId",
          "type": "uint256"
        }
      ],
      "name": "Approval",
      "type": "event"
    },
    {
      "anonymous": false,
      "inputs": [
        {
          "indexed": true,
          "internalType": "address",
          "name": "owner",
          "type": "address"
        },
        {
          "indexed": true,
          "internalType": "address",
          "name": "operator",
          "type": "address"
        },
        {
          "indexed": false,
          "internalType": "bool",
          "name": "approved",
          "type": "bool"
        }
      ],
      "name": "ApprovalForAll",
      "type": "event"
    },
    {
      "anonymous": false,
      "inputs": [
        {
          "indexed": true,
          "internalType": "address",
          "name": "from",
          "type": "address"
        },
        {
          "indexed": true,
          "internalType": "address",
          "name": "to",
          "type": "address"
        },
        {
          "indexed": true,
          "internalType": "uint256",
          "name": "tokenId",
          "type": "uint256"
        }
      ],
      "name": "Transfer",
      "type": "event"
    },
    {
      "stateMutability": "payable",
      "type": "fallback"
    },
    {
      "inputs": [
        {
          "internalType": "uint256",
          "name": "_proposedSolnID",
          "type": "uint256"
        }
      ],
      "name": "acceptProposedSolution",
      "outputs": [],
      "stateMutability": "nonpayable",
      "type": "function"
    },
    {
      "inputs": [],
      "name": "admin",
      "outputs": [
        {
          "internalType": "address",
          "name": "",
          "type": "address"
        }
      ],
      "stateMutability": "view",
      "type": "function"
    },
    {
      "inputs": [
        {
          "internalType": "address",
          "name": "to",
          "type": "address"
        },
        {
          "internalType": "uint256",
          "name": "tokenId",
          "type": "uint256"
        }
      ],
      "name": "approve",
      "outputs": [],
      "stateMutability": "nonpayable",
      "type": "function"
    },
    {
      "inputs": [
        {
          "internalType": "address",
          "name": "owner",
          "type": "address"
        }
      ],
      "name": "balanceOf",
      "outputs": [
        {
          "internalType": "uint256",
          "name": "",
          "type": "uint256"
        }
      ],
      "stateMutability": "view",
      "type": "function"
    },
    {
      "inputs": [
        {
          "internalType": "uint256",
          "name": "tokenId",
          "type": "uint256"
        }
      ],
      "name": "getApproved",
      "outputs": [
        {
          "internalType": "address",
          "name": "",
          "type": "address"
        }
      ],
      "stateMutability": "view",
      "type": "function"
    },
    {
      "inputs": [],
      "name": "getCompany",
      "outputs": [
        {
          "components": [
            {
              "internalType": "string",
              "name": "name",
              "type": "string"
            },
            {
              "internalType": "string",
              "name": "nftMetadata",
              "type": "string"
            },
            {
              "internalType": "bool",
              "name": "isRegistered",
              "type": "bool"
            }
          ],
          "internalType": "struct DeBounty.Company",
          "name": "company",
          "type": "tuple"
        }
      ],
      "stateMutability": "view",
      "type": "function"
    },
    {
      "inputs": [],
      "name": "getHunter",
      "outputs": [
        {
          "components": [
            {
              "internalType": "string",
              "name": "name",
              "type": "string"
            },
            {
              "internalType": "bool",
              "name": "isRegistered",
              "type": "bool"
            }
          ],
          "internalType": "struct DeBounty.Hunter",
          "name": "hunter",
          "type": "tuple"
        }
      ],
      "stateMutability": "view",
      "type": "function"
    },
    {
      "inputs": [
        {
          "internalType": "address",
          "name": "owner",
          "type": "address"
        },
        {
          "internalType": "address",
          "name": "operator",
          "type": "address"
        }
      ],
      "name": "isApprovedForAll",
      "outputs": [
        {
          "internalType": "bool",
          "name": "",
          "type": "bool"
        }
      ],
      "stateMutability": "view",
      "type": "function"
    },
    {
      "inputs": [],
      "name": "isCompanyValid",
      "outputs": [
        {
          "internalType": "bool",
          "name": "",
          "type": "bool"
        }
      ],
      "stateMutability": "view",
      "type": "function"
    },
    {
      "inputs": [],
      "name": "isHunterValid",
      "outputs": [
        {
          "internalType": "bool",
          "name": "",
          "type": "bool"
        }
      ],
      "stateMutability": "view",
      "type": "function"
    },
    {
      "inputs": [],
      "name": "issueCount",
      "outputs": [
        {
          "internalType": "uint256",
          "name": "",
          "type": "uint256"
        }
      ],
      "stateMutability": "view",
      "type": "function"
    },
    {
      "inputs": [
        {
          "internalType": "uint256",
          "name": "",
          "type": "uint256"
        }
      ],
      "name": "issues",
      "outputs": [
        {
          "internalType": "uint256",
          "name": "id",
          "type": "uint256"
        },
        {
          "internalType": "address",
          "name": "creator",
          "type": "address"
        },
        {
          "internalType": "address",
          "name": "solver",
          "type": "address"
        },
        {
          "internalType": "uint256",
          "name": "solutionID",
          "type": "uint256"
        },
        {
          "internalType": "string",
          "name": "title",
          "type": "string"
        },
        {
          "internalType": "string",
          "name": "description",
          "type": "string"
        },
        {
          "internalType": "string",
          "name": "issueHash",
          "type": "string"
        },
        {
          "internalType": "uint256",
          "name": "reward",
          "type": "uint256"
        },
        {
          "internalType": "enum DeBounty.ISSUE_STATUS",
          "name": "status",
          "type": "uint8"
        }
      ],
      "stateMutability": "view",
      "type": "function"
    },
    {
      "inputs": [],
      "name": "name",
      "outputs": [
        {
          "internalType": "string",
          "name": "",
          "type": "string"
        }
      ],
      "stateMutability": "view",
      "type": "function"
    },
    {
      "inputs": [
        {
          "internalType": "uint256",
          "name": "tokenId",
          "type": "uint256"
        }
      ],
      "name": "ownerOf",
      "outputs": [
        {
          "internalType": "address",
          "name": "",
          "type": "address"
        }
      ],
      "stateMutability": "view",
      "type": "function"
    },
    {
      "inputs": [
        {
          "internalType": "address payable",
          "name": "_hunterAddress",
          "type": "address"
        },
        {
          "internalType": "uint256",
          "name": "_issueId",
          "type": "uint256"
        }
      ],
      "name": "payHunter",
      "outputs": [],
      "stateMutability": "payable",
      "type": "function"
    },
    {
      "inputs": [
        {
          "internalType": "string",
          "name": "title",
          "type": "string"
        },
        {
          "internalType": "string",
          "name": "description",
          "type": "string"
        },
        {
          "internalType": "string",
          "name": "issueHash",
          "type": "string"
        },
        {
          "internalType": "uint256",
          "name": "reward",
          "type": "uint256"
        }
      ],
      "name": "postIssue",
      "outputs": [],
      "stateMutability": "payable",
      "type": "function"
    },
    {
      "inputs": [
        {
          "internalType": "uint256",
          "name": "_issueID",
          "type": "uint256"
        },
        {
          "internalType": "string",
          "name": "_solutionDescription",
          "type": "string"
        }
      ],
      "name": "postSolutionProposal",
      "outputs": [],
      "stateMutability": "nonpayable",
      "type": "function"
    },
    {
      "inputs": [],
      "name": "proposedSolutionCount",
      "outputs": [
        {
          "internalType": "uint256",
          "name": "",
          "type": "uint256"
        }
      ],
      "stateMutability": "view",
      "type": "function"
    },
    {
      "inputs": [
        {
          "internalType": "uint256",
          "name": "",
          "type": "uint256"
        }
      ],
      "name": "proposedSolutions",
      "outputs": [
        {
          "internalType": "uint256",
          "name": "id",
          "type": "uint256"
        },
        {
          "internalType": "uint256",
          "name": "issueID",
          "type": "uint256"
        },
        {
          "internalType": "enum DeBounty.ISSUE_STATUS",
          "name": "issueStatus",
          "type": "uint8"
        },
        {
          "internalType": "address",
          "name": "issueCreator",
          "type": "address"
        },
        {
          "internalType": "address",
          "name": "proposer",
          "type": "address"
        },
        {
          "internalType": "string",
          "name": "solutionDescription",
          "type": "string"
        },
        {
          "internalType": "enum DeBounty.PROPOSED_SOLUTION_STATUS",
          "name": "status",
          "type": "uint8"
        }
      ],
      "stateMutability": "view",
      "type": "function"
    },
    {
      "inputs": [
        {
          "internalType": "string",
          "name": "_name",
          "type": "string"
        },
        {
          "internalType": "string",
          "name": "_nftMetadata",
          "type": "string"
        }
      ],
      "name": "registerCompany",
      "outputs": [],
      "stateMutability": "nonpayable",
      "type": "function"
    },
    {
      "inputs": [
        {
          "internalType": "string",
          "name": "_name",
          "type": "string"
        }
      ],
      "name": "registerHunter",
      "outputs": [],
      "stateMutability": "nonpayable",
      "type": "function"
    },
    {
      "inputs": [
        {
          "internalType": "address",
          "name": "from",
          "type": "address"
        },
        {
          "internalType": "address",
          "name": "to",
          "type": "address"
        },
        {
          "internalType": "uint256",
          "name": "tokenId",
          "type": "uint256"
        }
      ],
      "name": "safeTransferFrom",
      "outputs": [],
      "stateMutability": "nonpayable",
      "type": "function"
    },
    {
      "inputs": [
        {
          "internalType": "address",
          "name": "from",
          "type": "address"
        },
        {
          "internalType": "address",
          "name": "to",
          "type": "address"
        },
        {
          "internalType": "uint256",
          "name": "tokenId",
          "type": "uint256"
        },
        {
          "internalType": "bytes",
          "name": "data",
          "type": "bytes"
        }
      ],
      "name": "safeTransferFrom",
      "outputs": [],
      "stateMutability": "nonpayable",
      "type": "function"
    },
    {
      "inputs": [
        {
          "internalType": "address",
          "name": "operator",
          "type": "address"
        },
        {
          "internalType": "bool",
          "name": "approved",
          "type": "bool"
        }
      ],
      "name": "setApprovalForAll",
      "outputs": [],
      "stateMutability": "nonpayable",
      "type": "function"
    },
    {
      "inputs": [
        {
          "internalType": "bytes4",
          "name": "interfaceId",
          "type": "bytes4"
        }
      ],
      "name": "supportsInterface",
      "outputs": [
        {
          "internalType": "bool",
          "name": "",
          "type": "bool"
        }
      ],
      "stateMutability": "view",
      "type": "function"
    },
    {
      "inputs": [],
      "name": "symbol",
      "outputs": [
        {
          "internalType": "string",
          "name": "",
          "type": "string"
        }
      ],
      "stateMutability": "view",
      "type": "function"
    },
    {
      "inputs": [
        {
          "internalType": "uint256",
          "name": "tokenId",
          "type": "uint256"
        }
      ],
      "name": "tokenURI",
      "outputs": [
        {
          "internalType": "string",
          "name": "",
          "type": "string"
        }
      ],
      "stateMutability": "view",
      "type": "function"
    },
    {
      "inputs": [
        {
          "internalType": "address",
          "name": "from",
          "type": "address"
        },
        {
          "internalType": "address",
          "name": "to",
          "type": "address"
        },
        {
          "internalType": "uint256",
          "name": "tokenId",
          "type": "uint256"
        }
      ],
      "name": "transferFrom",
      "outputs": [],
      "stateMutability": "nonpayable",
      "type": "function"
    },
    {
      "stateMutability": "payable",
      "type": "receive"
    }
  ],
  "bytecode": "0x60806040523480156200001157600080fd5b506040518060400160405280600a81526020017f426f756e7479204e4654000000000000000000000000000000000000000000008152506040518060400160405280600681526020017f4e46542d4254000000000000000000000000000000000000000000000000000081525081600090805190602001906200009692919062000111565b508060019080519060200190620000af92919062000111565b50505033600760006101000a81548173ffffffffffffffffffffffffffffffffffffffff021916908373ffffffffffffffffffffffffffffffffffffffff1602179055506000600a819055506000600b819055506000600c8190555062000226565b8280546200011f90620001c1565b90600052602060002090601f0160209004810192826200014357600085556200018f565b82601f106200015e57805160ff19168380011785556200018f565b828001600101855582156200018f579182015b828111156200018e57825182559160200191906001019062000171565b5b5090506200019e9190620001a2565b5090565b5b80821115620001bd576000816000905550600101620001a3565b5090565b60006002820490506001821680620001da57607f821691505b60208210811415620001f157620001f0620001f7565b5b50919050565b7f4e487b7100000000000000000000000000000000000000000000000000000000600052602260045260246000fd5b61532a80620002366000396000f3fe6080604052600436106101bb5760003560e01c80638e90d0f7116100ec578063d2cbf17f1161008a578063e985e9c511610064578063e985e9c51461062a578063e98c967314610667578063f36d655714610690578063f851a440146106bb576101c2565b8063d2cbf17f14610591578063e2541202146105d4578063e83b33ec146105ff576101c2565b8063a22cb465116100c6578063a22cb465146104d7578063b88d4fde14610500578063befa098d14610529578063c87b56dd14610554576101c2565b80638e90d0f71461045857806395d89b411461048157806398cf147a146104ac576101c2565b80632b6f04951161015957806370a082311161013357806370a08231146103ba57806374448ba4146103f757806375e77f1d1461042057806381c1c1391461043c576101c2565b80632b6f04951461032b57806342842e0e146103545780636352211e1461037d576101c2565b8063081812fc11610195578063081812fc14610271578063095ea7b3146102ae578063127810bc146102d757806323b872dd14610302576101c2565b806301ffc9a7146101c457806304e15de51461020157806306fdde0314610246576101c2565b366101c257005b005b3480156101d057600080fd5b506101eb60048036038101906101e69190613b2e565b6106e6565b6040516101f8919061432a565b60405180910390f35b34801561020d57600080fd5b5061022860048036038101906102239190613cd8565b6107c8565b60405161023d999897969594939291906146c6565b60405180910390f35b34801561025257600080fd5b5061025b610a0b565b6040516102689190614345565b60405180910390f35b34801561027d57600080fd5b5061029860048036038101906102939190613cd8565b610a9d565b6040516102a591906142c3565b60405180910390f35b3480156102ba57600080fd5b506102d560048036038101906102d09190613af2565b610ae3565b005b3480156102e357600080fd5b506102ec610bfb565b6040516102f99190614667565b60405180910390f35b34801561030e57600080fd5b50610329600480360381019061032491906139ec565b610d91565b005b34801561033757600080fd5b50610352600480360381019061034d9190613b80565b610df1565b005b34801561036057600080fd5b5061037b600480360381019061037691906139ec565b610fb9565b005b34801561038957600080fd5b506103a4600480360381019061039f9190613cd8565b610fd9565b6040516103b191906142c3565b60405180910390f35b3480156103c657600080fd5b506103e160048036038101906103dc919061394b565b61108b565b6040516103ee91906146ab565b60405180910390f35b34801561040357600080fd5b5061041e60048036038101906104199190613bc1565b611143565b005b61043a60048036038101906104359190613c2d565b61132f565b005b61045660048036038101906104519190613974565b61167c565b005b34801561046457600080fd5b5061047f600480360381019061047a9190613cd8565b611805565b005b34801561048d57600080fd5b50610496611e80565b6040516104a39190614345565b60405180910390f35b3480156104b857600080fd5b506104c1611f12565b6040516104ce91906146ab565b60405180910390f35b3480156104e357600080fd5b506104fe60048036038101906104f99190613ab6565b611f18565b005b34801561050c57600080fd5b5061052760048036038101906105229190613a3b565b611f2e565b005b34801561053557600080fd5b5061053e611f90565b60405161054b919061432a565b60405180910390f35b34801561056057600080fd5b5061057b60048036038101906105769190613cd8565b611fff565b6040516105889190614345565b60405180910390f35b34801561059d57600080fd5b506105b860048036038101906105b39190613cd8565b612112565b6040516105cb9796959493929190614768565b60405180910390f35b3480156105e057600080fd5b506105e9612246565b6040516105f691906146ab565b60405180910390f35b34801561060b57600080fd5b5061061461224c565b604051610621919061432a565b60405180910390f35b34801561063657600080fd5b50610651600480360381019061064c91906139b0565b6122bb565b60405161065e919061432a565b60405180910390f35b34801561067357600080fd5b5061068e60048036038101906106899190613d01565b61234f565b005b34801561069c57600080fd5b506106a561285f565b6040516106b29190614689565b60405180910390f35b3480156106c757600080fd5b506106d0612963565b6040516106dd91906142c3565b60405180910390f35b60007f80ac58cd000000000000000000000000000000000000000000000000000000007bffffffffffffffffffffffffffffffffffffffffffffffffffffffff1916827bffffffffffffffffffffffffffffffffffffffffffffffffffffffff191614806107b157507f5b5e139f000000000000000000000000000000000000000000000000000000007bffffffffffffffffffffffffffffffffffffffffffffffffffffffff1916827bffffffffffffffffffffffffffffffffffffffffffffffffffffffff1916145b806107c157506107c082612989565b5b9050919050565b600881815481106107d857600080fd5b90600052602060002090600902016000915090508060000154908060010160009054906101000a900473ffffffffffffffffffffffffffffffffffffffff16908060020160009054906101000a900473ffffffffffffffffffffffffffffffffffffffff169080600301549080600401805461085390614a91565b80601f016020809104026020016040519081016040528092919081815260200182805461087f90614a91565b80156108cc5780601f106108a1576101008083540402835291602001916108cc565b820191906000526020600020905b8154815290600101906020018083116108af57829003601f168201915b5050505050908060050180546108e190614a91565b80601f016020809104026020016040519081016040528092919081815260200182805461090d90614a91565b801561095a5780601f1061092f5761010080835404028352916020019161095a565b820191906000526020600020905b81548152906001019060200180831161093d57829003601f168201915b50505050509080600601805461096f90614a91565b80601f016020809104026020016040519081016040528092919081815260200182805461099b90614a91565b80156109e85780601f106109bd576101008083540402835291602001916109e8565b820191906000526020600020905b8154815290600101906020018083116109cb57829003601f168201915b5050505050908060070154908060080160009054906101000a900460ff16905089565b606060008054610a1a90614a91565b80601f0160208091040260200160405190810160405280929190818152602001828054610a4690614a91565b8015610a935780601f10610a6857610100808354040283529160200191610a93565b820191906000526020600020905b815481529060010190602001808311610a7657829003601f168201915b5050505050905090565b6000610aa8826129f3565b6004600083815260200190815260200160002060009054906101000a900473ffffffffffffffffffffffffffffffffffffffff169050919050565b6000610aee82610fd9565b90508073ffffffffffffffffffffffffffffffffffffffff168373ffffffffffffffffffffffffffffffffffffffff161415610b5f576040517f08c379a0000000000000000000000000000000000000000000000000000000008152600401610b56906145a7565b60405180910390fd5b8073ffffffffffffffffffffffffffffffffffffffff16610b7e612a3e565b73ffffffffffffffffffffffffffffffffffffffff161480610bad5750610bac81610ba7612a3e565b6122bb565b5b610bec576040517f08c379a0000000000000000000000000000000000000000000000000000000008152600401610be3906144c7565b60405180910390fd5b610bf68383612a46565b505050565b610c0361371b565b600e60003373ffffffffffffffffffffffffffffffffffffffff1673ffffffffffffffffffffffffffffffffffffffff168152602001908152602001600020604051806060016040529081600082018054610c5d90614a91565b80601f0160208091040260200160405190810160405280929190818152602001828054610c8990614a91565b8015610cd65780601f10610cab57610100808354040283529160200191610cd6565b820191906000526020600020905b815481529060010190602001808311610cb957829003601f168201915b50505050508152602001600182018054610cef90614a91565b80601f0160208091040260200160405190810160405280929190818152602001828054610d1b90614a91565b8015610d685780601f10610d3d57610100808354040283529160200191610d68565b820191906000526020600020905b815481529060010190602001808311610d4b57829003601f168201915b505050505081526020016002820160009054906101000a900460ff161515151581525050905090565b610da2610d9c612a3e565b82612aff565b610de1576040517f08c379a0000000000000000000000000000000000000000000000000000000008152600401610dd8906145e7565b60405180910390fd5b610dec838383612b94565b505050565b60011515600d60003373ffffffffffffffffffffffffffffffffffffffff1673ffffffffffffffffffffffffffffffffffffffff16815260200190815260200160002060010160009054906101000a900460ff1615151415610e88576040517f08c379a0000000000000000000000000000000000000000000000000000000008152600401610e7f90614447565b60405180910390fd5b60011515600e60003373ffffffffffffffffffffffffffffffffffffffff1673ffffffffffffffffffffffffffffffffffffffff16815260200190815260200160002060020160009054906101000a900460ff1615151415610f1f576040517f08c379a0000000000000000000000000000000000000000000000000000000008152600401610f1690614627565b60405180910390fd5b604051806040016040528082815260200160011515815250600d60003373ffffffffffffffffffffffffffffffffffffffff1673ffffffffffffffffffffffffffffffffffffffff1681526020019081526020016000206000820151816000019080519060200190610f9292919061373e565b5060208201518160010160006101000a81548160ff02191690831515021790555090505050565b610fd483838360405180602001604052806000815250611f2e565b505050565b6000806002600084815260200190815260200160002060009054906101000a900473ffffffffffffffffffffffffffffffffffffffff169050600073ffffffffffffffffffffffffffffffffffffffff168173ffffffffffffffffffffffffffffffffffffffff161415611082576040517f08c379a000000000000000000000000000000000000000000000000000000000815260040161107990614567565b60405180910390fd5b80915050919050565b60008073ffffffffffffffffffffffffffffffffffffffff168273ffffffffffffffffffffffffffffffffffffffff1614156110fc576040517f08c379a00000000000000000000000000000000000000000000000000000000081526004016110f390614467565b60405180910390fd5b600360008373ffffffffffffffffffffffffffffffffffffffff1673ffffffffffffffffffffffffffffffffffffffff168152602001908152602001600020549050919050565b60011515600e60003373ffffffffffffffffffffffffffffffffffffffff1673ffffffffffffffffffffffffffffffffffffffff16815260200190815260200160002060020160009054906101000a900460ff16151514156111da576040517f08c379a00000000000000000000000000000000000000000000000000000000081526004016111d1906143c7565b60405180910390fd5b60011515600d60003373ffffffffffffffffffffffffffffffffffffffff1673ffffffffffffffffffffffffffffffffffffffff16815260200190815260200160002060010160009054906101000a900460ff1615151415611271576040517f08c379a000000000000000000000000000000000000000000000000000000000815260040161126890614587565b60405180910390fd5b604051806060016040528083815260200182815260200160011515815250600e60003373ffffffffffffffffffffffffffffffffffffffff1673ffffffffffffffffffffffffffffffffffffffff16815260200190815260200160002060008201518160000190805190602001906112ea92919061373e565b50602082015181600101908051906020019061130792919061373e565b5060408201518160020160006101000a81548160ff0219169083151502179055509050505050565b60011515600e60003373ffffffffffffffffffffffffffffffffffffffff1673ffffffffffffffffffffffffffffffffffffffff16815260200190815260200160002060020160009054906101000a900460ff161515146113c5576040517f08c379a00000000000000000000000000000000000000000000000000000000081526004016113bc906144e7565b60405180910390fd5b80341015611408576040517f08c379a00000000000000000000000000000000000000000000000000000000081526004016113ff906145c7565b60405180910390fd5b6000604051806101200160405280600a5481526020013373ffffffffffffffffffffffffffffffffffffffff168152602001600073ffffffffffffffffffffffffffffffffffffffff16815260200160008152602001868152602001858152602001848152602001838152602001600060028111156114b0577f4e487b7100000000000000000000000000000000000000000000000000000000600052602160045260246000fd5b8152509050806008600a54815481106114f2577f4e487b7100000000000000000000000000000000000000000000000000000000600052603260045260246000fd5b90600052602060002090600902016000820151816000015560208201518160010160006101000a81548173ffffffffffffffffffffffffffffffffffffffff021916908373ffffffffffffffffffffffffffffffffffffffff16021790555060408201518160020160006101000a81548173ffffffffffffffffffffffffffffffffffffffff021916908373ffffffffffffffffffffffffffffffffffffffff1602179055506060820151816003015560808201518160040190805190602001906115be92919061373e565b5060a08201518160050190805190602001906115db92919061373e565b5060c08201518160060190805190602001906115f892919061373e565b5060e082015181600701556101008201518160080160006101000a81548160ff02191690836002811115611655577f4e487b7100000000000000000000000000000000000000000000000000000000600052602160045260246000fd5b0217905550905050600a600081548092919061167090614af4565b91905055505050505050565b600881815481106116b6577f4e487b7100000000000000000000000000000000000000000000000000000000600052603260045260246000fd5b9060005260206000209060090201600701544711611709576040517f08c379a0000000000000000000000000000000000000000000000000000000008152600401611700906143e7565b60405180910390fd5b60008273ffffffffffffffffffffffffffffffffffffffff166008838154811061175c577f4e487b7100000000000000000000000000000000000000000000000000000000600052603260045260246000fd5b90600052602060002090600902016007015460405161177a906142ae565b60006040518083038185875af1925050503d80600081146117b7576040519150601f19603f3d011682016040523d82523d6000602084013e6117bc565b606091505b5050905080611800576040517f08c379a00000000000000000000000000000000000000000000000000000000081526004016117f790614527565b60405180910390fd5b505050565b60011515600e60003373ffffffffffffffffffffffffffffffffffffffff1673ffffffffffffffffffffffffffffffffffffffff16815260200190815260200160002060020160009054906101000a900460ff1615151461189b576040517f08c379a0000000000000000000000000000000000000000000000000000000008152600401611892906144e7565b60405180910390fd5b6000600982815481106118d7577f4e487b7100000000000000000000000000000000000000000000000000000000600052603260045260246000fd5b906000526020600020906006020160020160019054906101000a900473ffffffffffffffffffffffffffffffffffffffff1690503373ffffffffffffffffffffffffffffffffffffffff168173ffffffffffffffffffffffffffffffffffffffff1614611979576040517f08c379a000000000000000000000000000000000000000000000000000000000815260040161197090614547565b60405180910390fd5b6000600983815481106119b5577f4e487b7100000000000000000000000000000000000000000000000000000000600052603260045260246000fd5b906000526020600020906006020160030160009054906101000a900473ffffffffffffffffffffffffffffffffffffffff169050600060098481548110611a25577f4e487b7100000000000000000000000000000000000000000000000000000000600052603260045260246000fd5b906000526020600020906006020160010154905060006002811115611a73577f4e487b7100000000000000000000000000000000000000000000000000000000600052602160045260246000fd5b60088281548110611aad577f4e487b7100000000000000000000000000000000000000000000000000000000600052603260045260246000fd5b906000526020600020906009020160080160009054906101000a900460ff166002811115611b04577f4e487b7100000000000000000000000000000000000000000000000000000000600052602160045260246000fd5b14611b44576040517f08c379a0000000000000000000000000000000000000000000000000000000008152600401611b3b90614647565b60405180910390fd5b600160088281548110611b80577f4e487b7100000000000000000000000000000000000000000000000000000000600052603260045260246000fd5b906000526020600020906009020160080160006101000a81548160ff02191690836002811115611bd9577f4e487b7100000000000000000000000000000000000000000000000000000000600052602160045260246000fd5b02179055508160088281548110611c19577f4e487b7100000000000000000000000000000000000000000000000000000000600052603260045260246000fd5b906000526020600020906009020160020160006101000a81548173ffffffffffffffffffffffffffffffffffffffff021916908373ffffffffffffffffffffffffffffffffffffffff160217905550600160098581548110611ca4577f4e487b7100000000000000000000000000000000000000000000000000000000600052603260045260246000fd5b906000526020600020906006020160050160006101000a81548160ff02191690836002811115611cfd577f4e487b7100000000000000000000000000000000000000000000000000000000600052602160045260246000fd5b0217905550600160098581548110611d3e577f4e487b7100000000000000000000000000000000000000000000000000000000600052603260045260246000fd5b906000526020600020906006020160020160006101000a81548160ff02191690836002811115611d97577f4e487b7100000000000000000000000000000000000000000000000000000000600052602160045260246000fd5b0217905550611da6828261167c565b611e7a82600e60008673ffffffffffffffffffffffffffffffffffffffff1673ffffffffffffffffffffffffffffffffffffffff1681526020019081526020016000206001018054611df790614a91565b80601f0160208091040260200160405190810160405280929190818152602001828054611e2390614a91565b8015611e705780601f10611e4557610100808354040283529160200191611e70565b820191906000526020600020905b815481529060010190602001808311611e5357829003601f168201915b5050505050612dfb565b50505050565b606060018054611e8f90614a91565b80601f0160208091040260200160405190810160405280929190818152602001828054611ebb90614a91565b8015611f085780601f10611edd57610100808354040283529160200191611f08565b820191906000526020600020905b815481529060010190602001808311611eeb57829003601f168201915b5050505050905090565b600a5481565b611f2a611f23612a3e565b8383612e2f565b5050565b611f3f611f39612a3e565b83612aff565b611f7e576040517f08c379a0000000000000000000000000000000000000000000000000000000008152600401611f75906145e7565b60405180910390fd5b611f8a84848484612f9c565b50505050565b600060011515600e60003373ffffffffffffffffffffffffffffffffffffffff1673ffffffffffffffffffffffffffffffffffffffff16815260200190815260200160002060020160009054906101000a900460ff1615151415611ff75760019050611ffc565b600090505b90565b606061200a826129f3565b600060066000848152602001908152602001600020805461202a90614a91565b80601f016020809104026020016040519081016040528092919081815260200182805461205690614a91565b80156120a35780601f10612078576101008083540402835291602001916120a3565b820191906000526020600020905b81548152906001019060200180831161208657829003601f168201915b5050505050905060006120b4612ff8565b90506000815114156120ca57819250505061210d565b6000825111156120ff5780826040516020016120e792919061428a565b6040516020818303038152906040529250505061210d565b6121088461300f565b925050505b919050565b6009818154811061212257600080fd5b90600052602060002090600602016000915090508060000154908060010154908060020160009054906101000a900460ff16908060020160019054906101000a900473ffffffffffffffffffffffffffffffffffffffff16908060030160009054906101000a900473ffffffffffffffffffffffffffffffffffffffff16908060040180546121b090614a91565b80601f01602080910402602001604051908101604052809291908181526020018280546121dc90614a91565b80156122295780601f106121fe57610100808354040283529160200191612229565b820191906000526020600020905b81548152906001019060200180831161220c57829003601f168201915b5050505050908060050160009054906101000a900460ff16905087565b600b5481565b600060011515600d60003373ffffffffffffffffffffffffffffffffffffffff1673ffffffffffffffffffffffffffffffffffffffff16815260200190815260200160002060010160009054906101000a900460ff16151514156122b357600190506122b8565b600090505b90565b6000600560008473ffffffffffffffffffffffffffffffffffffffff1673ffffffffffffffffffffffffffffffffffffffff16815260200190815260200160002060008373ffffffffffffffffffffffffffffffffffffffff1673ffffffffffffffffffffffffffffffffffffffff16815260200190815260200160002060009054906101000a900460ff16905092915050565b60011515600d60003373ffffffffffffffffffffffffffffffffffffffff1673ffffffffffffffffffffffffffffffffffffffff16815260200190815260200160002060010160009054906101000a900460ff161515146123e5576040517f08c379a00000000000000000000000000000000000000000000000000000000081526004016123dc90614607565b60405180910390fd5b6000600281111561241f577f4e487b7100000000000000000000000000000000000000000000000000000000600052602160045260246000fd5b60088381548110612459577f4e487b7100000000000000000000000000000000000000000000000000000000600052603260045260246000fd5b906000526020600020906009020160080160009054906101000a900460ff1660028111156124b0577f4e487b7100000000000000000000000000000000000000000000000000000000600052602160045260246000fd5b146124f0576040517f08c379a00000000000000000000000000000000000000000000000000000000081526004016124e790614487565b60405180910390fd5b60006040518060e00160405280600b54815260200184815260200160088581548110612545577f4e487b7100000000000000000000000000000000000000000000000000000000600052603260045260246000fd5b906000526020600020906009020160080160009054906101000a900460ff16600281111561259c577f4e487b7100000000000000000000000000000000000000000000000000000000600052602160045260246000fd5b8152602001600885815481106125db577f4e487b7100000000000000000000000000000000000000000000000000000000600052603260045260246000fd5b906000526020600020906009020160010160009054906101000a900473ffffffffffffffffffffffffffffffffffffffff1673ffffffffffffffffffffffffffffffffffffffff1681526020013373ffffffffffffffffffffffffffffffffffffffff16815260200183815260200160006002811115612684577f4e487b7100000000000000000000000000000000000000000000000000000000600052602160045260246000fd5b8152509050806009600b54815481106126c6577f4e487b7100000000000000000000000000000000000000000000000000000000600052603260045260246000fd5b9060005260206000209060060201600082015181600001556020820151816001015560408201518160020160006101000a81548160ff02191690836002811115612739577f4e487b7100000000000000000000000000000000000000000000000000000000600052602160045260246000fd5b021790555060608201518160020160016101000a81548173ffffffffffffffffffffffffffffffffffffffff021916908373ffffffffffffffffffffffffffffffffffffffff16021790555060808201518160030160006101000a81548173ffffffffffffffffffffffffffffffffffffffff021916908373ffffffffffffffffffffffffffffffffffffffff16021790555060a08201518160040190805190602001906127e892919061373e565b5060c08201518160050160006101000a81548160ff0219169083600281111561283a577f4e487b7100000000000000000000000000000000000000000000000000000000600052602160045260246000fd5b0217905550905050600b600081548092919061285590614af4565b9190505550505050565b6128676137c4565b600d60003373ffffffffffffffffffffffffffffffffffffffff1673ffffffffffffffffffffffffffffffffffffffff1681526020019081526020016000206040518060400160405290816000820180546128c190614a91565b80601f01602080910402602001604051908101604052809291908181526020018280546128ed90614a91565b801561293a5780601f1061290f5761010080835404028352916020019161293a565b820191906000526020600020905b81548152906001019060200180831161291d57829003601f168201915b505050505081526020016001820160009054906101000a900460ff161515151581525050905090565b600760009054906101000a900473ffffffffffffffffffffffffffffffffffffffff1681565b60007f01ffc9a7000000000000000000000000000000000000000000000000000000007bffffffffffffffffffffffffffffffffffffffffffffffffffffffff1916827bffffffffffffffffffffffffffffffffffffffffffffffffffffffff1916149050919050565b6129fc81613077565b612a3b576040517f08c379a0000000000000000000000000000000000000000000000000000000008152600401612a3290614567565b60405180910390fd5b50565b600033905090565b816004600083815260200190815260200160002060006101000a81548173ffffffffffffffffffffffffffffffffffffffff021916908373ffffffffffffffffffffffffffffffffffffffff160217905550808273ffffffffffffffffffffffffffffffffffffffff16612ab983610fd9565b73ffffffffffffffffffffffffffffffffffffffff167f8c5be1e5ebec7d5bd14f71427d1e84f3dd0314c0f7b2291e5b200ac8c7c3b92560405160405180910390a45050565b600080612b0b83610fd9565b90508073ffffffffffffffffffffffffffffffffffffffff168473ffffffffffffffffffffffffffffffffffffffff161480612b4d5750612b4c81856122bb565b5b80612b8b57508373ffffffffffffffffffffffffffffffffffffffff16612b7384610a9d565b73ffffffffffffffffffffffffffffffffffffffff16145b91505092915050565b8273ffffffffffffffffffffffffffffffffffffffff16612bb482610fd9565b73ffffffffffffffffffffffffffffffffffffffff1614612c0a576040517f08c379a0000000000000000000000000000000000000000000000000000000008152600401612c0190614387565b60405180910390fd5b600073ffffffffffffffffffffffffffffffffffffffff168273ffffffffffffffffffffffffffffffffffffffff161415612c7a576040517f08c379a0000000000000000000000000000000000000000000000000000000008152600401612c7190614407565b60405180910390fd5b612c858383836130e3565b612c90600082612a46565b6001600360008573ffffffffffffffffffffffffffffffffffffffff1673ffffffffffffffffffffffffffffffffffffffff1681526020019081526020016000206000828254612ce0919061494b565b925050819055506001600360008473ffffffffffffffffffffffffffffffffffffffff1673ffffffffffffffffffffffffffffffffffffffff1681526020019081526020016000206000828254612d3791906148c4565b92505081905550816002600083815260200190815260200160002060006101000a81548173ffffffffffffffffffffffffffffffffffffffff021916908373ffffffffffffffffffffffffffffffffffffffff160217905550808273ffffffffffffffffffffffffffffffffffffffff168473ffffffffffffffffffffffffffffffffffffffff167fddf252ad1be2c89b69c2b068fc378daa952ba7f163c4a11628f55a4df523b3ef60405160405180910390a4612df68383836130e8565b505050565b612e0782600c546130ed565b612e13600c548261310b565b600c6000815480929190612e2690614af4565b91905055505050565b8173ffffffffffffffffffffffffffffffffffffffff168373ffffffffffffffffffffffffffffffffffffffff161415612e9e576040517f08c379a0000000000000000000000000000000000000000000000000000000008152600401612e9590614427565b60405180910390fd5b80600560008573ffffffffffffffffffffffffffffffffffffffff1673ffffffffffffffffffffffffffffffffffffffff16815260200190815260200160002060008473ffffffffffffffffffffffffffffffffffffffff1673ffffffffffffffffffffffffffffffffffffffff16815260200190815260200160002060006101000a81548160ff0219169083151502179055508173ffffffffffffffffffffffffffffffffffffffff168373ffffffffffffffffffffffffffffffffffffffff167f17307eab39ab6107e8899845ad3d59bd9653f200f220920489ca2b5937696c3183604051612f8f919061432a565b60405180910390a3505050565b612fa7848484612b94565b612fb38484848461317f565b612ff2576040517f08c379a0000000000000000000000000000000000000000000000000000000008152600401612fe990614367565b60405180910390fd5b50505050565b606060405180602001604052806000815250905090565b606061301a826129f3565b6000613024612ff8565b90506000815111613044576040518060200160405280600081525061306f565b8061304e84613316565b60405160200161305f92919061428a565b6040516020818303038152906040525b915050919050565b60008073ffffffffffffffffffffffffffffffffffffffff166002600084815260200190815260200160002060009054906101000a900473ffffffffffffffffffffffffffffffffffffffff1673ffffffffffffffffffffffffffffffffffffffff1614159050919050565b505050565b505050565b6131078282604051806020016040528060008152506134c3565b5050565b61311482613077565b613153576040517f08c379a000000000000000000000000000000000000000000000000000000000815260040161314a906144a7565b60405180910390fd5b8060066000848152602001908152602001600020908051906020019061317a92919061373e565b505050565b60006131a08473ffffffffffffffffffffffffffffffffffffffff1661351e565b15613309578373ffffffffffffffffffffffffffffffffffffffff1663150b7a026131c9612a3e565b8786866040518563ffffffff1660e01b81526004016131eb94939291906142de565b602060405180830381600087803b15801561320557600080fd5b505af192505050801561323657506040513d601f19601f820116820180604052508101906132339190613b57565b60015b6132b9573d8060008114613266576040519150601f19603f3d011682016040523d82523d6000602084013e61326b565b606091505b506000815114156132b1576040517f08c379a00000000000000000000000000000000000000000000000000000000081526004016132a890614367565b60405180910390fd5b805181602001fd5b63150b7a0260e01b7bffffffffffffffffffffffffffffffffffffffffffffffffffffffff1916817bffffffffffffffffffffffffffffffffffffffffffffffffffffffff19161491505061330e565b600190505b949350505050565b6060600082141561335e576040518060400160405280600181526020017f300000000000000000000000000000000000000000000000000000000000000081525090506134be565b600082905060005b6000821461339057808061337990614af4565b915050600a82613389919061491a565b9150613366565b60008167ffffffffffffffff8111156133d2577f4e487b7100000000000000000000000000000000000000000000000000000000600052604160045260246000fd5b6040519080825280601f01601f1916602001820160405280156134045781602001600182028036833780820191505090505b5090505b600085146134b75760018261341d919061494b565b9150600a8561342c9190614b3d565b603061343891906148c4565b60f81b818381518110613474577f4e487b7100000000000000000000000000000000000000000000000000000000600052603260045260246000fd5b60200101907effffffffffffffffffffffffffffffffffffffffffffffffffffffffffffff1916908160001a905350600a856134b0919061491a565b9450613408565b8093505050505b919050565b6134cd8383613541565b6134da600084848461317f565b613519576040517f08c379a000000000000000000000000000000000000000000000000000000000815260040161351090614367565b60405180910390fd5b505050565b6000808273ffffffffffffffffffffffffffffffffffffffff163b119050919050565b600073ffffffffffffffffffffffffffffffffffffffff168273ffffffffffffffffffffffffffffffffffffffff1614156135b1576040517f08c379a00000000000000000000000000000000000000000000000000000000081526004016135a890614507565b60405180910390fd5b6135ba81613077565b156135fa576040517f08c379a00000000000000000000000000000000000000000000000000000000081526004016135f1906143a7565b60405180910390fd5b613606600083836130e3565b6001600360008473ffffffffffffffffffffffffffffffffffffffff1673ffffffffffffffffffffffffffffffffffffffff168152602001908152602001600020600082825461365691906148c4565b92505081905550816002600083815260200190815260200160002060006101000a81548173ffffffffffffffffffffffffffffffffffffffff021916908373ffffffffffffffffffffffffffffffffffffffff160217905550808273ffffffffffffffffffffffffffffffffffffffff16600073ffffffffffffffffffffffffffffffffffffffff167fddf252ad1be2c89b69c2b068fc378daa952ba7f163c4a11628f55a4df523b3ef60405160405180910390a4613717600083836130e8565b5050565b604051806060016040528060608152602001606081526020016000151581525090565b82805461374a90614a91565b90600052602060002090601f01602090048101928261376c57600085556137b3565b82601f1061378557805160ff19168380011785556137b3565b828001600101855582156137b3579182015b828111156137b2578251825591602001919060010190613797565b5b5090506137c091906137e0565b5090565b6040518060400160405280606081526020016000151581525090565b5b808211156137f95760008160009055506001016137e1565b5090565b600061381061380b84614803565b6147de565b90508281526020810184848401111561382857600080fd5b613833848285614a4f565b509392505050565b600061384e61384984614834565b6147de565b90508281526020810184848401111561386657600080fd5b613871848285614a4f565b509392505050565b60008135905061388881615281565b92915050565b60008135905061389d81615298565b92915050565b6000813590506138b2816152af565b92915050565b6000813590506138c7816152c6565b92915050565b6000815190506138dc816152c6565b92915050565b600082601f8301126138f357600080fd5b81356139038482602086016137fd565b91505092915050565b600082601f83011261391d57600080fd5b813561392d84826020860161383b565b91505092915050565b600081359050613945816152dd565b92915050565b60006020828403121561395d57600080fd5b600061396b84828501613879565b91505092915050565b6000806040838503121561398757600080fd5b60006139958582860161388e565b92505060206139a685828601613936565b9150509250929050565b600080604083850312156139c357600080fd5b60006139d185828601613879565b92505060206139e285828601613879565b9150509250929050565b600080600060608486031215613a0157600080fd5b6000613a0f86828701613879565b9350506020613a2086828701613879565b9250506040613a3186828701613936565b9150509250925092565b60008060008060808587031215613a5157600080fd5b6000613a5f87828801613879565b9450506020613a7087828801613879565b9350506040613a8187828801613936565b925050606085013567ffffffffffffffff811115613a9e57600080fd5b613aaa878288016138e2565b91505092959194509250565b60008060408385031215613ac957600080fd5b6000613ad785828601613879565b9250506020613ae8858286016138a3565b9150509250929050565b60008060408385031215613b0557600080fd5b6000613b1385828601613879565b9250506020613b2485828601613936565b9150509250929050565b600060208284031215613b4057600080fd5b6000613b4e848285016138b8565b91505092915050565b600060208284031215613b6957600080fd5b6000613b77848285016138cd565b91505092915050565b600060208284031215613b9257600080fd5b600082013567ffffffffffffffff811115613bac57600080fd5b613bb88482850161390c565b91505092915050565b60008060408385031215613bd457600080fd5b600083013567ffffffffffffffff811115613bee57600080fd5b613bfa8582860161390c565b925050602083013567ffffffffffffffff811115613c1757600080fd5b613c238582860161390c565b9150509250929050565b60008060008060808587031215613c4357600080fd5b600085013567ffffffffffffffff811115613c5d57600080fd5b613c698782880161390c565b945050602085013567ffffffffffffffff811115613c8657600080fd5b613c928782880161390c565b935050604085013567ffffffffffffffff811115613caf57600080fd5b613cbb8782880161390c565b9250506060613ccc87828801613936565b91505092959194509250565b600060208284031215613cea57600080fd5b6000613cf884828501613936565b91505092915050565b60008060408385031215613d1457600080fd5b6000613d2285828601613936565b925050602083013567ffffffffffffffff811115613d3f57600080fd5b613d4b8582860161390c565b9150509250929050565b613d5e8161497f565b82525050565b613d6d816149a3565b82525050565b613d7c816149a3565b82525050565b6000613d8d82614865565b613d97818561487b565b9350613da7818560208601614a5e565b613db081614c59565b840191505092915050565b613dc481614a2b565b82525050565b613dd381614a3d565b82525050565b6000613de482614870565b613dee8185614897565b9350613dfe818560208601614a5e565b613e0781614c59565b840191505092915050565b6000613e1d82614870565b613e2781856148a8565b9350613e37818560208601614a5e565b613e4081614c59565b840191505092915050565b6000613e5682614870565b613e6081856148b9565b9350613e70818560208601614a5e565b80840191505092915050565b6000613e896032836148a8565b9150613e9482614c6a565b604082019050919050565b6000613eac6025836148a8565b9150613eb782614cb9565b604082019050919050565b6000613ecf601c836148a8565b9150613eda82614d08565b602082019050919050565b6000613ef26022836148a8565b9150613efd82614d31565b604082019050919050565b6000613f156010836148a8565b9150613f2082614d80565b602082019050919050565b6000613f386024836148a8565b9150613f4382614da9565b604082019050919050565b6000613f5b6019836148a8565b9150613f6682614df8565b602082019050919050565b6000613f7e6021836148a8565b9150613f8982614e21565b604082019050919050565b6000613fa16029836148a8565b9150613fac82614e70565b604082019050919050565b6000613fc46021836148a8565b9150613fcf82614ebf565b604082019050919050565b6000613fe7602e836148a8565b9150613ff282614f0e565b604082019050919050565b600061400a603e836148a8565b915061401582614f5d565b604082019050919050565b600061402d601d836148a8565b915061403882614fac565b602082019050919050565b60006140506020836148a8565b915061405b82614fd5565b602082019050919050565b60006140736012836148a8565b915061407e82614ffe565b602082019050919050565b60006140966018836148a8565b91506140a182615027565b602082019050919050565b60006140b96018836148a8565b91506140c482615050565b602082019050919050565b60006140dc6026836148a8565b91506140e782615079565b604082019050919050565b60006140ff6021836148a8565b915061410a826150c8565b604082019050919050565b600061412260008361488c565b915061412d82615117565b600082019050919050565b60006141456013836148a8565b91506141508261511a565b602082019050919050565b6000614168602e836148a8565b915061417382615143565b604082019050919050565b600061418b601c836148a8565b915061419682615192565b602082019050919050565b60006141ae6027836148a8565b91506141b9826151bb565b604082019050919050565b60006141d16025836148a8565b91506141dc8261520a565b604082019050919050565b600060608301600083015184820360008601526142048282613dd9565b9150506020830151848203602086015261421e8282613dd9565b91505060408301516142336040860182613d64565b508091505092915050565b6000604083016000830151848203600086015261425b8282613dd9565b91505060208301516142706020860182613d64565b508091505092915050565b61428481614a21565b82525050565b60006142968285613e4b565b91506142a28284613e4b565b91508190509392505050565b60006142b982614115565b9150819050919050565b60006020820190506142d86000830184613d55565b92915050565b60006080820190506142f36000830187613d55565b6143006020830186613d55565b61430d604083018561427b565b818103606083015261431f8184613d82565b905095945050505050565b600060208201905061433f6000830184613d73565b92915050565b6000602082019050818103600083015261435f8184613e12565b905092915050565b6000602082019050818103600083015261438081613e7c565b9050919050565b600060208201905081810360008301526143a081613e9f565b9050919050565b600060208201905081810360008301526143c081613ec2565b9050919050565b600060208201905081810360008301526143e081613ee5565b9050919050565b6000602082019050818103600083015261440081613f08565b9050919050565b6000602082019050818103600083015261442081613f2b565b9050919050565b6000602082019050818103600083015261444081613f4e565b9050919050565b6000602082019050818103600083015261446081613f71565b9050919050565b6000602082019050818103600083015261448081613f94565b9050919050565b600060208201905081810360008301526144a081613fb7565b9050919050565b600060208201905081810360008301526144c081613fda565b9050919050565b600060208201905081810360008301526144e081613ffd565b9050919050565b6000602082019050818103600083015261450081614020565b9050919050565b6000602082019050818103600083015261452081614043565b9050919050565b6000602082019050818103600083015261454081614066565b9050919050565b6000602082019050818103600083015261456081614089565b9050919050565b60006020820190508181036000830152614580816140ac565b9050919050565b600060208201905081810360008301526145a0816140cf565b9050919050565b600060208201905081810360008301526145c0816140f2565b9050919050565b600060208201905081810360008301526145e081614138565b9050919050565b600060208201905081810360008301526146008161415b565b9050919050565b600060208201905081810360008301526146208161417e565b9050919050565b60006020820190508181036000830152614640816141a1565b9050919050565b60006020820190508181036000830152614660816141c4565b9050919050565b6000602082019050818103600083015261468181846141e7565b905092915050565b600060208201905081810360008301526146a3818461423e565b905092915050565b60006020820190506146c0600083018461427b565b92915050565b6000610120820190506146dc600083018c61427b565b6146e9602083018b613d55565b6146f6604083018a613d55565b614703606083018961427b565b81810360808301526147158188613e12565b905081810360a08301526147298187613e12565b905081810360c083015261473d8186613e12565b905061474c60e083018561427b565b61475a610100830184613dbb565b9a9950505050505050505050565b600060e08201905061477d600083018a61427b565b61478a602083018961427b565b6147976040830188613dbb565b6147a46060830187613d55565b6147b16080830186613d55565b81810360a08301526147c38185613e12565b90506147d260c0830184613dca565b98975050505050505050565b60006147e86147f9565b90506147f48282614ac3565b919050565b6000604051905090565b600067ffffffffffffffff82111561481e5761481d614c2a565b5b61482782614c59565b9050602081019050919050565b600067ffffffffffffffff82111561484f5761484e614c2a565b5b61485882614c59565b9050602081019050919050565b600081519050919050565b600081519050919050565b600082825260208201905092915050565b600081905092915050565b600082825260208201905092915050565b600082825260208201905092915050565b600081905092915050565b60006148cf82614a21565b91506148da83614a21565b9250827fffffffffffffffffffffffffffffffffffffffffffffffffffffffffffffffff0382111561490f5761490e614b6e565b5b828201905092915050565b600061492582614a21565b915061493083614a21565b9250826149405761493f614b9d565b5b828204905092915050565b600061495682614a21565b915061496183614a21565b92508282101561497457614973614b6e565b5b828203905092915050565b600061498a82614a01565b9050919050565b600061499c82614a01565b9050919050565b60008115159050919050565b60007fffffffff0000000000000000000000000000000000000000000000000000000082169050919050565b60008190506149e982615259565b919050565b60008190506149fc8261526d565b919050565b600073ffffffffffffffffffffffffffffffffffffffff82169050919050565b6000819050919050565b6000614a36826149db565b9050919050565b6000614a48826149ee565b9050919050565b82818337600083830152505050565b60005b83811015614a7c578082015181840152602081019050614a61565b83811115614a8b576000848401525b50505050565b60006002820490506001821680614aa957607f821691505b60208210811415614abd57614abc614bfb565b5b50919050565b614acc82614c59565b810181811067ffffffffffffffff82111715614aeb57614aea614c2a565b5b80604052505050565b6000614aff82614a21565b91507fffffffffffffffffffffffffffffffffffffffffffffffffffffffffffffffff821415614b3257614b31614b6e565b5b600182019050919050565b6000614b4882614a21565b9150614b5383614a21565b925082614b6357614b62614b9d565b5b828206905092915050565b7f4e487b7100000000000000000000000000000000000000000000000000000000600052601160045260246000fd5b7f4e487b7100000000000000000000000000000000000000000000000000000000600052601260045260246000fd5b7f4e487b7100000000000000000000000000000000000000000000000000000000600052602160045260246000fd5b7f4e487b7100000000000000000000000000000000000000000000000000000000600052602260045260246000fd5b7f4e487b7100000000000000000000000000000000000000000000000000000000600052604160045260246000fd5b6000601f19601f8301169050919050565b7f4552433732313a207472616e7366657220746f206e6f6e20455243373231526560008201527f63656976657220696d706c656d656e7465720000000000000000000000000000602082015250565b7f4552433732313a207472616e736665722066726f6d20696e636f72726563742060008201527f6f776e6572000000000000000000000000000000000000000000000000000000602082015250565b7f4552433732313a20746f6b656e20616c7265616479206d696e74656400000000600082015250565b7f436f6d70616e79206164647265737320616c726561647920726567697374657260008201527f6564000000000000000000000000000000000000000000000000000000000000602082015250565b7f4e6f7420656e6f7567682066756e647300000000000000000000000000000000600082015250565b7f4552433732313a207472616e7366657220746f20746865207a65726f2061646460008201527f7265737300000000000000000000000000000000000000000000000000000000602082015250565b7f4552433732313a20617070726f766520746f2063616c6c657200000000000000600082015250565b7f48756e746572206164647265737320616c72656164792072656769737465726560008201527f6400000000000000000000000000000000000000000000000000000000000000602082015250565b7f4552433732313a2061646472657373207a65726f206973206e6f74206120766160008201527f6c6964206f776e65720000000000000000000000000000000000000000000000602082015250565b7f43616e277420706f7374207468697320736f6c7574696f6e2070726f706f736160008201527f6c00000000000000000000000000000000000000000000000000000000000000602082015250565b7f45524337323155524953746f726167653a2055524920736574206f66206e6f6e60008201527f6578697374656e7420746f6b656e000000000000000000000000000000000000602082015250565b7f4552433732313a20617070726f76652063616c6c6572206973206e6f7420746f60008201527f6b656e206f776e6572206e6f7220617070726f76656420666f7220616c6c0000602082015250565b7f436f6d70616e79206973206e6f74207265676973746572656420796574000000600082015250565b7f4552433732313a206d696e7420746f20746865207a65726f2061646472657373600082015250565b7f6661696c6564207472616e73616374696f6e0000000000000000000000000000600082015250565b7f4e6f7420617574686f72697a656420746f206163636570740000000000000000600082015250565b7f4552433732313a20696e76616c696420746f6b656e2049440000000000000000600082015250565b7f54686973206163636f756e74206973207265676973746572656420617320612060008201527f68756e7465720000000000000000000000000000000000000000000000000000602082015250565b7f4552433732313a20617070726f76616c20746f2063757272656e74206f776e6560008201527f7200000000000000000000000000000000000000000000000000000000000000602082015250565b50565b7f496e73756666696369656e742066756e64732000000000000000000000000000600082015250565b7f4552433732313a2063616c6c6572206973206e6f7420746f6b656e206f776e6560008201527f72206e6f7220617070726f766564000000000000000000000000000000000000602082015250565b7f48756e746572206973206e6f7420726567697374657265642079657400000000600082015250565b7f546869732061646472657373206973207265676973746572656420617320612060008201527f636f6d70616e7900000000000000000000000000000000000000000000000000602082015250565b7f43616e6e6f742061636365707420736f6c7574696f6e20666f7220746869732060008201527f6973737565000000000000000000000000000000000000000000000000000000602082015250565b6003811061526a57615269614bcc565b5b50565b6003811061527e5761527d614bcc565b5b50565b61528a8161497f565b811461529557600080fd5b50565b6152a181614991565b81146152ac57600080fd5b50565b6152b8816149a3565b81146152c357600080fd5b50565b6152cf816149af565b81146152da57600080fd5b50565b6152e681614a21565b81146152f157600080fd5b5056fea26469706673582212206fb00919321b65940d095e14c50157bb62d5233f0bd2d957a8dbb1d226a0865164736f6c63430008040033",
  "linkReferences": {},
  "deployedLinkReferences": {}
}