{
  "_format": "hh-sol-artifact-1",
  "contractName": "DeBounty",
  "sourceName": "contracts/DeBounty.sol",
  "abi": [
    {
      "inputs": [],
      "stateMutability": "nonpayable",
      "type": "constructor"
    },
    {
      "anonymous": false,
      "inputs": [
        {
          "indexed": true,
          "internalType": "address",
          "name": "owner",
          "type": "address"
        },
        {
          "indexed": true,
          "internalType": "address",
          "name": "approved",
          "type": "address"
        },
        {
          "indexed": true,
          "internalType": "uint256",
          "name": "tokenId",
          "type": "uint256"
        }
      ],
      "name": "Approval",
      "type": "event"
    },
    {
      "anonymous": false,
      "inputs": [
        {
          "indexed": true,
          "internalType": "address",
          "name": "owner",
          "type": "address"
        },
        {
          "indexed": true,
          "internalType": "address",
          "name": "operator",
          "type": "address"
        },
        {
          "indexed": false,
          "internalType": "bool",
          "name": "approved",
          "type": "bool"
        }
      ],
      "name": "ApprovalForAll",
      "type": "event"
    },
    {
      "anonymous": false,
      "inputs": [
        {
          "indexed": true,
          "internalType": "address",
          "name": "from",
          "type": "address"
        },
        {
          "indexed": true,
          "internalType": "address",
          "name": "to",
          "type": "address"
        },
        {
          "indexed": true,
          "internalType": "uint256",
          "name": "tokenId",
          "type": "uint256"
        }
      ],
      "name": "Transfer",
      "type": "event"
    },
    {
      "stateMutability": "payable",
      "type": "fallback"
    },
    {
      "inputs": [
        {
          "internalType": "uint256",
          "name": "_proposedSolnID",
          "type": "uint256"
        },
        {
          "internalType": "uint256",
          "name": "_issueID",
          "type": "uint256"
        }
      ],
      "name": "acceptProposedSolution",
      "outputs": [],
      "stateMutability": "nonpayable",
      "type": "function"
    },
    {
      "inputs": [],
      "name": "admin",
      "outputs": [
        {
          "internalType": "address",
          "name": "",
          "type": "address"
        }
      ],
      "stateMutability": "view",
      "type": "function"
    },
    {
      "inputs": [
        {
          "internalType": "address",
          "name": "to",
          "type": "address"
        },
        {
          "internalType": "uint256",
          "name": "tokenId",
          "type": "uint256"
        }
      ],
      "name": "approve",
      "outputs": [],
      "stateMutability": "nonpayable",
      "type": "function"
    },
    {
      "inputs": [
        {
          "internalType": "address",
          "name": "owner",
          "type": "address"
        }
      ],
      "name": "balanceOf",
      "outputs": [
        {
          "internalType": "uint256",
          "name": "",
          "type": "uint256"
        }
      ],
      "stateMutability": "view",
      "type": "function"
    },
    {
      "inputs": [
        {
          "internalType": "uint256",
          "name": "_issueID",
          "type": "uint256"
        }
      ],
      "name": "getAllProposedSolution",
      "outputs": [
        {
          "components": [
            {
              "internalType": "uint256",
              "name": "id",
              "type": "uint256"
            },
            {
              "internalType": "uint256",
              "name": "issueID",
              "type": "uint256"
            },
            {
              "internalType": "address",
              "name": "issueCreator",
              "type": "address"
            },
            {
              "internalType": "address",
              "name": "proposer",
              "type": "address"
            },
            {
              "internalType": "string",
              "name": "solutionDescription",
              "type": "string"
            },
            {
              "internalType": "enum DeBounty.PROPOSED_SOLUTION_STATUS",
              "name": "status",
              "type": "uint8"
            }
          ],
          "internalType": "struct DeBounty.ProposedSolution[]",
          "name": "",
          "type": "tuple[]"
        }
      ],
      "stateMutability": "view",
      "type": "function"
    },
    {
      "inputs": [
        {
          "internalType": "uint256",
          "name": "tokenId",
          "type": "uint256"
        }
      ],
      "name": "getApproved",
      "outputs": [
        {
          "internalType": "address",
          "name": "",
          "type": "address"
        }
      ],
      "stateMutability": "view",
      "type": "function"
    },
    {
      "inputs": [],
      "name": "getCompany",
      "outputs": [
        {
          "components": [
            {
              "internalType": "string",
              "name": "name",
              "type": "string"
            },
            {
              "internalType": "string",
              "name": "nftMetadata",
              "type": "string"
            },
            {
              "internalType": "bool",
              "name": "isRegistered",
              "type": "bool"
            }
          ],
          "internalType": "struct DeBounty.Company",
          "name": "company",
          "type": "tuple"
        }
      ],
      "stateMutability": "view",
      "type": "function"
    },
    {
      "inputs": [],
      "name": "getHunter",
      "outputs": [
        {
          "components": [
            {
              "internalType": "string",
              "name": "name",
              "type": "string"
            },
            {
              "internalType": "bool",
              "name": "isRegistered",
              "type": "bool"
            }
          ],
          "internalType": "struct DeBounty.Hunter",
          "name": "hunter",
          "type": "tuple"
        }
      ],
      "stateMutability": "view",
      "type": "function"
    },
    {
      "inputs": [
        {
          "internalType": "address",
          "name": "owner",
          "type": "address"
        },
        {
          "internalType": "address",
          "name": "operator",
          "type": "address"
        }
      ],
      "name": "isApprovedForAll",
      "outputs": [
        {
          "internalType": "bool",
          "name": "",
          "type": "bool"
        }
      ],
      "stateMutability": "view",
      "type": "function"
    },
    {
      "inputs": [],
      "name": "isCompanyValid",
      "outputs": [
        {
          "internalType": "bool",
          "name": "",
          "type": "bool"
        }
      ],
      "stateMutability": "view",
      "type": "function"
    },
    {
      "inputs": [],
      "name": "isHunterValid",
      "outputs": [
        {
          "internalType": "bool",
          "name": "",
          "type": "bool"
        }
      ],
      "stateMutability": "view",
      "type": "function"
    },
    {
      "inputs": [],
      "name": "issueCount",
      "outputs": [
        {
          "internalType": "uint256",
          "name": "",
          "type": "uint256"
        }
      ],
      "stateMutability": "view",
      "type": "function"
    },
    {
      "inputs": [
        {
          "internalType": "uint256",
          "name": "",
          "type": "uint256"
        }
      ],
      "name": "issues",
      "outputs": [
        {
          "internalType": "uint256",
          "name": "id",
          "type": "uint256"
        },
        {
          "internalType": "address",
          "name": "creator",
          "type": "address"
        },
        {
          "internalType": "address",
          "name": "solver",
          "type": "address"
        },
        {
          "internalType": "uint256",
          "name": "solutionID",
          "type": "uint256"
        },
        {
          "internalType": "string",
          "name": "title",
          "type": "string"
        },
        {
          "internalType": "string",
          "name": "description",
          "type": "string"
        },
        {
          "internalType": "string",
          "name": "issueHash",
          "type": "string"
        },
        {
          "internalType": "uint256",
          "name": "reward",
          "type": "uint256"
        },
        {
          "internalType": "enum DeBounty.ISSUE_STATUS",
          "name": "status",
          "type": "uint8"
        }
      ],
      "stateMutability": "view",
      "type": "function"
    },
    {
      "inputs": [],
      "name": "name",
      "outputs": [
        {
          "internalType": "string",
          "name": "",
          "type": "string"
        }
      ],
      "stateMutability": "view",
      "type": "function"
    },
    {
      "inputs": [
        {
          "internalType": "uint256",
          "name": "tokenId",
          "type": "uint256"
        }
      ],
      "name": "ownerOf",
      "outputs": [
        {
          "internalType": "address",
          "name": "",
          "type": "address"
        }
      ],
      "stateMutability": "view",
      "type": "function"
    },
    {
      "inputs": [
        {
          "internalType": "address payable",
          "name": "_hunterAddress",
          "type": "address"
        },
        {
          "internalType": "uint256",
          "name": "_issueId",
          "type": "uint256"
        }
      ],
      "name": "payHunter",
      "outputs": [],
      "stateMutability": "payable",
      "type": "function"
    },
    {
      "inputs": [
        {
          "internalType": "string",
          "name": "title",
          "type": "string"
        },
        {
          "internalType": "string",
          "name": "description",
          "type": "string"
        },
        {
          "internalType": "string",
          "name": "issueHash",
          "type": "string"
        },
        {
          "internalType": "uint256",
          "name": "reward",
          "type": "uint256"
        }
      ],
      "name": "postIssue",
      "outputs": [],
      "stateMutability": "payable",
      "type": "function"
    },
    {
      "inputs": [
        {
          "internalType": "uint256",
          "name": "_issueID",
          "type": "uint256"
        },
        {
          "internalType": "string",
          "name": "_solutionDescription",
          "type": "string"
        }
      ],
      "name": "postSolutionProposal",
      "outputs": [],
      "stateMutability": "nonpayable",
      "type": "function"
    },
    {
      "inputs": [
        {
          "internalType": "string",
          "name": "_name",
          "type": "string"
        },
        {
          "internalType": "string",
          "name": "_nftMetadata",
          "type": "string"
        }
      ],
      "name": "registerCompany",
      "outputs": [],
      "stateMutability": "nonpayable",
      "type": "function"
    },
    {
      "inputs": [
        {
          "internalType": "string",
          "name": "_name",
          "type": "string"
        }
      ],
      "name": "registerHunter",
      "outputs": [],
      "stateMutability": "nonpayable",
      "type": "function"
    },
    {
      "inputs": [
        {
          "internalType": "address",
          "name": "from",
          "type": "address"
        },
        {
          "internalType": "address",
          "name": "to",
          "type": "address"
        },
        {
          "internalType": "uint256",
          "name": "tokenId",
          "type": "uint256"
        }
      ],
      "name": "safeTransferFrom",
      "outputs": [],
      "stateMutability": "nonpayable",
      "type": "function"
    },
    {
      "inputs": [
        {
          "internalType": "address",
          "name": "from",
          "type": "address"
        },
        {
          "internalType": "address",
          "name": "to",
          "type": "address"
        },
        {
          "internalType": "uint256",
          "name": "tokenId",
          "type": "uint256"
        },
        {
          "internalType": "bytes",
          "name": "data",
          "type": "bytes"
        }
      ],
      "name": "safeTransferFrom",
      "outputs": [],
      "stateMutability": "nonpayable",
      "type": "function"
    },
    {
      "inputs": [
        {
          "internalType": "address",
          "name": "operator",
          "type": "address"
        },
        {
          "internalType": "bool",
          "name": "approved",
          "type": "bool"
        }
      ],
      "name": "setApprovalForAll",
      "outputs": [],
      "stateMutability": "nonpayable",
      "type": "function"
    },
    {
      "inputs": [
        {
          "internalType": "bytes4",
          "name": "interfaceId",
          "type": "bytes4"
        }
      ],
      "name": "supportsInterface",
      "outputs": [
        {
          "internalType": "bool",
          "name": "",
          "type": "bool"
        }
      ],
      "stateMutability": "view",
      "type": "function"
    },
    {
      "inputs": [],
      "name": "symbol",
      "outputs": [
        {
          "internalType": "string",
          "name": "",
          "type": "string"
        }
      ],
      "stateMutability": "view",
      "type": "function"
    },
    {
      "inputs": [
        {
          "internalType": "uint256",
          "name": "tokenId",
          "type": "uint256"
        }
      ],
      "name": "tokenURI",
      "outputs": [
        {
          "internalType": "string",
          "name": "",
          "type": "string"
        }
      ],
      "stateMutability": "view",
      "type": "function"
    },
    {
      "inputs": [
        {
          "internalType": "address",
          "name": "from",
          "type": "address"
        },
        {
          "internalType": "address",
          "name": "to",
          "type": "address"
        },
        {
          "internalType": "uint256",
          "name": "tokenId",
          "type": "uint256"
        }
      ],
      "name": "transferFrom",
      "outputs": [],
      "stateMutability": "nonpayable",
      "type": "function"
    },
    {
      "stateMutability": "payable",
      "type": "receive"
    }
  ],
  "bytecode": "0x60806040523480156200001157600080fd5b506040518060400160405280600a81526020017f426f756e7479204e4654000000000000000000000000000000000000000000008152506040518060400160405280600681526020017f4e46542d4254000000000000000000000000000000000000000000000000000081525081600090805190602001906200009692919062000111565b508060019080519060200190620000af92919062000111565b50505033600760006101000a81548173ffffffffffffffffffffffffffffffffffffffff021916908373ffffffffffffffffffffffffffffffffffffffff1602179055506000600a819055506000600b819055506000600c8190555062000226565b8280546200011f90620001c1565b90600052602060002090601f0160209004810192826200014357600085556200018f565b82601f106200015e57805160ff19168380011785556200018f565b828001600101855582156200018f579182015b828111156200018e57825182559160200191906001019062000171565b5b5090506200019e9190620001a2565b5090565b5b80821115620001bd576000816000905550600101620001a3565b5090565b60006002820490506001821680620001da57607f821691505b60208210811415620001f157620001f0620001f7565b5b50919050565b7f4e487b7100000000000000000000000000000000000000000000000000000000600052602260045260246000fd5b61523a80620002366000396000f3fe6080604052600436106101a05760003560e01c806375e77f1d116100ec578063c87b56dd1161008a578063e98c967311610064578063e98c9673146105f2578063f36d65571461061b578063f765404314610646578063f851a4401461066f576101a7565b8063c87b56dd1461054d578063e83b33ec1461058a578063e985e9c5146105b5576101a7565b806398cf147a116100c657806398cf147a146104a5578063a22cb465146104d0578063b88d4fde146104f9578063befa098d14610522576101a7565b806375e77f1d1461044257806381c1c1391461045e57806395d89b411461047a576101a7565b806323b872dd116101595780634d58b845116101335780634d58b845146103625780636352211e1461039f57806370a08231146103dc57806374448ba414610419576101a7565b806323b872dd146102e75780632b6f04951461031057806342842e0e14610339576101a7565b806301ffc9a7146101a957806304e15de5146101e657806306fdde031461022b578063081812fc14610256578063095ea7b314610293578063127810bc146102bc576101a7565b366101a757005b005b3480156101b557600080fd5b506101d060048036038101906101cb91906138ed565b61069a565b6040516101dd9190614277565b60405180910390f35b3480156101f257600080fd5b5061020d60048036038101906102089190613a97565b61077c565b60405161022299989796959493929190614613565b60405180910390f35b34801561023757600080fd5b506102406109af565b60405161024d9190614292565b60405180910390f35b34801561026257600080fd5b5061027d60048036038101906102789190613a97565b610a41565b60405161028a91906141ee565b60405180910390f35b34801561029f57600080fd5b506102ba60048036038101906102b591906138b1565b610a87565b005b3480156102c857600080fd5b506102d1610b9f565b6040516102de91906145b4565b60405180910390f35b3480156102f357600080fd5b5061030e600480360381019061030991906137ab565b610d35565b005b34801561031c57600080fd5b506103376004803603810190610332919061393f565b610d95565b005b34801561034557600080fd5b50610360600480360381019061035b91906137ab565b610f5d565b005b34801561036e57600080fd5b5061038960048036038101906103849190613a97565b610f7d565b6040516103969190614255565b60405180910390f35b3480156103ab57600080fd5b506103c660048036038101906103c19190613a97565b611302565b6040516103d391906141ee565b60405180910390f35b3480156103e857600080fd5b5061040360048036038101906103fe919061370a565b6113b4565b60405161041091906145f8565b60405180910390f35b34801561042557600080fd5b50610440600480360381019061043b9190613980565b61146c565b005b61045c600480360381019061045791906139ec565b611658565b005b61047860048036038101906104739190613733565b611970565b005b34801561048657600080fd5b5061048f611a8f565b60405161049c9190614292565b60405180910390f35b3480156104b157600080fd5b506104ba611b21565b6040516104c791906145f8565b60405180910390f35b3480156104dc57600080fd5b506104f760048036038101906104f29190613875565b611b27565b005b34801561050557600080fd5b50610520600480360381019061051b91906137fa565b611b3d565b005b34801561052e57600080fd5b50610537611b9f565b6040516105449190614277565b60405180910390f35b34801561055957600080fd5b50610574600480360381019061056f9190613a97565b611c0e565b6040516105819190614292565b60405180910390f35b34801561059657600080fd5b5061059f611d21565b6040516105ac9190614277565b60405180910390f35b3480156105c157600080fd5b506105dc60048036038101906105d7919061376f565b611d90565b6040516105e99190614277565b60405180910390f35b3480156105fe57600080fd5b5061061960048036038101906106149190613ac0565b611e24565b005b34801561062757600080fd5b506106306121cf565b60405161063d91906145d6565b60405180910390f35b34801561065257600080fd5b5061066d60048036038101906106689190613b14565b6122d3565b005b34801561067b57600080fd5b50610684612722565b60405161069191906141ee565b60405180910390f35b60007f80ac58cd000000000000000000000000000000000000000000000000000000007bffffffffffffffffffffffffffffffffffffffffffffffffffffffff1916827bffffffffffffffffffffffffffffffffffffffffffffffffffffffff1916148061076557507f5b5e139f000000000000000000000000000000000000000000000000000000007bffffffffffffffffffffffffffffffffffffffffffffffffffffffff1916827bffffffffffffffffffffffffffffffffffffffffffffffffffffffff1916145b80610775575061077482612748565b5b9050919050565b60086020528060005260406000206000915090508060000154908060010160009054906101000a900473ffffffffffffffffffffffffffffffffffffffff16908060020160009054906101000a900473ffffffffffffffffffffffffffffffffffffffff16908060030154908060040180546107f7906149a1565b80601f0160208091040260200160405190810160405280929190818152602001828054610823906149a1565b80156108705780601f1061084557610100808354040283529160200191610870565b820191906000526020600020905b81548152906001019060200180831161085357829003601f168201915b505050505090806005018054610885906149a1565b80601f01602080910402602001604051908101604052809291908181526020018280546108b1906149a1565b80156108fe5780601f106108d3576101008083540402835291602001916108fe565b820191906000526020600020905b8154815290600101906020018083116108e157829003601f168201915b505050505090806006018054610913906149a1565b80601f016020809104026020016040519081016040528092919081815260200182805461093f906149a1565b801561098c5780601f106109615761010080835404028352916020019161098c565b820191906000526020600020905b81548152906001019060200180831161096f57829003601f168201915b5050505050908060070154908060080160009054906101000a900460ff16905089565b6060600080546109be906149a1565b80601f01602080910402602001604051908101604052809291908181526020018280546109ea906149a1565b8015610a375780601f10610a0c57610100808354040283529160200191610a37565b820191906000526020600020905b815481529060010190602001808311610a1a57829003601f168201915b5050505050905090565b6000610a4c826127b2565b6004600083815260200190815260200160002060009054906101000a900473ffffffffffffffffffffffffffffffffffffffff169050919050565b6000610a9282611302565b90508073ffffffffffffffffffffffffffffffffffffffff168373ffffffffffffffffffffffffffffffffffffffff161415610b03576040517f08c379a0000000000000000000000000000000000000000000000000000000008152600401610afa90614514565b60405180910390fd5b8073ffffffffffffffffffffffffffffffffffffffff16610b226127fd565b73ffffffffffffffffffffffffffffffffffffffff161480610b515750610b5081610b4b6127fd565b611d90565b5b610b90576040517f08c379a0000000000000000000000000000000000000000000000000000000008152600401610b8790614434565b60405180910390fd5b610b9a8383612805565b505050565b610ba76134da565b600e60003373ffffffffffffffffffffffffffffffffffffffff1673ffffffffffffffffffffffffffffffffffffffff168152602001908152602001600020604051806060016040529081600082018054610c01906149a1565b80601f0160208091040260200160405190810160405280929190818152602001828054610c2d906149a1565b8015610c7a5780601f10610c4f57610100808354040283529160200191610c7a565b820191906000526020600020905b815481529060010190602001808311610c5d57829003601f168201915b50505050508152602001600182018054610c93906149a1565b80601f0160208091040260200160405190810160405280929190818152602001828054610cbf906149a1565b8015610d0c5780601f10610ce157610100808354040283529160200191610d0c565b820191906000526020600020905b815481529060010190602001808311610cef57829003601f168201915b505050505081526020016002820160009054906101000a900460ff161515151581525050905090565b610d46610d406127fd565b826128be565b610d85576040517f08c379a0000000000000000000000000000000000000000000000000000000008152600401610d7c90614554565b60405180910390fd5b610d90838383612953565b505050565b60011515600d60003373ffffffffffffffffffffffffffffffffffffffff1673ffffffffffffffffffffffffffffffffffffffff16815260200190815260200160002060010160009054906101000a900460ff1615151415610e2c576040517f08c379a0000000000000000000000000000000000000000000000000000000008152600401610e23906143b4565b60405180910390fd5b60011515600e60003373ffffffffffffffffffffffffffffffffffffffff1673ffffffffffffffffffffffffffffffffffffffff16815260200190815260200160002060020160009054906101000a900460ff1615151415610ec3576040517f08c379a0000000000000000000000000000000000000000000000000000000008152600401610eba90614594565b60405180910390fd5b604051806040016040528082815260200160011515815250600d60003373ffffffffffffffffffffffffffffffffffffffff1673ffffffffffffffffffffffffffffffffffffffff1681526020019081526020016000206000820151816000019080519060200190610f369291906134fd565b5060208201518160010160006101000a81548160ff02191690831515021790555090505050565b610f7883838360405180602001604052806000815250611b3d565b505050565b606060011515600e60003373ffffffffffffffffffffffffffffffffffffffff1673ffffffffffffffffffffffffffffffffffffffff16815260200190815260200160002060020160009054906101000a900460ff16151514611015576040517f08c379a000000000000000000000000000000000000000000000000000000000815260040161100c90614454565b60405180910390fd5b3373ffffffffffffffffffffffffffffffffffffffff166008600084815260200190815260200160002060010160009054906101000a900473ffffffffffffffffffffffffffffffffffffffff1673ffffffffffffffffffffffffffffffffffffffff16146110b9576040517f08c379a00000000000000000000000000000000000000000000000000000000081526004016110b090614314565b60405180910390fd5b60096000838152602001908152602001600020805480602002602001604051908101604052809291908181526020016000905b828210156112f757838290600052602060002090600602016040518060c001604052908160008201548152602001600182015481526020016002820160009054906101000a900473ffffffffffffffffffffffffffffffffffffffff1673ffffffffffffffffffffffffffffffffffffffff1673ffffffffffffffffffffffffffffffffffffffff1681526020016003820160009054906101000a900473ffffffffffffffffffffffffffffffffffffffff1673ffffffffffffffffffffffffffffffffffffffff1673ffffffffffffffffffffffffffffffffffffffff1681526020016004820180546111df906149a1565b80601f016020809104026020016040519081016040528092919081815260200182805461120b906149a1565b80156112585780601f1061122d57610100808354040283529160200191611258565b820191906000526020600020905b81548152906001019060200180831161123b57829003601f168201915b505050505081526020016005820160009054906101000a900460ff1660028111156112ac577f4e487b7100000000000000000000000000000000000000000000000000000000600052602160045260246000fd5b60028111156112e4577f4e487b7100000000000000000000000000000000000000000000000000000000600052602160045260246000fd5b81525050815260200190600101906110ec565b505050509050919050565b6000806002600084815260200190815260200160002060009054906101000a900473ffffffffffffffffffffffffffffffffffffffff169050600073ffffffffffffffffffffffffffffffffffffffff168173ffffffffffffffffffffffffffffffffffffffff1614156113ab576040517f08c379a00000000000000000000000000000000000000000000000000000000081526004016113a2906144d4565b60405180910390fd5b80915050919050565b60008073ffffffffffffffffffffffffffffffffffffffff168273ffffffffffffffffffffffffffffffffffffffff161415611425576040517f08c379a000000000000000000000000000000000000000000000000000000000815260040161141c906143d4565b60405180910390fd5b600360008373ffffffffffffffffffffffffffffffffffffffff1673ffffffffffffffffffffffffffffffffffffffff168152602001908152602001600020549050919050565b60011515600e60003373ffffffffffffffffffffffffffffffffffffffff1673ffffffffffffffffffffffffffffffffffffffff16815260200190815260200160002060020160009054906101000a900460ff1615151415611503576040517f08c379a00000000000000000000000000000000000000000000000000000000081526004016114fa90614334565b60405180910390fd5b60011515600d60003373ffffffffffffffffffffffffffffffffffffffff1673ffffffffffffffffffffffffffffffffffffffff16815260200190815260200160002060010160009054906101000a900460ff161515141561159a576040517f08c379a0000000000000000000000000000000000000000000000000000000008152600401611591906144f4565b60405180910390fd5b604051806060016040528083815260200182815260200160011515815250600e60003373ffffffffffffffffffffffffffffffffffffffff1673ffffffffffffffffffffffffffffffffffffffff16815260200190815260200160002060008201518160000190805190602001906116139291906134fd565b5060208201518160010190805190602001906116309291906134fd565b5060408201518160020160006101000a81548160ff0219169083151502179055509050505050565b60011515600e60003373ffffffffffffffffffffffffffffffffffffffff1673ffffffffffffffffffffffffffffffffffffffff16815260200190815260200160002060020160009054906101000a900460ff161515146116ee576040517f08c379a00000000000000000000000000000000000000000000000000000000081526004016116e590614454565b60405180910390fd5b80341015611731576040517f08c379a000000000000000000000000000000000000000000000000000000000815260040161172890614534565b60405180910390fd5b6000604051806101200160405280600a5481526020013373ffffffffffffffffffffffffffffffffffffffff168152602001600073ffffffffffffffffffffffffffffffffffffffff16815260200160008152602001868152602001858152602001848152602001838152602001600060028111156117d9577f4e487b7100000000000000000000000000000000000000000000000000000000600052602160045260246000fd5b81525090508060086000600a5481526020019081526020016000206000820151816000015560208201518160010160006101000a81548173ffffffffffffffffffffffffffffffffffffffff021916908373ffffffffffffffffffffffffffffffffffffffff16021790555060408201518160020160006101000a81548173ffffffffffffffffffffffffffffffffffffffff021916908373ffffffffffffffffffffffffffffffffffffffff1602179055506060820151816003015560808201518160040190805190602001906118b29291906134fd565b5060a08201518160050190805190602001906118cf9291906134fd565b5060c08201518160060190805190602001906118ec9291906134fd565b5060e082015181600701556101008201518160080160006101000a81548160ff02191690836002811115611949577f4e487b7100000000000000000000000000000000000000000000000000000000600052602160045260246000fd5b0217905550905050600a600081548092919061196490614a04565b91905055505050505050565b600860008281526020019081526020016000206007015447116119c8576040517f08c379a00000000000000000000000000000000000000000000000000000000081526004016119bf90614354565b60405180910390fd5b60008273ffffffffffffffffffffffffffffffffffffffff166008600084815260200190815260200160002060070154604051611a04906141d9565b60006040518083038185875af1925050503d8060008114611a41576040519150601f19603f3d011682016040523d82523d6000602084013e611a46565b606091505b5050905080611a8a576040517f08c379a0000000000000000000000000000000000000000000000000000000008152600401611a8190614494565b60405180910390fd5b505050565b606060018054611a9e906149a1565b80601f0160208091040260200160405190810160405280929190818152602001828054611aca906149a1565b8015611b175780601f10611aec57610100808354040283529160200191611b17565b820191906000526020600020905b815481529060010190602001808311611afa57829003601f168201915b5050505050905090565b600a5481565b611b39611b326127fd565b8383612bba565b5050565b611b4e611b486127fd565b836128be565b611b8d576040517f08c379a0000000000000000000000000000000000000000000000000000000008152600401611b8490614554565b60405180910390fd5b611b9984848484612d27565b50505050565b600060011515600e60003373ffffffffffffffffffffffffffffffffffffffff1673ffffffffffffffffffffffffffffffffffffffff16815260200190815260200160002060020160009054906101000a900460ff1615151415611c065760019050611c0b565b600090505b90565b6060611c19826127b2565b6000600660008481526020019081526020016000208054611c39906149a1565b80601f0160208091040260200160405190810160405280929190818152602001828054611c65906149a1565b8015611cb25780601f10611c8757610100808354040283529160200191611cb2565b820191906000526020600020905b815481529060010190602001808311611c9557829003601f168201915b505050505090506000611cc3612d83565b9050600081511415611cd9578192505050611d1c565b600082511115611d0e578082604051602001611cf69291906141b5565b60405160208183030381529060405292505050611d1c565b611d1784612d9a565b925050505b919050565b600060011515600d60003373ffffffffffffffffffffffffffffffffffffffff1673ffffffffffffffffffffffffffffffffffffffff16815260200190815260200160002060010160009054906101000a900460ff1615151415611d885760019050611d8d565b600090505b90565b6000600560008473ffffffffffffffffffffffffffffffffffffffff1673ffffffffffffffffffffffffffffffffffffffff16815260200190815260200160002060008373ffffffffffffffffffffffffffffffffffffffff1673ffffffffffffffffffffffffffffffffffffffff16815260200190815260200160002060009054906101000a900460ff16905092915050565b60011515600d60003373ffffffffffffffffffffffffffffffffffffffff1673ffffffffffffffffffffffffffffffffffffffff16815260200190815260200160002060010160009054906101000a900460ff16151514611eba576040517f08c379a0000000000000000000000000000000000000000000000000000000008152600401611eb190614574565b60405180910390fd5b60006002811115611ef4577f4e487b7100000000000000000000000000000000000000000000000000000000600052602160045260246000fd5b6008600084815260200190815260200160002060080160009054906101000a900460ff166002811115611f50577f4e487b7100000000000000000000000000000000000000000000000000000000600052602160045260246000fd5b14611f90576040517f08c379a0000000000000000000000000000000000000000000000000000000008152600401611f87906143f4565b60405180910390fd5b6000600960008481526020019081526020016000209050806040518060c00160405280600b5481526020018581526020016008600087815260200190815260200160002060010160009054906101000a900473ffffffffffffffffffffffffffffffffffffffff1673ffffffffffffffffffffffffffffffffffffffff1681526020013373ffffffffffffffffffffffffffffffffffffffff1681526020018481526020016000600281111561206f577f4e487b7100000000000000000000000000000000000000000000000000000000600052602160045260246000fd5b8152509080600181540180825580915050600190039060005260206000209060060201600090919091909150600082015181600001556020820151816001015560408201518160020160006101000a81548173ffffffffffffffffffffffffffffffffffffffff021916908373ffffffffffffffffffffffffffffffffffffffff16021790555060608201518160030160006101000a81548173ffffffffffffffffffffffffffffffffffffffff021916908373ffffffffffffffffffffffffffffffffffffffff16021790555060808201518160040190805190602001906121599291906134fd565b5060a08201518160050160006101000a81548160ff021916908360028111156121ab577f4e487b7100000000000000000000000000000000000000000000000000000000600052602160045260246000fd5b02179055505050600b60008154809291906121c590614a04565b9190505550505050565b6121d7613583565b600d60003373ffffffffffffffffffffffffffffffffffffffff1673ffffffffffffffffffffffffffffffffffffffff168152602001908152602001600020604051806040016040529081600082018054612231906149a1565b80601f016020809104026020016040519081016040528092919081815260200182805461225d906149a1565b80156122aa5780601f1061227f576101008083540402835291602001916122aa565b820191906000526020600020905b81548152906001019060200180831161228d57829003601f168201915b505050505081526020016001820160009054906101000a900460ff161515151581525050905090565b60011515600e60003373ffffffffffffffffffffffffffffffffffffffff1673ffffffffffffffffffffffffffffffffffffffff16815260200190815260200160002060020160009054906101000a900460ff16151514612369576040517f08c379a000000000000000000000000000000000000000000000000000000000815260040161236090614454565b60405180910390fd5b60006009600083815260200190815260200160002083815481106123b6577f4e487b7100000000000000000000000000000000000000000000000000000000600052603260045260246000fd5b906000526020600020906006020160020160009054906101000a900473ffffffffffffffffffffffffffffffffffffffff1690503373ffffffffffffffffffffffffffffffffffffffff168173ffffffffffffffffffffffffffffffffffffffff1614612458576040517f08c379a000000000000000000000000000000000000000000000000000000000815260040161244f906144b4565b60405180910390fd5b60006009600084815260200190815260200160002084815481106124a5577f4e487b7100000000000000000000000000000000000000000000000000000000600052603260045260246000fd5b906000526020600020906006020160030160009054906101000a900473ffffffffffffffffffffffffffffffffffffffff16905060016008600085815260200190815260200160002060080160006101000a81548160ff02191690836002811115612539577f4e487b7100000000000000000000000000000000000000000000000000000000600052602160045260246000fd5b0217905550806008600085815260200190815260200160002060020160006101000a81548173ffffffffffffffffffffffffffffffffffffffff021916908373ffffffffffffffffffffffffffffffffffffffff16021790555060016009600085815260200190815260200160002085815481106125e0577f4e487b7100000000000000000000000000000000000000000000000000000000600052603260045260246000fd5b906000526020600020906006020160050160006101000a81548160ff02191690836002811115612639577f4e487b7100000000000000000000000000000000000000000000000000000000600052602160045260246000fd5b02179055506126488184611970565b61271c81600e60008573ffffffffffffffffffffffffffffffffffffffff1673ffffffffffffffffffffffffffffffffffffffff1681526020019081526020016000206001018054612699906149a1565b80601f01602080910402602001604051908101604052809291908181526020018280546126c5906149a1565b80156127125780601f106126e757610100808354040283529160200191612712565b820191906000526020600020905b8154815290600101906020018083116126f557829003601f168201915b5050505050612e02565b50505050565b600760009054906101000a900473ffffffffffffffffffffffffffffffffffffffff1681565b60007f01ffc9a7000000000000000000000000000000000000000000000000000000007bffffffffffffffffffffffffffffffffffffffffffffffffffffffff1916827bffffffffffffffffffffffffffffffffffffffffffffffffffffffff1916149050919050565b6127bb81612e36565b6127fa576040517f08c379a00000000000000000000000000000000000000000000000000000000081526004016127f1906144d4565b60405180910390fd5b50565b600033905090565b816004600083815260200190815260200160002060006101000a81548173ffffffffffffffffffffffffffffffffffffffff021916908373ffffffffffffffffffffffffffffffffffffffff160217905550808273ffffffffffffffffffffffffffffffffffffffff1661287883611302565b73ffffffffffffffffffffffffffffffffffffffff167f8c5be1e5ebec7d5bd14f71427d1e84f3dd0314c0f7b2291e5b200ac8c7c3b92560405160405180910390a45050565b6000806128ca83611302565b90508073ffffffffffffffffffffffffffffffffffffffff168473ffffffffffffffffffffffffffffffffffffffff16148061290c575061290b8185611d90565b5b8061294a57508373ffffffffffffffffffffffffffffffffffffffff1661293284610a41565b73ffffffffffffffffffffffffffffffffffffffff16145b91505092915050565b8273ffffffffffffffffffffffffffffffffffffffff1661297382611302565b73ffffffffffffffffffffffffffffffffffffffff16146129c9576040517f08c379a00000000000000000000000000000000000000000000000000000000081526004016129c0906142d4565b60405180910390fd5b600073ffffffffffffffffffffffffffffffffffffffff168273ffffffffffffffffffffffffffffffffffffffff161415612a39576040517f08c379a0000000000000000000000000000000000000000000000000000000008152600401612a3090614374565b60405180910390fd5b612a44838383612ea2565b612a4f600082612805565b6001600360008573ffffffffffffffffffffffffffffffffffffffff1673ffffffffffffffffffffffffffffffffffffffff1681526020019081526020016000206000828254612a9f919061485b565b925050819055506001600360008473ffffffffffffffffffffffffffffffffffffffff1673ffffffffffffffffffffffffffffffffffffffff1681526020019081526020016000206000828254612af691906147d4565b92505081905550816002600083815260200190815260200160002060006101000a81548173ffffffffffffffffffffffffffffffffffffffff021916908373ffffffffffffffffffffffffffffffffffffffff160217905550808273ffffffffffffffffffffffffffffffffffffffff168473ffffffffffffffffffffffffffffffffffffffff167fddf252ad1be2c89b69c2b068fc378daa952ba7f163c4a11628f55a4df523b3ef60405160405180910390a4612bb5838383612ea7565b505050565b8173ffffffffffffffffffffffffffffffffffffffff168373ffffffffffffffffffffffffffffffffffffffff161415612c29576040517f08c379a0000000000000000000000000000000000000000000000000000000008152600401612c2090614394565b60405180910390fd5b80600560008573ffffffffffffffffffffffffffffffffffffffff1673ffffffffffffffffffffffffffffffffffffffff16815260200190815260200160002060008473ffffffffffffffffffffffffffffffffffffffff1673ffffffffffffffffffffffffffffffffffffffff16815260200190815260200160002060006101000a81548160ff0219169083151502179055508173ffffffffffffffffffffffffffffffffffffffff168373ffffffffffffffffffffffffffffffffffffffff167f17307eab39ab6107e8899845ad3d59bd9653f200f220920489ca2b5937696c3183604051612d1a9190614277565b60405180910390a3505050565b612d32848484612953565b612d3e84848484612eac565b612d7d576040517f08c379a0000000000000000000000000000000000000000000000000000000008152600401612d74906142b4565b60405180910390fd5b50505050565b606060405180602001604052806000815250905090565b6060612da5826127b2565b6000612daf612d83565b90506000815111612dcf5760405180602001604052806000815250612dfa565b80612dd984613043565b604051602001612dea9291906141b5565b6040516020818303038152906040525b915050919050565b612e0e82600c546131f0565b612e1a600c548261320e565b600c6000815480929190612e2d90614a04565b91905055505050565b60008073ffffffffffffffffffffffffffffffffffffffff166002600084815260200190815260200160002060009054906101000a900473ffffffffffffffffffffffffffffffffffffffff1673ffffffffffffffffffffffffffffffffffffffff1614159050919050565b505050565b505050565b6000612ecd8473ffffffffffffffffffffffffffffffffffffffff16613282565b15613036578373ffffffffffffffffffffffffffffffffffffffff1663150b7a02612ef66127fd565b8786866040518563ffffffff1660e01b8152600401612f189493929190614209565b602060405180830381600087803b158015612f3257600080fd5b505af1925050508015612f6357506040513d601f19601f82011682018060405250810190612f609190613916565b60015b612fe6573d8060008114612f93576040519150601f19603f3d011682016040523d82523d6000602084013e612f98565b606091505b50600081511415612fde576040517f08c379a0000000000000000000000000000000000000000000000000000000008152600401612fd5906142b4565b60405180910390fd5b805181602001fd5b63150b7a0260e01b7bffffffffffffffffffffffffffffffffffffffffffffffffffffffff1916817bffffffffffffffffffffffffffffffffffffffffffffffffffffffff19161491505061303b565b600190505b949350505050565b6060600082141561308b576040518060400160405280600181526020017f300000000000000000000000000000000000000000000000000000000000000081525090506131eb565b600082905060005b600082146130bd5780806130a690614a04565b915050600a826130b6919061482a565b9150613093565b60008167ffffffffffffffff8111156130ff577f4e487b7100000000000000000000000000000000000000000000000000000000600052604160045260246000fd5b6040519080825280601f01601f1916602001820160405280156131315781602001600182028036833780820191505090505b5090505b600085146131e45760018261314a919061485b565b9150600a856131599190614a4d565b603061316591906147d4565b60f81b8183815181106131a1577f4e487b7100000000000000000000000000000000000000000000000000000000600052603260045260246000fd5b60200101907effffffffffffffffffffffffffffffffffffffffffffffffffffffffffffff1916908160001a905350600a856131dd919061482a565b9450613135565b8093505050505b919050565b61320a8282604051806020016040528060008152506132a5565b5050565b61321782612e36565b613256576040517f08c379a000000000000000000000000000000000000000000000000000000000815260040161324d90614414565b60405180910390fd5b8060066000848152602001908152602001600020908051906020019061327d9291906134fd565b505050565b6000808273ffffffffffffffffffffffffffffffffffffffff163b119050919050565b6132af8383613300565b6132bc6000848484612eac565b6132fb576040517f08c379a00000000000000000000000000000000000000000000000000000000081526004016132f2906142b4565b60405180910390fd5b505050565b600073ffffffffffffffffffffffffffffffffffffffff168273ffffffffffffffffffffffffffffffffffffffff161415613370576040517f08c379a000000000000000000000000000000000000000000000000000000000815260040161336790614474565b60405180910390fd5b61337981612e36565b156133b9576040517f08c379a00000000000000000000000000000000000000000000000000000000081526004016133b0906142f4565b60405180910390fd5b6133c560008383612ea2565b6001600360008473ffffffffffffffffffffffffffffffffffffffff1673ffffffffffffffffffffffffffffffffffffffff168152602001908152602001600020600082825461341591906147d4565b92505081905550816002600083815260200190815260200160002060006101000a81548173ffffffffffffffffffffffffffffffffffffffff021916908373ffffffffffffffffffffffffffffffffffffffff160217905550808273ffffffffffffffffffffffffffffffffffffffff16600073ffffffffffffffffffffffffffffffffffffffff167fddf252ad1be2c89b69c2b068fc378daa952ba7f163c4a11628f55a4df523b3ef60405160405180910390a46134d660008383612ea7565b5050565b604051806060016040528060608152602001606081526020016000151581525090565b828054613509906149a1565b90600052602060002090601f01602090048101928261352b5760008555613572565b82601f1061354457805160ff1916838001178555613572565b82800160010185558215613572579182015b82811115613571578251825591602001919060010190613556565b5b50905061357f919061359f565b5090565b6040518060400160405280606081526020016000151581525090565b5b808211156135b85760008160009055506001016135a0565b5090565b60006135cf6135ca846146da565b6146b5565b9050828152602081018484840111156135e757600080fd5b6135f284828561495f565b509392505050565b600061360d6136088461470b565b6146b5565b90508281526020810184848401111561362557600080fd5b61363084828561495f565b509392505050565b60008135905061364781615191565b92915050565b60008135905061365c816151a8565b92915050565b600081359050613671816151bf565b92915050565b600081359050613686816151d6565b92915050565b60008151905061369b816151d6565b92915050565b600082601f8301126136b257600080fd5b81356136c28482602086016135bc565b91505092915050565b600082601f8301126136dc57600080fd5b81356136ec8482602086016135fa565b91505092915050565b600081359050613704816151ed565b92915050565b60006020828403121561371c57600080fd5b600061372a84828501613638565b91505092915050565b6000806040838503121561374657600080fd5b60006137548582860161364d565b9250506020613765858286016136f5565b9150509250929050565b6000806040838503121561378257600080fd5b600061379085828601613638565b92505060206137a185828601613638565b9150509250929050565b6000806000606084860312156137c057600080fd5b60006137ce86828701613638565b93505060206137df86828701613638565b92505060406137f0868287016136f5565b9150509250925092565b6000806000806080858703121561381057600080fd5b600061381e87828801613638565b945050602061382f87828801613638565b9350506040613840878288016136f5565b925050606085013567ffffffffffffffff81111561385d57600080fd5b613869878288016136a1565b91505092959194509250565b6000806040838503121561388857600080fd5b600061389685828601613638565b92505060206138a785828601613662565b9150509250929050565b600080604083850312156138c457600080fd5b60006138d285828601613638565b92505060206138e3858286016136f5565b9150509250929050565b6000602082840312156138ff57600080fd5b600061390d84828501613677565b91505092915050565b60006020828403121561392857600080fd5b60006139368482850161368c565b91505092915050565b60006020828403121561395157600080fd5b600082013567ffffffffffffffff81111561396b57600080fd5b613977848285016136cb565b91505092915050565b6000806040838503121561399357600080fd5b600083013567ffffffffffffffff8111156139ad57600080fd5b6139b9858286016136cb565b925050602083013567ffffffffffffffff8111156139d657600080fd5b6139e2858286016136cb565b9150509250929050565b60008060008060808587031215613a0257600080fd5b600085013567ffffffffffffffff811115613a1c57600080fd5b613a28878288016136cb565b945050602085013567ffffffffffffffff811115613a4557600080fd5b613a51878288016136cb565b935050604085013567ffffffffffffffff811115613a6e57600080fd5b613a7a878288016136cb565b9250506060613a8b878288016136f5565b91505092959194509250565b600060208284031215613aa957600080fd5b6000613ab7848285016136f5565b91505092915050565b60008060408385031215613ad357600080fd5b6000613ae1858286016136f5565b925050602083013567ffffffffffffffff811115613afe57600080fd5b613b0a858286016136cb565b9150509250929050565b60008060408385031215613b2757600080fd5b6000613b35858286016136f5565b9250506020613b46858286016136f5565b9150509250929050565b6000613b5c838361410e565b905092915050565b613b6d8161488f565b82525050565b613b7c8161488f565b82525050565b6000613b8d8261474c565b613b97818561477a565b935083602082028501613ba98561473c565b8060005b85811015613be55784840389528151613bc68582613b50565b9450613bd18361476d565b925060208a01995050600181019050613bad565b50829750879550505050505092915050565b613c00816148b3565b82525050565b613c0f816148b3565b82525050565b6000613c2082614757565b613c2a818561478b565b9350613c3a81856020860161496e565b613c4381614b69565b840191505092915050565b613c578161493b565b82525050565b613c668161494d565b82525050565b6000613c7782614762565b613c8181856147a7565b9350613c9181856020860161496e565b613c9a81614b69565b840191505092915050565b6000613cb082614762565b613cba81856147b8565b9350613cca81856020860161496e565b613cd381614b69565b840191505092915050565b6000613ce982614762565b613cf381856147c9565b9350613d0381856020860161496e565b80840191505092915050565b6000613d1c6032836147b8565b9150613d2782614b7a565b604082019050919050565b6000613d3f6025836147b8565b9150613d4a82614bc9565b604082019050919050565b6000613d62601c836147b8565b9150613d6d82614c18565b602082019050919050565b6000613d85602d836147b8565b9150613d9082614c41565b604082019050919050565b6000613da86022836147b8565b9150613db382614c90565b604082019050919050565b6000613dcb6010836147b8565b9150613dd682614cdf565b602082019050919050565b6000613dee6024836147b8565b9150613df982614d08565b604082019050919050565b6000613e116019836147b8565b9150613e1c82614d57565b602082019050919050565b6000613e346021836147b8565b9150613e3f82614d80565b604082019050919050565b6000613e576029836147b8565b9150613e6282614dcf565b604082019050919050565b6000613e7a6021836147b8565b9150613e8582614e1e565b604082019050919050565b6000613e9d602e836147b8565b9150613ea882614e6d565b604082019050919050565b6000613ec0603e836147b8565b9150613ecb82614ebc565b604082019050919050565b6000613ee3601d836147b8565b9150613eee82614f0b565b602082019050919050565b6000613f066020836147b8565b9150613f1182614f34565b602082019050919050565b6000613f296012836147b8565b9150613f3482614f5d565b602082019050919050565b6000613f4c6018836147b8565b9150613f5782614f86565b602082019050919050565b6000613f6f6018836147b8565b9150613f7a82614faf565b602082019050919050565b6000613f926026836147b8565b9150613f9d82614fd8565b604082019050919050565b6000613fb56021836147b8565b9150613fc082615027565b604082019050919050565b6000613fd860008361479c565b9150613fe382615076565b600082019050919050565b6000613ffb6013836147b8565b915061400682615079565b602082019050919050565b600061401e602e836147b8565b9150614029826150a2565b604082019050919050565b6000614041601c836147b8565b915061404c826150f1565b602082019050919050565b60006140646027836147b8565b915061406f8261511a565b604082019050919050565b600060608301600083015184820360008601526140978282613c6c565b915050602083015184820360208601526140b18282613c6c565b91505060408301516140c66040860182613bf7565b508091505092915050565b600060408301600083015184820360008601526140ee8282613c6c565b91505060208301516141036020860182613bf7565b508091505092915050565b600060c0830160008301516141266000860182614197565b5060208301516141396020860182614197565b50604083015161414c6040860182613b64565b50606083015161415f6060860182613b64565b50608083015184820360808601526141778282613c6c565b91505060a083015161418c60a0860182613c5d565b508091505092915050565b6141a081614931565b82525050565b6141af81614931565b82525050565b60006141c18285613cde565b91506141cd8284613cde565b91508190509392505050565b60006141e482613fcb565b9150819050919050565b60006020820190506142036000830184613b73565b92915050565b600060808201905061421e6000830187613b73565b61422b6020830186613b73565b61423860408301856141a6565b818103606083015261424a8184613c15565b905095945050505050565b6000602082019050818103600083015261426f8184613b82565b905092915050565b600060208201905061428c6000830184613c06565b92915050565b600060208201905081810360008301526142ac8184613ca5565b905092915050565b600060208201905081810360008301526142cd81613d0f565b9050919050565b600060208201905081810360008301526142ed81613d32565b9050919050565b6000602082019050818103600083015261430d81613d55565b9050919050565b6000602082019050818103600083015261432d81613d78565b9050919050565b6000602082019050818103600083015261434d81613d9b565b9050919050565b6000602082019050818103600083015261436d81613dbe565b9050919050565b6000602082019050818103600083015261438d81613de1565b9050919050565b600060208201905081810360008301526143ad81613e04565b9050919050565b600060208201905081810360008301526143cd81613e27565b9050919050565b600060208201905081810360008301526143ed81613e4a565b9050919050565b6000602082019050818103600083015261440d81613e6d565b9050919050565b6000602082019050818103600083015261442d81613e90565b9050919050565b6000602082019050818103600083015261444d81613eb3565b9050919050565b6000602082019050818103600083015261446d81613ed6565b9050919050565b6000602082019050818103600083015261448d81613ef9565b9050919050565b600060208201905081810360008301526144ad81613f1c565b9050919050565b600060208201905081810360008301526144cd81613f3f565b9050919050565b600060208201905081810360008301526144ed81613f62565b9050919050565b6000602082019050818103600083015261450d81613f85565b9050919050565b6000602082019050818103600083015261452d81613fa8565b9050919050565b6000602082019050818103600083015261454d81613fee565b9050919050565b6000602082019050818103600083015261456d81614011565b9050919050565b6000602082019050818103600083015261458d81614034565b9050919050565b600060208201905081810360008301526145ad81614057565b9050919050565b600060208201905081810360008301526145ce818461407a565b905092915050565b600060208201905081810360008301526145f081846140d1565b905092915050565b600060208201905061460d60008301846141a6565b92915050565b600061012082019050614629600083018c6141a6565b614636602083018b613b73565b614643604083018a613b73565b61465060608301896141a6565b81810360808301526146628188613ca5565b905081810360a08301526146768187613ca5565b905081810360c083015261468a8186613ca5565b905061469960e08301856141a6565b6146a7610100830184613c4e565b9a9950505050505050505050565b60006146bf6146d0565b90506146cb82826149d3565b919050565b6000604051905090565b600067ffffffffffffffff8211156146f5576146f4614b3a565b5b6146fe82614b69565b9050602081019050919050565b600067ffffffffffffffff82111561472657614725614b3a565b5b61472f82614b69565b9050602081019050919050565b6000819050602082019050919050565b600081519050919050565b600081519050919050565b600081519050919050565b6000602082019050919050565b600082825260208201905092915050565b600082825260208201905092915050565b600081905092915050565b600082825260208201905092915050565b600082825260208201905092915050565b600081905092915050565b60006147df82614931565b91506147ea83614931565b9250827fffffffffffffffffffffffffffffffffffffffffffffffffffffffffffffffff0382111561481f5761481e614a7e565b5b828201905092915050565b600061483582614931565b915061484083614931565b9250826148505761484f614aad565b5b828204905092915050565b600061486682614931565b915061487183614931565b92508282101561488457614883614a7e565b5b828203905092915050565b600061489a82614911565b9050919050565b60006148ac82614911565b9050919050565b60008115159050919050565b60007fffffffff0000000000000000000000000000000000000000000000000000000082169050919050565b60008190506148f982615169565b919050565b600081905061490c8261517d565b919050565b600073ffffffffffffffffffffffffffffffffffffffff82169050919050565b6000819050919050565b6000614946826148eb565b9050919050565b6000614958826148fe565b9050919050565b82818337600083830152505050565b60005b8381101561498c578082015181840152602081019050614971565b8381111561499b576000848401525b50505050565b600060028204905060018216806149b957607f821691505b602082108114156149cd576149cc614b0b565b5b50919050565b6149dc82614b69565b810181811067ffffffffffffffff821117156149fb576149fa614b3a565b5b80604052505050565b6000614a0f82614931565b91507fffffffffffffffffffffffffffffffffffffffffffffffffffffffffffffffff821415614a4257614a41614a7e565b5b600182019050919050565b6000614a5882614931565b9150614a6383614931565b925082614a7357614a72614aad565b5b828206905092915050565b7f4e487b7100000000000000000000000000000000000000000000000000000000600052601160045260246000fd5b7f4e487b7100000000000000000000000000000000000000000000000000000000600052601260045260246000fd5b7f4e487b7100000000000000000000000000000000000000000000000000000000600052602160045260246000fd5b7f4e487b7100000000000000000000000000000000000000000000000000000000600052602260045260246000fd5b7f4e487b7100000000000000000000000000000000000000000000000000000000600052604160045260246000fd5b6000601f19601f8301169050919050565b7f4552433732313a207472616e7366657220746f206e6f6e20455243373231526560008201527f63656976657220696d706c656d656e7465720000000000000000000000000000602082015250565b7f4552433732313a207472616e736665722066726f6d20696e636f72726563742060008201527f6f776e6572000000000000000000000000000000000000000000000000000000602082015250565b7f4552433732313a20746f6b656e20616c7265616479206d696e74656400000000600082015250565b7f596f752068617665206e6f2061636365737320746f20766965772070726f706f60008201527f73656420736f6c7574696f6e7300000000000000000000000000000000000000602082015250565b7f436f6d70616e79206164647265737320616c726561647920726567697374657260008201527f6564000000000000000000000000000000000000000000000000000000000000602082015250565b7f4e6f7420656e6f7567682066756e647300000000000000000000000000000000600082015250565b7f4552433732313a207472616e7366657220746f20746865207a65726f2061646460008201527f7265737300000000000000000000000000000000000000000000000000000000602082015250565b7f4552433732313a20617070726f766520746f2063616c6c657200000000000000600082015250565b7f48756e746572206164647265737320616c72656164792072656769737465726560008201527f6400000000000000000000000000000000000000000000000000000000000000602082015250565b7f4552433732313a2061646472657373207a65726f206973206e6f74206120766160008201527f6c6964206f776e65720000000000000000000000000000000000000000000000602082015250565b7f43616e277420706f7374207468697320736f6c7574696f6e2070726f706f736160008201527f6c00000000000000000000000000000000000000000000000000000000000000602082015250565b7f45524337323155524953746f726167653a2055524920736574206f66206e6f6e60008201527f6578697374656e7420746f6b656e000000000000000000000000000000000000602082015250565b7f4552433732313a20617070726f76652063616c6c6572206973206e6f7420746f60008201527f6b656e206f776e6572206e6f7220617070726f76656420666f7220616c6c0000602082015250565b7f436f6d70616e79206973206e6f74207265676973746572656420796574000000600082015250565b7f4552433732313a206d696e7420746f20746865207a65726f2061646472657373600082015250565b7f6661696c6564207472616e73616374696f6e0000000000000000000000000000600082015250565b7f4e6f7420617574686f72697a656420746f206163636570740000000000000000600082015250565b7f4552433732313a20696e76616c696420746f6b656e2049440000000000000000600082015250565b7f54686973206163636f756e74206973207265676973746572656420617320612060008201527f68756e7465720000000000000000000000000000000000000000000000000000602082015250565b7f4552433732313a20617070726f76616c20746f2063757272656e74206f776e6560008201527f7200000000000000000000000000000000000000000000000000000000000000602082015250565b50565b7f496e73756666696369656e742066756e64732000000000000000000000000000600082015250565b7f4552433732313a2063616c6c6572206973206e6f7420746f6b656e206f776e6560008201527f72206e6f7220617070726f766564000000000000000000000000000000000000602082015250565b7f48756e746572206973206e6f7420726567697374657265642079657400000000600082015250565b7f546869732061646472657373206973207265676973746572656420617320612060008201527f636f6d70616e7900000000000000000000000000000000000000000000000000602082015250565b6003811061517a57615179614adc565b5b50565b6003811061518e5761518d614adc565b5b50565b61519a8161488f565b81146151a557600080fd5b50565b6151b1816148a1565b81146151bc57600080fd5b50565b6151c8816148b3565b81146151d357600080fd5b50565b6151df816148bf565b81146151ea57600080fd5b50565b6151f681614931565b811461520157600080fd5b5056fea2646970667358221220fac8703c230c2e256434140e215eb656715e89c82065f228e622607a560e5bdd64736f6c63430008040033",
  "linkReferences": {},
  "deployedLinkReferences": {}
}