{
  "_format": "hh-sol-artifact-1",
  "contractName": "DeBounty",
  "sourceName": "contracts/DeBounty.sol",
  "abi": [
    {
      "inputs": [],
      "stateMutability": "nonpayable",
      "type": "constructor"
    },
    {
      "anonymous": false,
      "inputs": [
        {
          "indexed": true,
          "internalType": "address",
          "name": "owner",
          "type": "address"
        },
        {
          "indexed": true,
          "internalType": "address",
          "name": "approved",
          "type": "address"
        },
        {
          "indexed": true,
          "internalType": "uint256",
          "name": "tokenId",
          "type": "uint256"
        }
      ],
      "name": "Approval",
      "type": "event"
    },
    {
      "anonymous": false,
      "inputs": [
        {
          "indexed": true,
          "internalType": "address",
          "name": "owner",
          "type": "address"
        },
        {
          "indexed": true,
          "internalType": "address",
          "name": "operator",
          "type": "address"
        },
        {
          "indexed": false,
          "internalType": "bool",
          "name": "approved",
          "type": "bool"
        }
      ],
      "name": "ApprovalForAll",
      "type": "event"
    },
    {
      "anonymous": false,
      "inputs": [
        {
          "indexed": true,
          "internalType": "address",
          "name": "from",
          "type": "address"
        },
        {
          "indexed": true,
          "internalType": "address",
          "name": "to",
          "type": "address"
        },
        {
          "indexed": true,
          "internalType": "uint256",
          "name": "tokenId",
          "type": "uint256"
        }
      ],
      "name": "Transfer",
      "type": "event"
    },
    {
      "stateMutability": "payable",
      "type": "fallback"
    },
    {
      "inputs": [
        {
          "internalType": "uint256",
          "name": "_proposedSolnID",
          "type": "uint256"
        }
      ],
      "name": "acceptProposedSolution",
      "outputs": [],
      "stateMutability": "nonpayable",
      "type": "function"
    },
    {
      "inputs": [],
      "name": "admin",
      "outputs": [
        {
          "internalType": "address",
          "name": "",
          "type": "address"
        }
      ],
      "stateMutability": "view",
      "type": "function"
    },
    {
      "inputs": [
        {
          "internalType": "address",
          "name": "to",
          "type": "address"
        },
        {
          "internalType": "uint256",
          "name": "tokenId",
          "type": "uint256"
        }
      ],
      "name": "approve",
      "outputs": [],
      "stateMutability": "nonpayable",
      "type": "function"
    },
    {
      "inputs": [
        {
          "internalType": "address",
          "name": "owner",
          "type": "address"
        }
      ],
      "name": "balanceOf",
      "outputs": [
        {
          "internalType": "uint256",
          "name": "",
          "type": "uint256"
        }
      ],
      "stateMutability": "view",
      "type": "function"
    },
    {
      "inputs": [],
      "name": "getAllIssues",
      "outputs": [
        {
          "components": [
            {
              "internalType": "uint256",
              "name": "id",
              "type": "uint256"
            },
            {
              "internalType": "address",
              "name": "creator",
              "type": "address"
            },
            {
              "internalType": "address",
              "name": "solver",
              "type": "address"
            },
            {
              "internalType": "uint256",
              "name": "solutionID",
              "type": "uint256"
            },
            {
              "internalType": "string",
              "name": "title",
              "type": "string"
            },
            {
              "internalType": "string",
              "name": "description",
              "type": "string"
            },
            {
              "internalType": "string",
              "name": "issueHash",
              "type": "string"
            },
            {
              "internalType": "uint256",
              "name": "reward",
              "type": "uint256"
            },
            {
              "internalType": "enum DeBounty.ISSUE_STATUS",
              "name": "status",
              "type": "uint8"
            }
          ],
          "internalType": "struct DeBounty.Issue[]",
          "name": "",
          "type": "tuple[]"
        }
      ],
      "stateMutability": "view",
      "type": "function"
    },
    {
      "inputs": [],
      "name": "getAllProposedSolutions",
      "outputs": [
        {
          "components": [
            {
              "internalType": "uint256",
              "name": "id",
              "type": "uint256"
            },
            {
              "internalType": "uint256",
              "name": "issueID",
              "type": "uint256"
            },
            {
              "internalType": "enum DeBounty.ISSUE_STATUS",
              "name": "issueStatus",
              "type": "uint8"
            },
            {
              "internalType": "address",
              "name": "issueCreator",
              "type": "address"
            },
            {
              "internalType": "address",
              "name": "proposer",
              "type": "address"
            },
            {
              "internalType": "string",
              "name": "solutionDescription",
              "type": "string"
            },
            {
              "internalType": "enum DeBounty.PROPOSED_SOLUTION_STATUS",
              "name": "status",
              "type": "uint8"
            }
          ],
          "internalType": "struct DeBounty.ProposedSolution[]",
          "name": "",
          "type": "tuple[]"
        }
      ],
      "stateMutability": "view",
      "type": "function"
    },
    {
      "inputs": [
        {
          "internalType": "uint256",
          "name": "tokenId",
          "type": "uint256"
        }
      ],
      "name": "getApproved",
      "outputs": [
        {
          "internalType": "address",
          "name": "",
          "type": "address"
        }
      ],
      "stateMutability": "view",
      "type": "function"
    },
    {
      "inputs": [],
      "name": "getCompany",
      "outputs": [
        {
          "components": [
            {
              "internalType": "string",
              "name": "name",
              "type": "string"
            },
            {
              "internalType": "string",
              "name": "nftMetadata",
              "type": "string"
            },
            {
              "internalType": "bool",
              "name": "isRegistered",
              "type": "bool"
            }
          ],
          "internalType": "struct DeBounty.Company",
          "name": "company",
          "type": "tuple"
        }
      ],
      "stateMutability": "view",
      "type": "function"
    },
    {
      "inputs": [],
      "name": "getHunter",
      "outputs": [
        {
          "components": [
            {
              "internalType": "string",
              "name": "name",
              "type": "string"
            },
            {
              "internalType": "bool",
              "name": "isRegistered",
              "type": "bool"
            }
          ],
          "internalType": "struct DeBounty.Hunter",
          "name": "hunter",
          "type": "tuple"
        }
      ],
      "stateMutability": "view",
      "type": "function"
    },
    {
      "inputs": [
        {
          "internalType": "address",
          "name": "owner",
          "type": "address"
        },
        {
          "internalType": "address",
          "name": "operator",
          "type": "address"
        }
      ],
      "name": "isApprovedForAll",
      "outputs": [
        {
          "internalType": "bool",
          "name": "",
          "type": "bool"
        }
      ],
      "stateMutability": "view",
      "type": "function"
    },
    {
      "inputs": [],
      "name": "isCompanyValid",
      "outputs": [
        {
          "internalType": "bool",
          "name": "",
          "type": "bool"
        }
      ],
      "stateMutability": "view",
      "type": "function"
    },
    {
      "inputs": [],
      "name": "isHunterValid",
      "outputs": [
        {
          "internalType": "bool",
          "name": "",
          "type": "bool"
        }
      ],
      "stateMutability": "view",
      "type": "function"
    },
    {
      "inputs": [],
      "name": "issueCount",
      "outputs": [
        {
          "internalType": "uint256",
          "name": "",
          "type": "uint256"
        }
      ],
      "stateMutability": "view",
      "type": "function"
    },
    {
      "inputs": [
        {
          "internalType": "uint256",
          "name": "",
          "type": "uint256"
        }
      ],
      "name": "issues",
      "outputs": [
        {
          "internalType": "uint256",
          "name": "id",
          "type": "uint256"
        },
        {
          "internalType": "address",
          "name": "creator",
          "type": "address"
        },
        {
          "internalType": "address",
          "name": "solver",
          "type": "address"
        },
        {
          "internalType": "uint256",
          "name": "solutionID",
          "type": "uint256"
        },
        {
          "internalType": "string",
          "name": "title",
          "type": "string"
        },
        {
          "internalType": "string",
          "name": "description",
          "type": "string"
        },
        {
          "internalType": "string",
          "name": "issueHash",
          "type": "string"
        },
        {
          "internalType": "uint256",
          "name": "reward",
          "type": "uint256"
        },
        {
          "internalType": "enum DeBounty.ISSUE_STATUS",
          "name": "status",
          "type": "uint8"
        }
      ],
      "stateMutability": "view",
      "type": "function"
    },
    {
      "inputs": [],
      "name": "name",
      "outputs": [
        {
          "internalType": "string",
          "name": "",
          "type": "string"
        }
      ],
      "stateMutability": "view",
      "type": "function"
    },
    {
      "inputs": [
        {
          "internalType": "uint256",
          "name": "tokenId",
          "type": "uint256"
        }
      ],
      "name": "ownerOf",
      "outputs": [
        {
          "internalType": "address",
          "name": "",
          "type": "address"
        }
      ],
      "stateMutability": "view",
      "type": "function"
    },
    {
      "inputs": [
        {
          "internalType": "address payable",
          "name": "_hunterAddress",
          "type": "address"
        },
        {
          "internalType": "uint256",
          "name": "_issueId",
          "type": "uint256"
        }
      ],
      "name": "payHunter",
      "outputs": [],
      "stateMutability": "payable",
      "type": "function"
    },
    {
      "inputs": [
        {
          "internalType": "string",
          "name": "title",
          "type": "string"
        },
        {
          "internalType": "string",
          "name": "description",
          "type": "string"
        },
        {
          "internalType": "string",
          "name": "issueHash",
          "type": "string"
        },
        {
          "internalType": "uint256",
          "name": "reward",
          "type": "uint256"
        }
      ],
      "name": "postIssue",
      "outputs": [],
      "stateMutability": "payable",
      "type": "function"
    },
    {
      "inputs": [
        {
          "internalType": "uint256",
          "name": "_issueID",
          "type": "uint256"
        },
        {
          "internalType": "string",
          "name": "_solutionDescription",
          "type": "string"
        }
      ],
      "name": "postSolutionProposal",
      "outputs": [],
      "stateMutability": "nonpayable",
      "type": "function"
    },
    {
      "inputs": [],
      "name": "proposedSolutionCount",
      "outputs": [
        {
          "internalType": "uint256",
          "name": "",
          "type": "uint256"
        }
      ],
      "stateMutability": "view",
      "type": "function"
    },
    {
      "inputs": [
        {
          "internalType": "uint256",
          "name": "",
          "type": "uint256"
        }
      ],
      "name": "proposedSolutions",
      "outputs": [
        {
          "internalType": "uint256",
          "name": "id",
          "type": "uint256"
        },
        {
          "internalType": "uint256",
          "name": "issueID",
          "type": "uint256"
        },
        {
          "internalType": "enum DeBounty.ISSUE_STATUS",
          "name": "issueStatus",
          "type": "uint8"
        },
        {
          "internalType": "address",
          "name": "issueCreator",
          "type": "address"
        },
        {
          "internalType": "address",
          "name": "proposer",
          "type": "address"
        },
        {
          "internalType": "string",
          "name": "solutionDescription",
          "type": "string"
        },
        {
          "internalType": "enum DeBounty.PROPOSED_SOLUTION_STATUS",
          "name": "status",
          "type": "uint8"
        }
      ],
      "stateMutability": "view",
      "type": "function"
    },
    {
      "inputs": [
        {
          "internalType": "string",
          "name": "_name",
          "type": "string"
        },
        {
          "internalType": "string",
          "name": "_nftMetadata",
          "type": "string"
        }
      ],
      "name": "registerCompany",
      "outputs": [],
      "stateMutability": "nonpayable",
      "type": "function"
    },
    {
      "inputs": [
        {
          "internalType": "string",
          "name": "_name",
          "type": "string"
        }
      ],
      "name": "registerHunter",
      "outputs": [],
      "stateMutability": "nonpayable",
      "type": "function"
    },
    {
      "inputs": [
        {
          "internalType": "address",
          "name": "from",
          "type": "address"
        },
        {
          "internalType": "address",
          "name": "to",
          "type": "address"
        },
        {
          "internalType": "uint256",
          "name": "tokenId",
          "type": "uint256"
        }
      ],
      "name": "safeTransferFrom",
      "outputs": [],
      "stateMutability": "nonpayable",
      "type": "function"
    },
    {
      "inputs": [
        {
          "internalType": "address",
          "name": "from",
          "type": "address"
        },
        {
          "internalType": "address",
          "name": "to",
          "type": "address"
        },
        {
          "internalType": "uint256",
          "name": "tokenId",
          "type": "uint256"
        },
        {
          "internalType": "bytes",
          "name": "data",
          "type": "bytes"
        }
      ],
      "name": "safeTransferFrom",
      "outputs": [],
      "stateMutability": "nonpayable",
      "type": "function"
    },
    {
      "inputs": [
        {
          "internalType": "address",
          "name": "operator",
          "type": "address"
        },
        {
          "internalType": "bool",
          "name": "approved",
          "type": "bool"
        }
      ],
      "name": "setApprovalForAll",
      "outputs": [],
      "stateMutability": "nonpayable",
      "type": "function"
    },
    {
      "inputs": [
        {
          "internalType": "bytes4",
          "name": "interfaceId",
          "type": "bytes4"
        }
      ],
      "name": "supportsInterface",
      "outputs": [
        {
          "internalType": "bool",
          "name": "",
          "type": "bool"
        }
      ],
      "stateMutability": "view",
      "type": "function"
    },
    {
      "inputs": [],
      "name": "symbol",
      "outputs": [
        {
          "internalType": "string",
          "name": "",
          "type": "string"
        }
      ],
      "stateMutability": "view",
      "type": "function"
    },
    {
      "inputs": [
        {
          "internalType": "uint256",
          "name": "tokenId",
          "type": "uint256"
        }
      ],
      "name": "tokenURI",
      "outputs": [
        {
          "internalType": "string",
          "name": "",
          "type": "string"
        }
      ],
      "stateMutability": "view",
      "type": "function"
    },
    {
      "inputs": [
        {
          "internalType": "address",
          "name": "from",
          "type": "address"
        },
        {
          "internalType": "address",
          "name": "to",
          "type": "address"
        },
        {
          "internalType": "uint256",
          "name": "tokenId",
          "type": "uint256"
        }
      ],
      "name": "transferFrom",
      "outputs": [],
      "stateMutability": "nonpayable",
      "type": "function"
    },
    {
      "stateMutability": "payable",
      "type": "receive"
    }
  ],
  "bytecode": "0x60806040523480156200001157600080fd5b506040518060400160405280600a81526020017f426f756e7479204e4654000000000000000000000000000000000000000000008152506040518060400160405280600681526020017f4e46542d4254000000000000000000000000000000000000000000000000000081525081600090805190602001906200009692919062000111565b508060019080519060200190620000af92919062000111565b50505033600760006101000a81548173ffffffffffffffffffffffffffffffffffffffff021916908373ffffffffffffffffffffffffffffffffffffffff1602179055506000600a819055506000600b819055506000600c8190555062000226565b8280546200011f90620001c1565b90600052602060002090601f0160209004810192826200014357600085556200018f565b82601f106200015e57805160ff19168380011785556200018f565b828001600101855582156200018f579182015b828111156200018e57825182559160200191906001019062000171565b5b5090506200019e9190620001a2565b5090565b5b80821115620001bd576000816000905550600101620001a3565b5090565b60006002820490506001821680620001da57607f821691505b60208210811415620001f157620001f0620001f7565b5b50919050565b7f4e487b7100000000000000000000000000000000000000000000000000000000600052602260045260246000fd5b615cef80620002366000396000f3fe6080604052600436106101d15760003560e01c80638e90d0f7116100f7578063d2cbf17f11610095578063e98c967311610064578063e98c9673146106a8578063f36d6557146106d1578063f7e08163146106fc578063f851a44014610727576101d8565b8063d2cbf17f146105d2578063e254120214610615578063e83b33ec14610640578063e985e9c51461066b576101d8565b8063a22cb465116100d1578063a22cb46514610518578063b88d4fde14610541578063befa098d1461056a578063c87b56dd14610595576101d8565b80638e90d0f71461049957806395d89b41146104c257806398cf147a146104ed576101d8565b80632b6f04951161016f57806370a082311161013e57806370a08231146103fb57806374448ba41461043857806375e77f1d1461046157806381c1c1391461047d576101d8565b80632b6f04951461034157806342842e0e1461036a57806351b87078146103935780636352211e146103be576101d8565b8063081812fc116101ab578063081812fc14610287578063095ea7b3146102c4578063127810bc146102ed57806323b872dd14610318576101d8565b806301ffc9a7146101da57806304e15de51461021757806306fdde031461025c576101d8565b366101d857005b005b3480156101e657600080fd5b5061020160048036038101906101fc9190614180565b610752565b60405161020e9190614c7d565b60405180910390f35b34801561022357600080fd5b5061023e6004803603810190610239919061432a565b610834565b60405161025399989796959493929190615019565b60405180910390f35b34801561026857600080fd5b50610271610a77565b60405161027e9190614c98565b60405180910390f35b34801561029357600080fd5b506102ae60048036038101906102a9919061432a565b610b09565b6040516102bb9190614bd2565b60405180910390f35b3480156102d057600080fd5b506102eb60048036038101906102e69190614144565b610b4f565b005b3480156102f957600080fd5b50610302610c67565b60405161030f9190614fba565b60405180910390f35b34801561032457600080fd5b5061033f600480360381019061033a919061403e565b610dfd565b005b34801561034d57600080fd5b50610368600480360381019061036391906141d2565b610e5d565b005b34801561037657600080fd5b50610391600480360381019061038c919061403e565b611025565b005b34801561039f57600080fd5b506103a8611045565b6040516103b59190614c5b565b60405180910390f35b3480156103ca57600080fd5b506103e560048036038101906103e0919061432a565b611304565b6040516103f29190614bd2565b60405180910390f35b34801561040757600080fd5b50610422600480360381019061041d9190613f9d565b6113b6565b60405161042f9190614ffe565b60405180910390f35b34801561044457600080fd5b5061045f600480360381019061045a9190614213565b61146e565b005b61047b6004803603810190610476919061427f565b61165a565b005b61049760048036038101906104929190613fc6565b611987565b005b3480156104a557600080fd5b506104c060048036038101906104bb919061432a565b611b10565b005b3480156104ce57600080fd5b506104d761218b565b6040516104e49190614c98565b60405180910390f35b3480156104f957600080fd5b5061050261221d565b60405161050f9190614ffe565b60405180910390f35b34801561052457600080fd5b5061053f600480360381019061053a9190614108565b612223565b005b34801561054d57600080fd5b506105686004803603810190610563919061408d565b612239565b005b34801561057657600080fd5b5061057f61229b565b60405161058c9190614c7d565b60405180910390f35b3480156105a157600080fd5b506105bc60048036038101906105b7919061432a565b61230a565b6040516105c99190614c98565b60405180910390f35b3480156105de57600080fd5b506105f960048036038101906105f4919061432a565b61241d565b60405161060c97969594939291906150bb565b60405180910390f35b34801561062157600080fd5b5061062a612551565b6040516106379190614ffe565b60405180910390f35b34801561064c57600080fd5b50610655612557565b6040516106629190614c7d565b60405180910390f35b34801561067757600080fd5b50610692600480360381019061068d9190614002565b6125c6565b60405161069f9190614c7d565b60405180910390f35b3480156106b457600080fd5b506106cf60048036038101906106ca9190614353565b61265a565b005b3480156106dd57600080fd5b506106e6612b4a565b6040516106f39190614fdc565b60405180910390f35b34801561070857600080fd5b50610711612c4e565b60405161071e9190614c39565b60405180910390f35b34801561073357600080fd5b5061073c612fb5565b6040516107499190614bd2565b60405180910390f35b60007f80ac58cd000000000000000000000000000000000000000000000000000000007bffffffffffffffffffffffffffffffffffffffffffffffffffffffff1916827bffffffffffffffffffffffffffffffffffffffffffffffffffffffff1916148061081d57507f5b5e139f000000000000000000000000000000000000000000000000000000007bffffffffffffffffffffffffffffffffffffffffffffffffffffffff1916827bffffffffffffffffffffffffffffffffffffffffffffffffffffffff1916145b8061082d575061082c82612fdb565b5b9050919050565b6008818154811061084457600080fd5b90600052602060002090600902016000915090508060000154908060010160009054906101000a900473ffffffffffffffffffffffffffffffffffffffff16908060020160009054906101000a900473ffffffffffffffffffffffffffffffffffffffff16908060030154908060040180546108bf90615456565b80601f01602080910402602001604051908101604052809291908181526020018280546108eb90615456565b80156109385780601f1061090d57610100808354040283529160200191610938565b820191906000526020600020905b81548152906001019060200180831161091b57829003601f168201915b50505050509080600501805461094d90615456565b80601f016020809104026020016040519081016040528092919081815260200182805461097990615456565b80156109c65780601f1061099b576101008083540402835291602001916109c6565b820191906000526020600020905b8154815290600101906020018083116109a957829003601f168201915b5050505050908060060180546109db90615456565b80601f0160208091040260200160405190810160405280929190818152602001828054610a0790615456565b8015610a545780601f10610a2957610100808354040283529160200191610a54565b820191906000526020600020905b815481529060010190602001808311610a3757829003601f168201915b5050505050908060070154908060080160009054906101000a900460ff16905089565b606060008054610a8690615456565b80601f0160208091040260200160405190810160405280929190818152602001828054610ab290615456565b8015610aff5780601f10610ad457610100808354040283529160200191610aff565b820191906000526020600020905b815481529060010190602001808311610ae257829003601f168201915b5050505050905090565b6000610b1482613045565b6004600083815260200190815260200160002060009054906101000a900473ffffffffffffffffffffffffffffffffffffffff169050919050565b6000610b5a82611304565b90508073ffffffffffffffffffffffffffffffffffffffff168373ffffffffffffffffffffffffffffffffffffffff161415610bcb576040517f08c379a0000000000000000000000000000000000000000000000000000000008152600401610bc290614efa565b60405180910390fd5b8073ffffffffffffffffffffffffffffffffffffffff16610bea613090565b73ffffffffffffffffffffffffffffffffffffffff161480610c195750610c1881610c13613090565b6125c6565b5b610c58576040517f08c379a0000000000000000000000000000000000000000000000000000000008152600401610c4f90614e1a565b60405180910390fd5b610c628383613098565b505050565b610c6f613d6d565b600e60003373ffffffffffffffffffffffffffffffffffffffff1673ffffffffffffffffffffffffffffffffffffffff168152602001908152602001600020604051806060016040529081600082018054610cc990615456565b80601f0160208091040260200160405190810160405280929190818152602001828054610cf590615456565b8015610d425780601f10610d1757610100808354040283529160200191610d42565b820191906000526020600020905b815481529060010190602001808311610d2557829003601f168201915b50505050508152602001600182018054610d5b90615456565b80601f0160208091040260200160405190810160405280929190818152602001828054610d8790615456565b8015610dd45780601f10610da957610100808354040283529160200191610dd4565b820191906000526020600020905b815481529060010190602001808311610db757829003601f168201915b505050505081526020016002820160009054906101000a900460ff161515151581525050905090565b610e0e610e08613090565b82613151565b610e4d576040517f08c379a0000000000000000000000000000000000000000000000000000000008152600401610e4490614f3a565b60405180910390fd5b610e588383836131e6565b505050565b60011515600d60003373ffffffffffffffffffffffffffffffffffffffff1673ffffffffffffffffffffffffffffffffffffffff16815260200190815260200160002060010160009054906101000a900460ff1615151415610ef4576040517f08c379a0000000000000000000000000000000000000000000000000000000008152600401610eeb90614d9a565b60405180910390fd5b60011515600e60003373ffffffffffffffffffffffffffffffffffffffff1673ffffffffffffffffffffffffffffffffffffffff16815260200190815260200160002060020160009054906101000a900460ff1615151415610f8b576040517f08c379a0000000000000000000000000000000000000000000000000000000008152600401610f8290614f7a565b60405180910390fd5b604051806040016040528082815260200160011515815250600d60003373ffffffffffffffffffffffffffffffffffffffff1673ffffffffffffffffffffffffffffffffffffffff1681526020019081526020016000206000820151816000019080519060200190610ffe929190613d90565b5060208201518160010160006101000a81548160ff02191690831515021790555090505050565b61104083838360405180602001604052806000815250612239565b505050565b60606009805480602002602001604051908101604052809291908181526020016000905b828210156112fb57838290600052602060002090600602016040518060e001604052908160008201548152602001600182015481526020016002820160009054906101000a900460ff1660028111156110eb577f4e487b7100000000000000000000000000000000000000000000000000000000600052602160045260246000fd5b6002811115611123577f4e487b7100000000000000000000000000000000000000000000000000000000600052602160045260246000fd5b81526020016002820160019054906101000a900473ffffffffffffffffffffffffffffffffffffffff1673ffffffffffffffffffffffffffffffffffffffff1673ffffffffffffffffffffffffffffffffffffffff1681526020016003820160009054906101000a900473ffffffffffffffffffffffffffffffffffffffff1673ffffffffffffffffffffffffffffffffffffffff1673ffffffffffffffffffffffffffffffffffffffff1681526020016004820180546111e390615456565b80601f016020809104026020016040519081016040528092919081815260200182805461120f90615456565b801561125c5780601f106112315761010080835404028352916020019161125c565b820191906000526020600020905b81548152906001019060200180831161123f57829003601f168201915b505050505081526020016005820160009054906101000a900460ff1660028111156112b0577f4e487b7100000000000000000000000000000000000000000000000000000000600052602160045260246000fd5b60028111156112e8577f4e487b7100000000000000000000000000000000000000000000000000000000600052602160045260246000fd5b8152505081526020019060010190611069565b50505050905090565b6000806002600084815260200190815260200160002060009054906101000a900473ffffffffffffffffffffffffffffffffffffffff169050600073ffffffffffffffffffffffffffffffffffffffff168173ffffffffffffffffffffffffffffffffffffffff1614156113ad576040517f08c379a00000000000000000000000000000000000000000000000000000000081526004016113a490614eba565b60405180910390fd5b80915050919050565b60008073ffffffffffffffffffffffffffffffffffffffff168273ffffffffffffffffffffffffffffffffffffffff161415611427576040517f08c379a000000000000000000000000000000000000000000000000000000000815260040161141e90614dba565b60405180910390fd5b600360008373ffffffffffffffffffffffffffffffffffffffff1673ffffffffffffffffffffffffffffffffffffffff168152602001908152602001600020549050919050565b60011515600e60003373ffffffffffffffffffffffffffffffffffffffff1673ffffffffffffffffffffffffffffffffffffffff16815260200190815260200160002060020160009054906101000a900460ff1615151415611505576040517f08c379a00000000000000000000000000000000000000000000000000000000081526004016114fc90614d1a565b60405180910390fd5b60011515600d60003373ffffffffffffffffffffffffffffffffffffffff1673ffffffffffffffffffffffffffffffffffffffff16815260200190815260200160002060010160009054906101000a900460ff161515141561159c576040517f08c379a000000000000000000000000000000000000000000000000000000000815260040161159390614eda565b60405180910390fd5b604051806060016040528083815260200182815260200160011515815250600e60003373ffffffffffffffffffffffffffffffffffffffff1673ffffffffffffffffffffffffffffffffffffffff1681526020019081526020016000206000820151816000019080519060200190611615929190613d90565b506020820151816001019080519060200190611632929190613d90565b5060408201518160020160006101000a81548160ff0219169083151502179055509050505050565b60011515600e60003373ffffffffffffffffffffffffffffffffffffffff1673ffffffffffffffffffffffffffffffffffffffff16815260200190815260200160002060020160009054906101000a900460ff161515146116f0576040517f08c379a00000000000000000000000000000000000000000000000000000000081526004016116e790614e3a565b60405180910390fd5b80341015611733576040517f08c379a000000000000000000000000000000000000000000000000000000000815260040161172a90614f1a565b60405180910390fd5b6000604051806101200160405280600a5481526020013373ffffffffffffffffffffffffffffffffffffffff168152602001600073ffffffffffffffffffffffffffffffffffffffff16815260200160008152602001868152602001858152602001848152602001838152602001600060028111156117db577f4e487b7100000000000000000000000000000000000000000000000000000000600052602160045260246000fd5b815250905060088190806001815401808255809150506001900390600052602060002090600902016000909190919091506000820151816000015560208201518160010160006101000a81548173ffffffffffffffffffffffffffffffffffffffff021916908373ffffffffffffffffffffffffffffffffffffffff16021790555060408201518160020160006101000a81548173ffffffffffffffffffffffffffffffffffffffff021916908373ffffffffffffffffffffffffffffffffffffffff1602179055506060820151816003015560808201518160040190805190602001906118ca929190613d90565b5060a08201518160050190805190602001906118e7929190613d90565b5060c0820151816006019080519060200190611904929190613d90565b5060e082015181600701556101008201518160080160006101000a81548160ff02191690836002811115611961577f4e487b7100000000000000000000000000000000000000000000000000000000600052602160045260246000fd5b02179055505050600a600081548092919061197b906154b9565b91905055505050505050565b600881815481106119c1577f4e487b7100000000000000000000000000000000000000000000000000000000600052603260045260246000fd5b9060005260206000209060090201600701544711611a14576040517f08c379a0000000000000000000000000000000000000000000000000000000008152600401611a0b90614d3a565b60405180910390fd5b60008273ffffffffffffffffffffffffffffffffffffffff1660088381548110611a67577f4e487b7100000000000000000000000000000000000000000000000000000000600052603260045260246000fd5b906000526020600020906009020160070154604051611a8590614bbd565b60006040518083038185875af1925050503d8060008114611ac2576040519150601f19603f3d011682016040523d82523d6000602084013e611ac7565b606091505b5050905080611b0b576040517f08c379a0000000000000000000000000000000000000000000000000000000008152600401611b0290614e7a565b60405180910390fd5b505050565b60011515600e60003373ffffffffffffffffffffffffffffffffffffffff1673ffffffffffffffffffffffffffffffffffffffff16815260200190815260200160002060020160009054906101000a900460ff16151514611ba6576040517f08c379a0000000000000000000000000000000000000000000000000000000008152600401611b9d90614e3a565b60405180910390fd5b600060098281548110611be2577f4e487b7100000000000000000000000000000000000000000000000000000000600052603260045260246000fd5b906000526020600020906006020160020160019054906101000a900473ffffffffffffffffffffffffffffffffffffffff1690503373ffffffffffffffffffffffffffffffffffffffff168173ffffffffffffffffffffffffffffffffffffffff1614611c84576040517f08c379a0000000000000000000000000000000000000000000000000000000008152600401611c7b90614e9a565b60405180910390fd5b600060098381548110611cc0577f4e487b7100000000000000000000000000000000000000000000000000000000600052603260045260246000fd5b906000526020600020906006020160030160009054906101000a900473ffffffffffffffffffffffffffffffffffffffff169050600060098481548110611d30577f4e487b7100000000000000000000000000000000000000000000000000000000600052603260045260246000fd5b906000526020600020906006020160010154905060006002811115611d7e577f4e487b7100000000000000000000000000000000000000000000000000000000600052602160045260246000fd5b60088281548110611db8577f4e487b7100000000000000000000000000000000000000000000000000000000600052603260045260246000fd5b906000526020600020906009020160080160009054906101000a900460ff166002811115611e0f577f4e487b7100000000000000000000000000000000000000000000000000000000600052602160045260246000fd5b14611e4f576040517f08c379a0000000000000000000000000000000000000000000000000000000008152600401611e4690614f9a565b60405180910390fd5b600160088281548110611e8b577f4e487b7100000000000000000000000000000000000000000000000000000000600052603260045260246000fd5b906000526020600020906009020160080160006101000a81548160ff02191690836002811115611ee4577f4e487b7100000000000000000000000000000000000000000000000000000000600052602160045260246000fd5b02179055508160088281548110611f24577f4e487b7100000000000000000000000000000000000000000000000000000000600052603260045260246000fd5b906000526020600020906009020160020160006101000a81548173ffffffffffffffffffffffffffffffffffffffff021916908373ffffffffffffffffffffffffffffffffffffffff160217905550600160098581548110611faf577f4e487b7100000000000000000000000000000000000000000000000000000000600052603260045260246000fd5b906000526020600020906006020160050160006101000a81548160ff02191690836002811115612008577f4e487b7100000000000000000000000000000000000000000000000000000000600052602160045260246000fd5b0217905550600160098581548110612049577f4e487b7100000000000000000000000000000000000000000000000000000000600052603260045260246000fd5b906000526020600020906006020160020160006101000a81548160ff021916908360028111156120a2577f4e487b7100000000000000000000000000000000000000000000000000000000600052602160045260246000fd5b02179055506120b18282611987565b61218582600e60008673ffffffffffffffffffffffffffffffffffffffff1673ffffffffffffffffffffffffffffffffffffffff168152602001908152602001600020600101805461210290615456565b80601f016020809104026020016040519081016040528092919081815260200182805461212e90615456565b801561217b5780601f106121505761010080835404028352916020019161217b565b820191906000526020600020905b81548152906001019060200180831161215e57829003601f168201915b505050505061344d565b50505050565b60606001805461219a90615456565b80601f01602080910402602001604051908101604052809291908181526020018280546121c690615456565b80156122135780601f106121e857610100808354040283529160200191612213565b820191906000526020600020905b8154815290600101906020018083116121f657829003601f168201915b5050505050905090565b600a5481565b61223561222e613090565b8383613481565b5050565b61224a612244613090565b83613151565b612289576040517f08c379a000000000000000000000000000000000000000000000000000000000815260040161228090614f3a565b60405180910390fd5b612295848484846135ee565b50505050565b600060011515600e60003373ffffffffffffffffffffffffffffffffffffffff1673ffffffffffffffffffffffffffffffffffffffff16815260200190815260200160002060020160009054906101000a900460ff16151514156123025760019050612307565b600090505b90565b606061231582613045565b600060066000848152602001908152602001600020805461233590615456565b80601f016020809104026020016040519081016040528092919081815260200182805461236190615456565b80156123ae5780601f10612383576101008083540402835291602001916123ae565b820191906000526020600020905b81548152906001019060200180831161239157829003601f168201915b5050505050905060006123bf61364a565b90506000815114156123d5578192505050612418565b60008251111561240a5780826040516020016123f2929190614b99565b60405160208183030381529060405292505050612418565b61241384613661565b925050505b919050565b6009818154811061242d57600080fd5b90600052602060002090600602016000915090508060000154908060010154908060020160009054906101000a900460ff16908060020160019054906101000a900473ffffffffffffffffffffffffffffffffffffffff16908060030160009054906101000a900473ffffffffffffffffffffffffffffffffffffffff16908060040180546124bb90615456565b80601f01602080910402602001604051908101604052809291908181526020018280546124e790615456565b80156125345780601f1061250957610100808354040283529160200191612534565b820191906000526020600020905b81548152906001019060200180831161251757829003601f168201915b5050505050908060050160009054906101000a900460ff16905087565b600b5481565b600060011515600d60003373ffffffffffffffffffffffffffffffffffffffff1673ffffffffffffffffffffffffffffffffffffffff16815260200190815260200160002060010160009054906101000a900460ff16151514156125be57600190506125c3565b600090505b90565b6000600560008473ffffffffffffffffffffffffffffffffffffffff1673ffffffffffffffffffffffffffffffffffffffff16815260200190815260200160002060008373ffffffffffffffffffffffffffffffffffffffff1673ffffffffffffffffffffffffffffffffffffffff16815260200190815260200160002060009054906101000a900460ff16905092915050565b60011515600d60003373ffffffffffffffffffffffffffffffffffffffff1673ffffffffffffffffffffffffffffffffffffffff16815260200190815260200160002060010160009054906101000a900460ff161515146126f0576040517f08c379a00000000000000000000000000000000000000000000000000000000081526004016126e790614f5a565b60405180910390fd5b6000600281111561272a577f4e487b7100000000000000000000000000000000000000000000000000000000600052602160045260246000fd5b60088381548110612764577f4e487b7100000000000000000000000000000000000000000000000000000000600052603260045260246000fd5b906000526020600020906009020160080160009054906101000a900460ff1660028111156127bb577f4e487b7100000000000000000000000000000000000000000000000000000000600052602160045260246000fd5b146127fb576040517f08c379a00000000000000000000000000000000000000000000000000000000081526004016127f290614dda565b60405180910390fd5b60006040518060e00160405280600b54815260200184815260200160088581548110612850577f4e487b7100000000000000000000000000000000000000000000000000000000600052603260045260246000fd5b906000526020600020906009020160080160009054906101000a900460ff1660028111156128a7577f4e487b7100000000000000000000000000000000000000000000000000000000600052602160045260246000fd5b8152602001600885815481106128e6577f4e487b7100000000000000000000000000000000000000000000000000000000600052603260045260246000fd5b906000526020600020906009020160010160009054906101000a900473ffffffffffffffffffffffffffffffffffffffff1673ffffffffffffffffffffffffffffffffffffffff1681526020013373ffffffffffffffffffffffffffffffffffffffff1681526020018381526020016000600281111561298f577f4e487b7100000000000000000000000000000000000000000000000000000000600052602160045260246000fd5b81525090506009819080600181540180825580915050600190039060005260206000209060060201600090919091909150600082015181600001556020820151816001015560408201518160020160006101000a81548160ff02191690836002811115612a25577f4e487b7100000000000000000000000000000000000000000000000000000000600052602160045260246000fd5b021790555060608201518160020160016101000a81548173ffffffffffffffffffffffffffffffffffffffff021916908373ffffffffffffffffffffffffffffffffffffffff16021790555060808201518160030160006101000a81548173ffffffffffffffffffffffffffffffffffffffff021916908373ffffffffffffffffffffffffffffffffffffffff16021790555060a0820151816004019080519060200190612ad4929190613d90565b5060c08201518160050160006101000a81548160ff02191690836002811115612b26577f4e487b7100000000000000000000000000000000000000000000000000000000600052602160045260246000fd5b02179055505050600b6000815480929190612b40906154b9565b9190505550505050565b612b52613e16565b600d60003373ffffffffffffffffffffffffffffffffffffffff1673ffffffffffffffffffffffffffffffffffffffff168152602001908152602001600020604051806040016040529081600082018054612bac90615456565b80601f0160208091040260200160405190810160405280929190818152602001828054612bd890615456565b8015612c255780601f10612bfa57610100808354040283529160200191612c25565b820191906000526020600020905b815481529060010190602001808311612c0857829003601f168201915b505050505081526020016001820160009054906101000a900460ff161515151581525050905090565b60606008805480602002602001604051908101604052809291908181526020016000905b82821015612fac578382906000526020600020906009020160405180610120016040529081600082015481526020016001820160009054906101000a900473ffffffffffffffffffffffffffffffffffffffff1673ffffffffffffffffffffffffffffffffffffffff1673ffffffffffffffffffffffffffffffffffffffff1681526020016002820160009054906101000a900473ffffffffffffffffffffffffffffffffffffffff1673ffffffffffffffffffffffffffffffffffffffff1673ffffffffffffffffffffffffffffffffffffffff16815260200160038201548152602001600482018054612d6690615456565b80601f0160208091040260200160405190810160405280929190818152602001828054612d9290615456565b8015612ddf5780601f10612db457610100808354040283529160200191612ddf565b820191906000526020600020905b815481529060010190602001808311612dc257829003601f168201915b50505050508152602001600582018054612df890615456565b80601f0160208091040260200160405190810160405280929190818152602001828054612e2490615456565b8015612e715780601f10612e4657610100808354040283529160200191612e71565b820191906000526020600020905b815481529060010190602001808311612e5457829003601f168201915b50505050508152602001600682018054612e8a90615456565b80601f0160208091040260200160405190810160405280929190818152602001828054612eb690615456565b8015612f035780601f10612ed857610100808354040283529160200191612f03565b820191906000526020600020905b815481529060010190602001808311612ee657829003601f168201915b50505050508152602001600782015481526020016008820160009054906101000a900460ff166002811115612f61577f4e487b7100000000000000000000000000000000000000000000000000000000600052602160045260246000fd5b6002811115612f99577f4e487b7100000000000000000000000000000000000000000000000000000000600052602160045260246000fd5b8152505081526020019060010190612c72565b50505050905090565b600760009054906101000a900473ffffffffffffffffffffffffffffffffffffffff1681565b60007f01ffc9a7000000000000000000000000000000000000000000000000000000007bffffffffffffffffffffffffffffffffffffffffffffffffffffffff1916827bffffffffffffffffffffffffffffffffffffffffffffffffffffffff1916149050919050565b61304e816136c9565b61308d576040517f08c379a000000000000000000000000000000000000000000000000000000000815260040161308490614eba565b60405180910390fd5b50565b600033905090565b816004600083815260200190815260200160002060006101000a81548173ffffffffffffffffffffffffffffffffffffffff021916908373ffffffffffffffffffffffffffffffffffffffff160217905550808273ffffffffffffffffffffffffffffffffffffffff1661310b83611304565b73ffffffffffffffffffffffffffffffffffffffff167f8c5be1e5ebec7d5bd14f71427d1e84f3dd0314c0f7b2291e5b200ac8c7c3b92560405160405180910390a45050565b60008061315d83611304565b90508073ffffffffffffffffffffffffffffffffffffffff168473ffffffffffffffffffffffffffffffffffffffff16148061319f575061319e81856125c6565b5b806131dd57508373ffffffffffffffffffffffffffffffffffffffff166131c584610b09565b73ffffffffffffffffffffffffffffffffffffffff16145b91505092915050565b8273ffffffffffffffffffffffffffffffffffffffff1661320682611304565b73ffffffffffffffffffffffffffffffffffffffff161461325c576040517f08c379a000000000000000000000000000000000000000000000000000000000815260040161325390614cda565b60405180910390fd5b600073ffffffffffffffffffffffffffffffffffffffff168273ffffffffffffffffffffffffffffffffffffffff1614156132cc576040517f08c379a00000000000000000000000000000000000000000000000000000000081526004016132c390614d5a565b60405180910390fd5b6132d7838383613735565b6132e2600082613098565b6001600360008573ffffffffffffffffffffffffffffffffffffffff1673ffffffffffffffffffffffffffffffffffffffff16815260200190815260200160002060008282546133329190615310565b925050819055506001600360008473ffffffffffffffffffffffffffffffffffffffff1673ffffffffffffffffffffffffffffffffffffffff16815260200190815260200160002060008282546133899190615289565b92505081905550816002600083815260200190815260200160002060006101000a81548173ffffffffffffffffffffffffffffffffffffffff021916908373ffffffffffffffffffffffffffffffffffffffff160217905550808273ffffffffffffffffffffffffffffffffffffffff168473ffffffffffffffffffffffffffffffffffffffff167fddf252ad1be2c89b69c2b068fc378daa952ba7f163c4a11628f55a4df523b3ef60405160405180910390a461344883838361373a565b505050565b61345982600c5461373f565b613465600c548261375d565b600c6000815480929190613478906154b9565b91905055505050565b8173ffffffffffffffffffffffffffffffffffffffff168373ffffffffffffffffffffffffffffffffffffffff1614156134f0576040517f08c379a00000000000000000000000000000000000000000000000000000000081526004016134e790614d7a565b60405180910390fd5b80600560008573ffffffffffffffffffffffffffffffffffffffff1673ffffffffffffffffffffffffffffffffffffffff16815260200190815260200160002060008473ffffffffffffffffffffffffffffffffffffffff1673ffffffffffffffffffffffffffffffffffffffff16815260200190815260200160002060006101000a81548160ff0219169083151502179055508173ffffffffffffffffffffffffffffffffffffffff168373ffffffffffffffffffffffffffffffffffffffff167f17307eab39ab6107e8899845ad3d59bd9653f200f220920489ca2b5937696c31836040516135e19190614c7d565b60405180910390a3505050565b6135f98484846131e6565b613605848484846137d1565b613644576040517f08c379a000000000000000000000000000000000000000000000000000000000815260040161363b90614cba565b60405180910390fd5b50505050565b606060405180602001604052806000815250905090565b606061366c82613045565b600061367661364a565b9050600081511161369657604051806020016040528060008152506136c1565b806136a084613968565b6040516020016136b1929190614b99565b6040516020818303038152906040525b915050919050565b60008073ffffffffffffffffffffffffffffffffffffffff166002600084815260200190815260200160002060009054906101000a900473ffffffffffffffffffffffffffffffffffffffff1673ffffffffffffffffffffffffffffffffffffffff1614159050919050565b505050565b505050565b613759828260405180602001604052806000815250613b15565b5050565b613766826136c9565b6137a5576040517f08c379a000000000000000000000000000000000000000000000000000000000815260040161379c90614dfa565b60405180910390fd5b806006600084815260200190815260200160002090805190602001906137cc929190613d90565b505050565b60006137f28473ffffffffffffffffffffffffffffffffffffffff16613b70565b1561395b578373ffffffffffffffffffffffffffffffffffffffff1663150b7a0261381b613090565b8786866040518563ffffffff1660e01b815260040161383d9493929190614bed565b602060405180830381600087803b15801561385757600080fd5b505af192505050801561388857506040513d601f19601f8201168201806040525081019061388591906141a9565b60015b61390b573d80600081146138b8576040519150601f19603f3d011682016040523d82523d6000602084013e6138bd565b606091505b50600081511415613903576040517f08c379a00000000000000000000000000000000000000000000000000000000081526004016138fa90614cba565b60405180910390fd5b805181602001fd5b63150b7a0260e01b7bffffffffffffffffffffffffffffffffffffffffffffffffffffffff1916817bffffffffffffffffffffffffffffffffffffffffffffffffffffffff191614915050613960565b600190505b949350505050565b606060008214156139b0576040518060400160405280600181526020017f30000000000000000000000000000000000000000000000000000000000000008152509050613b10565b600082905060005b600082146139e25780806139cb906154b9565b915050600a826139db91906152df565b91506139b8565b60008167ffffffffffffffff811115613a24577f4e487b7100000000000000000000000000000000000000000000000000000000600052604160045260246000fd5b6040519080825280601f01601f191660200182016040528015613a565781602001600182028036833780820191505090505b5090505b60008514613b0957600182613a6f9190615310565b9150600a85613a7e9190615502565b6030613a8a9190615289565b60f81b818381518110613ac6577f4e487b7100000000000000000000000000000000000000000000000000000000600052603260045260246000fd5b60200101907effffffffffffffffffffffffffffffffffffffffffffffffffffffffffffff1916908160001a905350600a85613b0291906152df565b9450613a5a565b8093505050505b919050565b613b1f8383613b93565b613b2c60008484846137d1565b613b6b576040517f08c379a0000000000000000000000000000000000000000000000000000000008152600401613b6290614cba565b60405180910390fd5b505050565b6000808273ffffffffffffffffffffffffffffffffffffffff163b119050919050565b600073ffffffffffffffffffffffffffffffffffffffff168273ffffffffffffffffffffffffffffffffffffffff161415613c03576040517f08c379a0000000000000000000000000000000000000000000000000000000008152600401613bfa90614e5a565b60405180910390fd5b613c0c816136c9565b15613c4c576040517f08c379a0000000000000000000000000000000000000000000000000000000008152600401613c4390614cfa565b60405180910390fd5b613c5860008383613735565b6001600360008473ffffffffffffffffffffffffffffffffffffffff1673ffffffffffffffffffffffffffffffffffffffff1681526020019081526020016000206000828254613ca89190615289565b92505081905550816002600083815260200190815260200160002060006101000a81548173ffffffffffffffffffffffffffffffffffffffff021916908373ffffffffffffffffffffffffffffffffffffffff160217905550808273ffffffffffffffffffffffffffffffffffffffff16600073ffffffffffffffffffffffffffffffffffffffff167fddf252ad1be2c89b69c2b068fc378daa952ba7f163c4a11628f55a4df523b3ef60405160405180910390a4613d696000838361373a565b5050565b604051806060016040528060608152602001606081526020016000151581525090565b828054613d9c90615456565b90600052602060002090601f016020900481019282613dbe5760008555613e05565b82601f10613dd757805160ff1916838001178555613e05565b82800160010185558215613e05579182015b82811115613e04578251825591602001919060010190613de9565b5b509050613e129190613e32565b5090565b6040518060400160405280606081526020016000151581525090565b5b80821115613e4b576000816000905550600101613e33565b5090565b6000613e62613e5d84615156565b615131565b905082815260208101848484011115613e7a57600080fd5b613e85848285615414565b509392505050565b6000613ea0613e9b84615187565b615131565b905082815260208101848484011115613eb857600080fd5b613ec3848285615414565b509392505050565b600081359050613eda81615c46565b92915050565b600081359050613eef81615c5d565b92915050565b600081359050613f0481615c74565b92915050565b600081359050613f1981615c8b565b92915050565b600081519050613f2e81615c8b565b92915050565b600082601f830112613f4557600080fd5b8135613f55848260208601613e4f565b91505092915050565b600082601f830112613f6f57600080fd5b8135613f7f848260208601613e8d565b91505092915050565b600081359050613f9781615ca2565b92915050565b600060208284031215613faf57600080fd5b6000613fbd84828501613ecb565b91505092915050565b60008060408385031215613fd957600080fd5b6000613fe785828601613ee0565b9250506020613ff885828601613f88565b9150509250929050565b6000806040838503121561401557600080fd5b600061402385828601613ecb565b925050602061403485828601613ecb565b9150509250929050565b60008060006060848603121561405357600080fd5b600061406186828701613ecb565b935050602061407286828701613ecb565b925050604061408386828701613f88565b9150509250925092565b600080600080608085870312156140a357600080fd5b60006140b187828801613ecb565b94505060206140c287828801613ecb565b93505060406140d387828801613f88565b925050606085013567ffffffffffffffff8111156140f057600080fd5b6140fc87828801613f34565b91505092959194509250565b6000806040838503121561411b57600080fd5b600061412985828601613ecb565b925050602061413a85828601613ef5565b9150509250929050565b6000806040838503121561415757600080fd5b600061416585828601613ecb565b925050602061417685828601613f88565b9150509250929050565b60006020828403121561419257600080fd5b60006141a084828501613f0a565b91505092915050565b6000602082840312156141bb57600080fd5b60006141c984828501613f1f565b91505092915050565b6000602082840312156141e457600080fd5b600082013567ffffffffffffffff8111156141fe57600080fd5b61420a84828501613f5e565b91505092915050565b6000806040838503121561422657600080fd5b600083013567ffffffffffffffff81111561424057600080fd5b61424c85828601613f5e565b925050602083013567ffffffffffffffff81111561426957600080fd5b61427585828601613f5e565b9150509250929050565b6000806000806080858703121561429557600080fd5b600085013567ffffffffffffffff8111156142af57600080fd5b6142bb87828801613f5e565b945050602085013567ffffffffffffffff8111156142d857600080fd5b6142e487828801613f5e565b935050604085013567ffffffffffffffff81111561430157600080fd5b61430d87828801613f5e565b925050606061431e87828801613f88565b91505092959194509250565b60006020828403121561433c57600080fd5b600061434a84828501613f88565b91505092915050565b6000806040838503121561436657600080fd5b600061437485828601613f88565b925050602083013567ffffffffffffffff81111561439157600080fd5b61439d85828601613f5e565b9150509250929050565b60006143b38383614a0c565b905092915050565b60006143c78383614adf565b905092915050565b6143d881615344565b82525050565b6143e781615344565b82525050565b60006143f8826151d8565b614402818561521e565b935083602082028501614414856151b8565b8060005b85811015614450578484038952815161443185826143a7565b945061443c83615204565b925060208a01995050600181019050614418565b50829750879550505050505092915050565b600061446d826151e3565b614477818561522f565b935083602082028501614489856151c8565b8060005b858110156144c557848403895281516144a685826143bb565b94506144b183615211565b925060208a0199505060018101905061448d565b50829750879550505050505092915050565b6144e081615368565b82525050565b6144ef81615368565b82525050565b6000614500826151ee565b61450a8185615240565b935061451a818560208601615423565b6145238161561e565b840191505092915050565b614537816153f0565b82525050565b614546816153f0565b82525050565b61455581615402565b82525050565b61456481615402565b82525050565b6000614575826151f9565b61457f818561525c565b935061458f818560208601615423565b6145988161561e565b840191505092915050565b60006145ae826151f9565b6145b8818561526d565b93506145c8818560208601615423565b6145d18161561e565b840191505092915050565b60006145e7826151f9565b6145f1818561527e565b9350614601818560208601615423565b80840191505092915050565b600061461a60328361526d565b91506146258261562f565b604082019050919050565b600061463d60258361526d565b91506146488261567e565b604082019050919050565b6000614660601c8361526d565b915061466b826156cd565b602082019050919050565b600061468360228361526d565b915061468e826156f6565b604082019050919050565b60006146a660108361526d565b91506146b182615745565b602082019050919050565b60006146c960248361526d565b91506146d48261576e565b604082019050919050565b60006146ec60198361526d565b91506146f7826157bd565b602082019050919050565b600061470f60218361526d565b915061471a826157e6565b604082019050919050565b600061473260298361526d565b915061473d82615835565b604082019050919050565b600061475560218361526d565b915061476082615884565b604082019050919050565b6000614778602e8361526d565b9150614783826158d3565b604082019050919050565b600061479b603e8361526d565b91506147a682615922565b604082019050919050565b60006147be601d8361526d565b91506147c982615971565b602082019050919050565b60006147e160208361526d565b91506147ec8261599a565b602082019050919050565b600061480460128361526d565b915061480f826159c3565b602082019050919050565b600061482760188361526d565b9150614832826159ec565b602082019050919050565b600061484a60188361526d565b915061485582615a15565b602082019050919050565b600061486d60268361526d565b915061487882615a3e565b604082019050919050565b600061489060218361526d565b915061489b82615a8d565b604082019050919050565b60006148b3600083615251565b91506148be82615adc565b600082019050919050565b60006148d660138361526d565b91506148e182615adf565b602082019050919050565b60006148f9602e8361526d565b915061490482615b08565b604082019050919050565b600061491c601c8361526d565b915061492782615b57565b602082019050919050565b600061493f60278361526d565b915061494a82615b80565b604082019050919050565b600061496260258361526d565b915061496d82615bcf565b604082019050919050565b60006060830160008301518482036000860152614995828261456a565b915050602083015184820360208601526149af828261456a565b91505060408301516149c460408601826144d7565b508091505092915050565b600060408301600083015184820360008601526149ec828261456a565b9150506020830151614a0160208601826144d7565b508091505092915050565b600061012083016000830151614a256000860182614b7b565b506020830151614a3860208601826143cf565b506040830151614a4b60408601826143cf565b506060830151614a5e6060860182614b7b565b5060808301518482036080860152614a76828261456a565b91505060a083015184820360a0860152614a90828261456a565b91505060c083015184820360c0860152614aaa828261456a565b91505060e0830151614abf60e0860182614b7b565b50610100830151614ad461010086018261452e565b508091505092915050565b600060e083016000830151614af76000860182614b7b565b506020830151614b0a6020860182614b7b565b506040830151614b1d604086018261452e565b506060830151614b3060608601826143cf565b506080830151614b4360808601826143cf565b5060a083015184820360a0860152614b5b828261456a565b91505060c0830151614b7060c086018261454c565b508091505092915050565b614b84816153e6565b82525050565b614b93816153e6565b82525050565b6000614ba582856145dc565b9150614bb182846145dc565b91508190509392505050565b6000614bc8826148a6565b9150819050919050565b6000602082019050614be760008301846143de565b92915050565b6000608082019050614c0260008301876143de565b614c0f60208301866143de565b614c1c6040830185614b8a565b8181036060830152614c2e81846144f5565b905095945050505050565b60006020820190508181036000830152614c5381846143ed565b905092915050565b60006020820190508181036000830152614c758184614462565b905092915050565b6000602082019050614c9260008301846144e6565b92915050565b60006020820190508181036000830152614cb281846145a3565b905092915050565b60006020820190508181036000830152614cd38161460d565b9050919050565b60006020820190508181036000830152614cf381614630565b9050919050565b60006020820190508181036000830152614d1381614653565b9050919050565b60006020820190508181036000830152614d3381614676565b9050919050565b60006020820190508181036000830152614d5381614699565b9050919050565b60006020820190508181036000830152614d73816146bc565b9050919050565b60006020820190508181036000830152614d93816146df565b9050919050565b60006020820190508181036000830152614db381614702565b9050919050565b60006020820190508181036000830152614dd381614725565b9050919050565b60006020820190508181036000830152614df381614748565b9050919050565b60006020820190508181036000830152614e138161476b565b9050919050565b60006020820190508181036000830152614e338161478e565b9050919050565b60006020820190508181036000830152614e53816147b1565b9050919050565b60006020820190508181036000830152614e73816147d4565b9050919050565b60006020820190508181036000830152614e93816147f7565b9050919050565b60006020820190508181036000830152614eb38161481a565b9050919050565b60006020820190508181036000830152614ed38161483d565b9050919050565b60006020820190508181036000830152614ef381614860565b9050919050565b60006020820190508181036000830152614f1381614883565b9050919050565b60006020820190508181036000830152614f33816148c9565b9050919050565b60006020820190508181036000830152614f53816148ec565b9050919050565b60006020820190508181036000830152614f738161490f565b9050919050565b60006020820190508181036000830152614f9381614932565b9050919050565b60006020820190508181036000830152614fb381614955565b9050919050565b60006020820190508181036000830152614fd48184614978565b905092915050565b60006020820190508181036000830152614ff681846149cf565b905092915050565b60006020820190506150136000830184614b8a565b92915050565b60006101208201905061502f600083018c614b8a565b61503c602083018b6143de565b615049604083018a6143de565b6150566060830189614b8a565b818103608083015261506881886145a3565b905081810360a083015261507c81876145a3565b905081810360c083015261509081866145a3565b905061509f60e0830185614b8a565b6150ad61010083018461453d565b9a9950505050505050505050565b600060e0820190506150d0600083018a614b8a565b6150dd6020830189614b8a565b6150ea604083018861453d565b6150f760608301876143de565b61510460808301866143de565b81810360a083015261511681856145a3565b905061512560c083018461455b565b98975050505050505050565b600061513b61514c565b90506151478282615488565b919050565b6000604051905090565b600067ffffffffffffffff821115615171576151706155ef565b5b61517a8261561e565b9050602081019050919050565b600067ffffffffffffffff8211156151a2576151a16155ef565b5b6151ab8261561e565b9050602081019050919050565b6000819050602082019050919050565b6000819050602082019050919050565b600081519050919050565b600081519050919050565b600081519050919050565b600081519050919050565b6000602082019050919050565b6000602082019050919050565b600082825260208201905092915050565b600082825260208201905092915050565b600082825260208201905092915050565b600081905092915050565b600082825260208201905092915050565b600082825260208201905092915050565b600081905092915050565b6000615294826153e6565b915061529f836153e6565b9250827fffffffffffffffffffffffffffffffffffffffffffffffffffffffffffffffff038211156152d4576152d3615533565b5b828201905092915050565b60006152ea826153e6565b91506152f5836153e6565b92508261530557615304615562565b5b828204905092915050565b600061531b826153e6565b9150615326836153e6565b92508282101561533957615338615533565b5b828203905092915050565b600061534f826153c6565b9050919050565b6000615361826153c6565b9050919050565b60008115159050919050565b60007fffffffff0000000000000000000000000000000000000000000000000000000082169050919050565b60008190506153ae82615c1e565b919050565b60008190506153c182615c32565b919050565b600073ffffffffffffffffffffffffffffffffffffffff82169050919050565b6000819050919050565b60006153fb826153a0565b9050919050565b600061540d826153b3565b9050919050565b82818337600083830152505050565b60005b83811015615441578082015181840152602081019050615426565b83811115615450576000848401525b50505050565b6000600282049050600182168061546e57607f821691505b60208210811415615482576154816155c0565b5b50919050565b6154918261561e565b810181811067ffffffffffffffff821117156154b0576154af6155ef565b5b80604052505050565b60006154c4826153e6565b91507fffffffffffffffffffffffffffffffffffffffffffffffffffffffffffffffff8214156154f7576154f6615533565b5b600182019050919050565b600061550d826153e6565b9150615518836153e6565b92508261552857615527615562565b5b828206905092915050565b7f4e487b7100000000000000000000000000000000000000000000000000000000600052601160045260246000fd5b7f4e487b7100000000000000000000000000000000000000000000000000000000600052601260045260246000fd5b7f4e487b7100000000000000000000000000000000000000000000000000000000600052602160045260246000fd5b7f4e487b7100000000000000000000000000000000000000000000000000000000600052602260045260246000fd5b7f4e487b7100000000000000000000000000000000000000000000000000000000600052604160045260246000fd5b6000601f19601f8301169050919050565b7f4552433732313a207472616e7366657220746f206e6f6e20455243373231526560008201527f63656976657220696d706c656d656e7465720000000000000000000000000000602082015250565b7f4552433732313a207472616e736665722066726f6d20696e636f72726563742060008201527f6f776e6572000000000000000000000000000000000000000000000000000000602082015250565b7f4552433732313a20746f6b656e20616c7265616479206d696e74656400000000600082015250565b7f436f6d70616e79206164647265737320616c726561647920726567697374657260008201527f6564000000000000000000000000000000000000000000000000000000000000602082015250565b7f4e6f7420656e6f7567682066756e647300000000000000000000000000000000600082015250565b7f4552433732313a207472616e7366657220746f20746865207a65726f2061646460008201527f7265737300000000000000000000000000000000000000000000000000000000602082015250565b7f4552433732313a20617070726f766520746f2063616c6c657200000000000000600082015250565b7f48756e746572206164647265737320616c72656164792072656769737465726560008201527f6400000000000000000000000000000000000000000000000000000000000000602082015250565b7f4552433732313a2061646472657373207a65726f206973206e6f74206120766160008201527f6c6964206f776e65720000000000000000000000000000000000000000000000602082015250565b7f43616e277420706f7374207468697320736f6c7574696f6e2070726f706f736160008201527f6c00000000000000000000000000000000000000000000000000000000000000602082015250565b7f45524337323155524953746f726167653a2055524920736574206f66206e6f6e60008201527f6578697374656e7420746f6b656e000000000000000000000000000000000000602082015250565b7f4552433732313a20617070726f76652063616c6c6572206973206e6f7420746f60008201527f6b656e206f776e6572206e6f7220617070726f76656420666f7220616c6c0000602082015250565b7f436f6d70616e79206973206e6f74207265676973746572656420796574000000600082015250565b7f4552433732313a206d696e7420746f20746865207a65726f2061646472657373600082015250565b7f6661696c6564207472616e73616374696f6e0000000000000000000000000000600082015250565b7f4e6f7420617574686f72697a656420746f206163636570740000000000000000600082015250565b7f4552433732313a20696e76616c696420746f6b656e2049440000000000000000600082015250565b7f54686973206163636f756e74206973207265676973746572656420617320612060008201527f68756e7465720000000000000000000000000000000000000000000000000000602082015250565b7f4552433732313a20617070726f76616c20746f2063757272656e74206f776e6560008201527f7200000000000000000000000000000000000000000000000000000000000000602082015250565b50565b7f496e73756666696369656e742066756e64732000000000000000000000000000600082015250565b7f4552433732313a2063616c6c6572206973206e6f7420746f6b656e206f776e6560008201527f72206e6f7220617070726f766564000000000000000000000000000000000000602082015250565b7f48756e746572206973206e6f7420726567697374657265642079657400000000600082015250565b7f546869732061646472657373206973207265676973746572656420617320612060008201527f636f6d70616e7900000000000000000000000000000000000000000000000000602082015250565b7f43616e6e6f742061636365707420736f6c7574696f6e20666f7220746869732060008201527f6973737565000000000000000000000000000000000000000000000000000000602082015250565b60038110615c2f57615c2e615591565b5b50565b60038110615c4357615c42615591565b5b50565b615c4f81615344565b8114615c5a57600080fd5b50565b615c6681615356565b8114615c7157600080fd5b50565b615c7d81615368565b8114615c8857600080fd5b50565b615c9481615374565b8114615c9f57600080fd5b50565b615cab816153e6565b8114615cb657600080fd5b5056fea2646970667358221220c8257c611e118ca8a2592a29991924c7af06339659f79abc92d4f8601d1bdd5b64736f6c63430008040033",
  "linkReferences": {},
  "deployedLinkReferences": {}
}