{
  "_format": "hh-sol-artifact-1",
  "contractName": "DeBounty",
  "sourceName": "contracts/DeBounty.sol",
  "abi": [
    {
      "inputs": [],
      "stateMutability": "nonpayable",
      "type": "constructor"
    },
    {
      "stateMutability": "payable",
      "type": "fallback"
    },
    {
      "inputs": [
        {
          "internalType": "uint256",
          "name": "_proposedSolnID",
          "type": "uint256"
        },
        {
          "internalType": "uint256",
          "name": "_issueID",
          "type": "uint256"
        }
      ],
      "name": "acceptProposedSolution",
      "outputs": [],
      "stateMutability": "nonpayable",
      "type": "function"
    },
    {
      "inputs": [],
      "name": "admin",
      "outputs": [
        {
          "internalType": "address",
          "name": "",
          "type": "address"
        }
      ],
      "stateMutability": "view",
      "type": "function"
    },
    {
      "inputs": [
        {
          "internalType": "uint256",
          "name": "_issueID",
          "type": "uint256"
        }
      ],
      "name": "getAllProposedSolution",
      "outputs": [
        {
          "components": [
            {
              "internalType": "uint256",
              "name": "id",
              "type": "uint256"
            },
            {
              "internalType": "uint256",
              "name": "issueID",
              "type": "uint256"
            },
            {
              "internalType": "address",
              "name": "issueCreator",
              "type": "address"
            },
            {
              "internalType": "address",
              "name": "proposer",
              "type": "address"
            },
            {
              "internalType": "enum DeBounty.PROPOSED_SOLUTION_STATUS",
              "name": "status",
              "type": "uint8"
            }
          ],
          "internalType": "struct DeBounty.ProposedSolution[]",
          "name": "",
          "type": "tuple[]"
        }
      ],
      "stateMutability": "view",
      "type": "function"
    },
    {
      "inputs": [],
      "name": "getAllUnsolvedIssues",
      "outputs": [
        {
          "components": [
            {
              "internalType": "uint256",
              "name": "id",
              "type": "uint256"
            },
            {
              "internalType": "address",
              "name": "creator",
              "type": "address"
            },
            {
              "internalType": "address",
              "name": "solver",
              "type": "address"
            },
            {
              "internalType": "uint256",
              "name": "solutionID",
              "type": "uint256"
            },
            {
              "internalType": "string",
              "name": "title",
              "type": "string"
            },
            {
              "internalType": "string",
              "name": "description",
              "type": "string"
            },
            {
              "internalType": "string",
              "name": "hash",
              "type": "string"
            },
            {
              "internalType": "uint256",
              "name": "reward",
              "type": "uint256"
            },
            {
              "internalType": "enum DeBounty.ISSUE_STATUS",
              "name": "status",
              "type": "uint8"
            }
          ],
          "internalType": "struct DeBounty.Issue[]",
          "name": "",
          "type": "tuple[]"
        }
      ],
      "stateMutability": "view",
      "type": "function"
    },
    {
      "inputs": [],
      "name": "getCompany",
      "outputs": [
        {
          "components": [
            {
              "internalType": "string",
              "name": "name",
              "type": "string"
            },
            {
              "internalType": "string",
              "name": "nftMetadata",
              "type": "string"
            },
            {
              "internalType": "bool",
              "name": "isRegistered",
              "type": "bool"
            }
          ],
          "internalType": "struct DeBounty.Company",
          "name": "company",
          "type": "tuple"
        }
      ],
      "stateMutability": "view",
      "type": "function"
    },
    {
      "inputs": [],
      "name": "getHunter",
      "outputs": [
        {
          "components": [
            {
              "internalType": "string",
              "name": "name",
              "type": "string"
            },
            {
              "internalType": "bool",
              "name": "isRegistered",
              "type": "bool"
            }
          ],
          "internalType": "struct DeBounty.Hunter",
          "name": "hunter",
          "type": "tuple"
        }
      ],
      "stateMutability": "view",
      "type": "function"
    },
    {
      "inputs": [],
      "name": "isHunterValid",
      "outputs": [
        {
          "internalType": "bool",
          "name": "",
          "type": "bool"
        }
      ],
      "stateMutability": "view",
      "type": "function"
    },
    {
      "inputs": [],
      "name": "issueCount",
      "outputs": [
        {
          "internalType": "uint256",
          "name": "",
          "type": "uint256"
        }
      ],
      "stateMutability": "view",
      "type": "function"
    },
    {
      "inputs": [
        {
          "internalType": "uint256",
          "name": "",
          "type": "uint256"
        }
      ],
      "name": "issues",
      "outputs": [
        {
          "internalType": "uint256",
          "name": "id",
          "type": "uint256"
        },
        {
          "internalType": "address",
          "name": "creator",
          "type": "address"
        },
        {
          "internalType": "address",
          "name": "solver",
          "type": "address"
        },
        {
          "internalType": "uint256",
          "name": "solutionID",
          "type": "uint256"
        },
        {
          "internalType": "string",
          "name": "title",
          "type": "string"
        },
        {
          "internalType": "string",
          "name": "description",
          "type": "string"
        },
        {
          "internalType": "string",
          "name": "hash",
          "type": "string"
        },
        {
          "internalType": "uint256",
          "name": "reward",
          "type": "uint256"
        },
        {
          "internalType": "enum DeBounty.ISSUE_STATUS",
          "name": "status",
          "type": "uint8"
        }
      ],
      "stateMutability": "view",
      "type": "function"
    },
    {
      "inputs": [
        {
          "internalType": "address payable",
          "name": "_hunterAddress",
          "type": "address"
        },
        {
          "internalType": "uint256",
          "name": "_issueId",
          "type": "uint256"
        }
      ],
      "name": "payHunter",
      "outputs": [],
      "stateMutability": "payable",
      "type": "function"
    },
    {
      "inputs": [
        {
          "internalType": "string",
          "name": "title",
          "type": "string"
        },
        {
          "internalType": "string",
          "name": "description",
          "type": "string"
        },
        {
          "internalType": "string",
          "name": "hash",
          "type": "string"
        },
        {
          "internalType": "uint256",
          "name": "reward",
          "type": "uint256"
        }
      ],
      "name": "postIssue",
      "outputs": [
        {
          "components": [
            {
              "internalType": "uint256",
              "name": "id",
              "type": "uint256"
            },
            {
              "internalType": "address",
              "name": "creator",
              "type": "address"
            },
            {
              "internalType": "address",
              "name": "solver",
              "type": "address"
            },
            {
              "internalType": "uint256",
              "name": "solutionID",
              "type": "uint256"
            },
            {
              "internalType": "string",
              "name": "title",
              "type": "string"
            },
            {
              "internalType": "string",
              "name": "description",
              "type": "string"
            },
            {
              "internalType": "string",
              "name": "hash",
              "type": "string"
            },
            {
              "internalType": "uint256",
              "name": "reward",
              "type": "uint256"
            },
            {
              "internalType": "enum DeBounty.ISSUE_STATUS",
              "name": "status",
              "type": "uint8"
            }
          ],
          "internalType": "struct DeBounty.Issue",
          "name": "",
          "type": "tuple"
        }
      ],
      "stateMutability": "payable",
      "type": "function"
    },
    {
      "inputs": [
        {
          "internalType": "uint256",
          "name": "_issueID",
          "type": "uint256"
        }
      ],
      "name": "postSolutionProposal",
      "outputs": [],
      "stateMutability": "nonpayable",
      "type": "function"
    },
    {
      "inputs": [],
      "name": "proposedSolutionCount",
      "outputs": [
        {
          "internalType": "uint256",
          "name": "",
          "type": "uint256"
        }
      ],
      "stateMutability": "view",
      "type": "function"
    },
    {
      "inputs": [
        {
          "internalType": "string",
          "name": "_name",
          "type": "string"
        },
        {
          "internalType": "string",
          "name": "_nftMetadata",
          "type": "string"
        }
      ],
      "name": "registerCompany",
      "outputs": [
        {
          "components": [
            {
              "internalType": "string",
              "name": "name",
              "type": "string"
            },
            {
              "internalType": "string",
              "name": "nftMetadata",
              "type": "string"
            },
            {
              "internalType": "bool",
              "name": "isRegistered",
              "type": "bool"
            }
          ],
          "internalType": "struct DeBounty.Company",
          "name": "",
          "type": "tuple"
        }
      ],
      "stateMutability": "nonpayable",
      "type": "function"
    },
    {
      "inputs": [
        {
          "internalType": "string",
          "name": "_name",
          "type": "string"
        }
      ],
      "name": "registerHunter",
      "outputs": [],
      "stateMutability": "nonpayable",
      "type": "function"
    },
    {
      "stateMutability": "payable",
      "type": "receive"
    }
  ],
  "bytecode": "0x608060405234801561001057600080fd5b50336000806101000a81548173ffffffffffffffffffffffffffffffffffffffff021916908373ffffffffffffffffffffffffffffffffffffffff1602179055506000600381905550613450806100686000396000f3fe6080604052600436106100ec5760003560e01c806398cf147a1161008a578063e83b33ec11610059578063e83b33ec146102fe578063f36d655714610329578063f765404314610354578063f851a4401461037d576100f3565b806398cf147a14610254578063afa83f0e1461027f578063b77b5171146102a8578063e2541202146102d3576100f3565b80634d58b845116100c65780634d58b8451461018e57806374448ba4146101cb57806375e77f1d1461020857806381c1c13914610238576100f3565b806304e15de5146100f5578063127810bc1461013a5780632b6f049514610165576100f3565b366100f357005b005b34801561010157600080fd5b5061011c60048036038101906101179190612472565b6103a8565b60405161013199989796959493929190612d42565b60405180910390f35b34801561014657600080fd5b5061014f6105db565b60405161015c9190612cc1565b60405180910390f35b34801561017157600080fd5b5061018c6004803603810190610187919061231a565b610771565b005b34801561019a57600080fd5b506101b560048036038101906101b09190612472565b610939565b6040516101c29190612b44565b60405180910390f35b3480156101d757600080fd5b506101f260048036038101906101ed919061235b565b610c2c565b6040516101ff9190612cc1565b60405180910390f35b610222600480360381019061021d91906123c7565b610fad565b60405161022f9190612d05565b60405180910390f35b610252600480360381019061024d91906122de565b61145a565b005b34801561026057600080fd5b50610269611521565b6040516102769190612d27565b60405180910390f35b34801561028b57600080fd5b506102a660048036038101906102a19190612472565b611527565b005b3480156102b457600080fd5b506102bd611896565b6040516102ca9190612b22565b60405180910390f35b3480156102df57600080fd5b506102e8611c93565b6040516102f59190612d27565b60405180910390f35b34801561030a57600080fd5b50610313611c99565b6040516103209190612b66565b60405180910390f35b34801561033557600080fd5b5061033e611d08565b60405161034b9190612ce3565b60405180910390f35b34801561036057600080fd5b5061037b6004803603810190610376919061249b565b611e0c565b005b34801561038957600080fd5b50610392612096565b60405161039f9190612b07565b60405180910390f35b60016020528060005260406000206000915090508060000154908060010160009054906101000a900473ffffffffffffffffffffffffffffffffffffffff16908060020160009054906101000a900473ffffffffffffffffffffffffffffffffffffffff169080600301549080600401805461042390612fca565b80601f016020809104026020016040519081016040528092919081815260200182805461044f90612fca565b801561049c5780601f106104715761010080835404028352916020019161049c565b820191906000526020600020905b81548152906001019060200180831161047f57829003601f168201915b5050505050908060050180546104b190612fca565b80601f01602080910402602001604051908101604052809291908181526020018280546104dd90612fca565b801561052a5780601f106104ff5761010080835404028352916020019161052a565b820191906000526020600020905b81548152906001019060200180831161050d57829003601f168201915b50505050509080600601805461053f90612fca565b80601f016020809104026020016040519081016040528092919081815260200182805461056b90612fca565b80156105b85780601f1061058d576101008083540402835291602001916105b8565b820191906000526020600020905b81548152906001019060200180831161059b57829003601f168201915b5050505050908060070154908060080160009054906101000a900460ff16905089565b6105e36120ba565b600660003373ffffffffffffffffffffffffffffffffffffffff1673ffffffffffffffffffffffffffffffffffffffff16815260200190815260200160002060405180606001604052908160008201805461063d90612fca565b80601f016020809104026020016040519081016040528092919081815260200182805461066990612fca565b80156106b65780601f1061068b576101008083540402835291602001916106b6565b820191906000526020600020905b81548152906001019060200180831161069957829003601f168201915b505050505081526020016001820180546106cf90612fca565b80601f01602080910402602001604051908101604052809291908181526020018280546106fb90612fca565b80156107485780601f1061071d57610100808354040283529160200191610748565b820191906000526020600020905b81548152906001019060200180831161072b57829003601f168201915b505050505081526020016002820160009054906101000a900460ff161515151581525050905090565b60011515600560003373ffffffffffffffffffffffffffffffffffffffff1673ffffffffffffffffffffffffffffffffffffffff16815260200190815260200160002060010160009054906101000a900460ff1615151415610808576040517f08c379a00000000000000000000000000000000000000000000000000000000081526004016107ff90612bc1565b60405180910390fd5b60011515600660003373ffffffffffffffffffffffffffffffffffffffff1673ffffffffffffffffffffffffffffffffffffffff16815260200190815260200160002060020160009054906101000a900460ff161515141561089f576040517f08c379a000000000000000000000000000000000000000000000000000000000815260040161089690612c81565b60405180910390fd5b604051806040016040528082815260200160011515815250600560003373ffffffffffffffffffffffffffffffffffffffff1673ffffffffffffffffffffffffffffffffffffffff16815260200190815260200160002060008201518160000190805190602001906109129291906120dd565b5060208201518160010160006101000a81548160ff02191690831515021790555090505050565b606060011515600660003373ffffffffffffffffffffffffffffffffffffffff1673ffffffffffffffffffffffffffffffffffffffff16815260200190815260200160002060020160009054906101000a900460ff161515146109d1576040517f08c379a00000000000000000000000000000000000000000000000000000000081526004016109c890612c01565b60405180910390fd5b3373ffffffffffffffffffffffffffffffffffffffff166001600084815260200190815260200160002060010160009054906101000a900473ffffffffffffffffffffffffffffffffffffffff1673ffffffffffffffffffffffffffffffffffffffff1614610a75576040517f08c379a0000000000000000000000000000000000000000000000000000000008152600401610a6c90612b81565b60405180910390fd5b60026000838152602001908152602001600020805480602002602001604051908101604052809291908181526020016000905b82821015610c2157838290600052602060002090600402016040518060a001604052908160008201548152602001600182015481526020016002820160009054906101000a900473ffffffffffffffffffffffffffffffffffffffff1673ffffffffffffffffffffffffffffffffffffffff1673ffffffffffffffffffffffffffffffffffffffff1681526020016003820160009054906101000a900473ffffffffffffffffffffffffffffffffffffffff1673ffffffffffffffffffffffffffffffffffffffff1673ffffffffffffffffffffffffffffffffffffffff1681526020016003820160149054906101000a900460ff166002811115610bd6577f4e487b7100000000000000000000000000000000000000000000000000000000600052602160045260246000fd5b6002811115610c0e577f4e487b7100000000000000000000000000000000000000000000000000000000600052602160045260246000fd5b8152505081526020019060010190610aa8565b505050509050919050565b610c346120ba565b60011515600660003373ffffffffffffffffffffffffffffffffffffffff1673ffffffffffffffffffffffffffffffffffffffff16815260200190815260200160002060020160009054906101000a900460ff1615151415610ccb576040517f08c379a0000000000000000000000000000000000000000000000000000000008152600401610cc290612ba1565b60405180910390fd5b60011515600560003373ffffffffffffffffffffffffffffffffffffffff1673ffffffffffffffffffffffffffffffffffffffff16815260200190815260200160002060010160009054906101000a900460ff1615151415610d62576040517f08c379a0000000000000000000000000000000000000000000000000000000008152600401610d5990612c21565b60405180910390fd5b604051806060016040528084815260200183815260200160011515815250600660003373ffffffffffffffffffffffffffffffffffffffff1673ffffffffffffffffffffffffffffffffffffffff1681526020019081526020016000206000820151816000019080519060200190610ddb9291906120dd565b506020820151816001019080519060200190610df89291906120dd565b5060408201518160020160006101000a81548160ff021916908315150217905550905050600660003373ffffffffffffffffffffffffffffffffffffffff1673ffffffffffffffffffffffffffffffffffffffff168152602001908152602001600020604051806060016040529081600082018054610e7690612fca565b80601f0160208091040260200160405190810160405280929190818152602001828054610ea290612fca565b8015610eef5780601f10610ec457610100808354040283529160200191610eef565b820191906000526020600020905b815481529060010190602001808311610ed257829003601f168201915b50505050508152602001600182018054610f0890612fca565b80601f0160208091040260200160405190810160405280929190818152602001828054610f3490612fca565b8015610f815780601f10610f5657610100808354040283529160200191610f81565b820191906000526020600020905b815481529060010190602001808311610f6457829003601f168201915b505050505081526020016002820160009054906101000a900460ff161515151581525050905092915050565b610fb5612163565b60011515600660003373ffffffffffffffffffffffffffffffffffffffff1673ffffffffffffffffffffffffffffffffffffffff16815260200190815260200160002060020160009054906101000a900460ff1615151461104b576040517f08c379a000000000000000000000000000000000000000000000000000000000815260040161104290612c01565b60405180910390fd5b8134101561108e576040517f08c379a000000000000000000000000000000000000000000000000000000000815260040161108590612c41565b60405180910390fd5b600060405180610120016040528060035481526020013373ffffffffffffffffffffffffffffffffffffffff168152602001600073ffffffffffffffffffffffffffffffffffffffff1681526020016000815260200187815260200186815260200185815260200184815260200160006002811115611136577f4e487b7100000000000000000000000000000000000000000000000000000000600052602160045260246000fd5b8152509050806001600060035481526020019081526020016000206000820151816000015560208201518160010160006101000a81548173ffffffffffffffffffffffffffffffffffffffff021916908373ffffffffffffffffffffffffffffffffffffffff16021790555060408201518160020160006101000a81548173ffffffffffffffffffffffffffffffffffffffff021916908373ffffffffffffffffffffffffffffffffffffffff16021790555060608201518160030155608082015181600401908051906020019061120f9291906120dd565b5060a082015181600501908051906020019061122c9291906120dd565b5060c08201518160060190805190602001906112499291906120dd565b5060e082015181600701556101008201518160080160006101000a81548160ff021916908360028111156112a6577f4e487b7100000000000000000000000000000000000000000000000000000000600052602160045260246000fd5b021790555090505060078190806001815401808255809150506001900390600052602060002090600902016000909190919091506000820151816000015560208201518160010160006101000a81548173ffffffffffffffffffffffffffffffffffffffff021916908373ffffffffffffffffffffffffffffffffffffffff16021790555060408201518160020160006101000a81548173ffffffffffffffffffffffffffffffffffffffff021916908373ffffffffffffffffffffffffffffffffffffffff1602179055506060820151816003015560808201518160040190805190602001906113989291906120dd565b5060a08201518160050190805190602001906113b59291906120dd565b5060c08201518160060190805190602001906113d29291906120dd565b5060e082015181600701556101008201518160080160006101000a81548160ff0219169083600281111561142f577f4e487b7100000000000000000000000000000000000000000000000000000000600052602160045260246000fd5b02179055505050600360008154809291906114499061302d565b919050555080915050949350505050565b60008273ffffffffffffffffffffffffffffffffffffffff16600160008481526020019081526020016000206007015460405161149690612af2565b60006040518083038185875af1925050503d80600081146114d3576040519150601f19603f3d011682016040523d82523d6000602084013e6114d8565b606091505b505090508061151c576040517f08c379a000000000000000000000000000000000000000000000000000000000815260040161151390612ca1565b60405180910390fd5b505050565b60035481565b60011515600560003373ffffffffffffffffffffffffffffffffffffffff1673ffffffffffffffffffffffffffffffffffffffff16815260200190815260200160002060010160009054906101000a900460ff161515146115bd576040517f08c379a00000000000000000000000000000000000000000000000000000000081526004016115b490612c61565b60405180910390fd5b600060028111156115f7577f4e487b7100000000000000000000000000000000000000000000000000000000600052602160045260246000fd5b6001600083815260200190815260200160002060080160009054906101000a900460ff166002811115611653577f4e487b7100000000000000000000000000000000000000000000000000000000600052602160045260246000fd5b14611693576040517f08c379a000000000000000000000000000000000000000000000000000000000815260040161168a90612be1565b60405180910390fd5b6000600260008381526020019081526020016000209050806040518060a0016040528060045481526020018481526020016001600086815260200190815260200160002060010160009054906101000a900473ffffffffffffffffffffffffffffffffffffffff1673ffffffffffffffffffffffffffffffffffffffff1681526020013373ffffffffffffffffffffffffffffffffffffffff1681526020016000600281111561176c577f4e487b7100000000000000000000000000000000000000000000000000000000600052602160045260246000fd5b8152509080600181540180825580915050600190039060005260206000209060040201600090919091909150600082015181600001556020820151816001015560408201518160020160006101000a81548173ffffffffffffffffffffffffffffffffffffffff021916908373ffffffffffffffffffffffffffffffffffffffff16021790555060608201518160030160006101000a81548173ffffffffffffffffffffffffffffffffffffffff021916908373ffffffffffffffffffffffffffffffffffffffff16021790555060808201518160030160146101000a81548160ff0219169083600281111561188b577f4e487b7100000000000000000000000000000000000000000000000000000000600052602160045260246000fd5b021790555050505050565b606060011515600560003373ffffffffffffffffffffffffffffffffffffffff1673ffffffffffffffffffffffffffffffffffffffff16815260200190815260200160002060010160009054906101000a900460ff1615151461192e576040517f08c379a000000000000000000000000000000000000000000000000000000000815260040161192590612c61565b60405180910390fd5b6007805480602002602001604051908101604052809291908181526020016000905b82821015611c8a578382906000526020600020906009020160405180610120016040529081600082015481526020016001820160009054906101000a900473ffffffffffffffffffffffffffffffffffffffff1673ffffffffffffffffffffffffffffffffffffffff1673ffffffffffffffffffffffffffffffffffffffff1681526020016002820160009054906101000a900473ffffffffffffffffffffffffffffffffffffffff1673ffffffffffffffffffffffffffffffffffffffff1673ffffffffffffffffffffffffffffffffffffffff16815260200160038201548152602001600482018054611a4490612fca565b80601f0160208091040260200160405190810160405280929190818152602001828054611a7090612fca565b8015611abd5780601f10611a9257610100808354040283529160200191611abd565b820191906000526020600020905b815481529060010190602001808311611aa057829003601f168201915b50505050508152602001600582018054611ad690612fca565b80601f0160208091040260200160405190810160405280929190818152602001828054611b0290612fca565b8015611b4f5780601f10611b2457610100808354040283529160200191611b4f565b820191906000526020600020905b815481529060010190602001808311611b3257829003601f168201915b50505050508152602001600682018054611b6890612fca565b80601f0160208091040260200160405190810160405280929190818152602001828054611b9490612fca565b8015611be15780601f10611bb657610100808354040283529160200191611be1565b820191906000526020600020905b815481529060010190602001808311611bc457829003601f168201915b50505050508152602001600782015481526020016008820160009054906101000a900460ff166002811115611c3f577f4e487b7100000000000000000000000000000000000000000000000000000000600052602160045260246000fd5b6002811115611c77577f4e487b7100000000000000000000000000000000000000000000000000000000600052602160045260246000fd5b8152505081526020019060010190611950565b50505050905090565b60045481565b600060011515600560003373ffffffffffffffffffffffffffffffffffffffff1673ffffffffffffffffffffffffffffffffffffffff16815260200190815260200160002060010160009054906101000a900460ff1615151415611d005760019050611d05565b600090505b90565b611d10612213565b600560003373ffffffffffffffffffffffffffffffffffffffff1673ffffffffffffffffffffffffffffffffffffffff168152602001908152602001600020604051806040016040529081600082018054611d6a90612fca565b80601f0160208091040260200160405190810160405280929190818152602001828054611d9690612fca565b8015611de35780601f10611db857610100808354040283529160200191611de3565b820191906000526020600020905b815481529060010190602001808311611dc657829003601f168201915b505050505081526020016001820160009054906101000a900460ff161515151581525050905090565b60011515600660003373ffffffffffffffffffffffffffffffffffffffff1673ffffffffffffffffffffffffffffffffffffffff16815260200190815260200160002060020160009054906101000a900460ff16151514611ea2576040517f08c379a0000000000000000000000000000000000000000000000000000000008152600401611e9990612c01565b60405180910390fd5b6000600260008381526020019081526020016000208381548110611eef577f4e487b7100000000000000000000000000000000000000000000000000000000600052603260045260246000fd5b906000526020600020906004020160030160009054906101000a900473ffffffffffffffffffffffffffffffffffffffff169050600180600084815260200190815260200160002060080160006101000a81548160ff02191690836002811115611f82577f4e487b7100000000000000000000000000000000000000000000000000000000600052602160045260246000fd5b0217905550806001600084815260200190815260200160002060020160006101000a81548173ffffffffffffffffffffffffffffffffffffffff021916908373ffffffffffffffffffffffffffffffffffffffff1602179055506001600260008481526020019081526020016000208481548110612029577f4e487b7100000000000000000000000000000000000000000000000000000000600052603260045260246000fd5b906000526020600020906004020160030160146101000a81548160ff02191690836002811115612082577f4e487b7100000000000000000000000000000000000000000000000000000000600052602160045260246000fd5b0217905550612091818361145a565b505050565b60008054906101000a900473ffffffffffffffffffffffffffffffffffffffff1681565b604051806060016040528060608152602001606081526020016000151581525090565b8280546120e990612fca565b90600052602060002090601f01602090048101928261210b5760008555612152565b82601f1061212457805160ff1916838001178555612152565b82800160010185558215612152579182015b82811115612151578251825591602001919060010190612136565b5b50905061215f919061222f565b5090565b60405180610120016040528060008152602001600073ffffffffffffffffffffffffffffffffffffffff168152602001600073ffffffffffffffffffffffffffffffffffffffff16815260200160008152602001606081526020016060815260200160608152602001600081526020016000600281111561220d577f4e487b7100000000000000000000000000000000000000000000000000000000600052602160045260246000fd5b81525090565b6040518060400160405280606081526020016000151581525090565b5b80821115612248576000816000905550600101612230565b5090565b600061225f61225a84612e09565b612de4565b90508281526020810184848401111561227757600080fd5b612282848285612f88565b509392505050565b600081359050612299816133ec565b92915050565b600082601f8301126122b057600080fd5b81356122c084826020860161224c565b91505092915050565b6000813590506122d881613403565b92915050565b600080604083850312156122f157600080fd5b60006122ff8582860161228a565b9250506020612310858286016122c9565b9150509250929050565b60006020828403121561232c57600080fd5b600082013567ffffffffffffffff81111561234657600080fd5b6123528482850161229f565b91505092915050565b6000806040838503121561236e57600080fd5b600083013567ffffffffffffffff81111561238857600080fd5b6123948582860161229f565b925050602083013567ffffffffffffffff8111156123b157600080fd5b6123bd8582860161229f565b9150509250929050565b600080600080608085870312156123dd57600080fd5b600085013567ffffffffffffffff8111156123f757600080fd5b6124038782880161229f565b945050602085013567ffffffffffffffff81111561242057600080fd5b61242c8782880161229f565b935050604085013567ffffffffffffffff81111561244957600080fd5b6124558782880161229f565b9250506060612466878288016122c9565b91505092959194509250565b60006020828403121561248457600080fd5b6000612492848285016122c9565b91505092915050565b600080604083850312156124ae57600080fd5b60006124bc858286016122c9565b92505060206124cd858286016122c9565b9150509250929050565b60006124e383836128c6565b905092915050565b60006124f78383612a6c565b60a08301905092915050565b61250c81612ee4565b82525050565b61251b81612ee4565b82525050565b600061252c82612e5a565b6125368185612e95565b93508360208202850161254885612e3a565b8060005b85811015612584578484038952815161256585826124d7565b945061257083612e7b565b925060208a0199505060018101905061254c565b50829750879550505050505092915050565b60006125a182612e65565b6125ab8185612ea6565b93506125b683612e4a565b8060005b838110156125e75781516125ce88826124eb565b97506125d983612e88565b9250506001810190506125ba565b5085935050505092915050565b6125fd81612f08565b82525050565b61260c81612f08565b82525050565b61261b81612f64565b82525050565b61262a81612f64565b82525050565b61263981612f76565b82525050565b600061264a82612e70565b6126548185612ec2565b9350612664818560208601612f97565b61266d81613132565b840191505092915050565b600061268382612e70565b61268d8185612ed3565b935061269d818560208601612f97565b6126a681613132565b840191505092915050565b60006126be602d83612ed3565b91506126c982613143565b604082019050919050565b60006126e1602283612ed3565b91506126ec82613192565b604082019050919050565b6000612704602183612ed3565b915061270f826131e1565b604082019050919050565b6000612727602183612ed3565b915061273282613230565b604082019050919050565b600061274a601d83612ed3565b91506127558261327f565b602082019050919050565b600061276d602683612ed3565b9150612778826132a8565b604082019050919050565b6000612790600083612eb7565b915061279b826132f7565b600082019050919050565b60006127b3601383612ed3565b91506127be826132fa565b602082019050919050565b60006127d6601c83612ed3565b91506127e182613323565b602082019050919050565b60006127f9602783612ed3565b91506128048261334c565b604082019050919050565b600061281c601383612ed3565b91506128278261339b565b602082019050919050565b6000606083016000830151848203600086015261284f828261263f565b91505060208301518482036020860152612869828261263f565b915050604083015161287e60408601826125f4565b508091505092915050565b600060408301600083015184820360008601526128a6828261263f565b91505060208301516128bb60208601826125f4565b508091505092915050565b6000610120830160008301516128df6000860182612ad4565b5060208301516128f26020860182612503565b5060408301516129056040860182612503565b5060608301516129186060860182612ad4565b5060808301518482036080860152612930828261263f565b91505060a083015184820360a086015261294a828261263f565b91505060c083015184820360c0860152612964828261263f565b91505060e083015161297960e0860182612ad4565b5061010083015161298e610100860182612612565b508091505092915050565b6000610120830160008301516129b26000860182612ad4565b5060208301516129c56020860182612503565b5060408301516129d86040860182612503565b5060608301516129eb6060860182612ad4565b5060808301518482036080860152612a03828261263f565b91505060a083015184820360a0860152612a1d828261263f565b91505060c083015184820360c0860152612a37828261263f565b91505060e0830151612a4c60e0860182612ad4565b50610100830151612a61610100860182612612565b508091505092915050565b60a082016000820151612a826000850182612ad4565b506020820151612a956020850182612ad4565b506040820151612aa86040850182612503565b506060820151612abb6060850182612503565b506080820151612ace6080850182612630565b50505050565b612add81612f5a565b82525050565b612aec81612f5a565b82525050565b6000612afd82612783565b9150819050919050565b6000602082019050612b1c6000830184612512565b92915050565b60006020820190508181036000830152612b3c8184612521565b905092915050565b60006020820190508181036000830152612b5e8184612596565b905092915050565b6000602082019050612b7b6000830184612603565b92915050565b60006020820190508181036000830152612b9a816126b1565b9050919050565b60006020820190508181036000830152612bba816126d4565b9050919050565b60006020820190508181036000830152612bda816126f7565b9050919050565b60006020820190508181036000830152612bfa8161271a565b9050919050565b60006020820190508181036000830152612c1a8161273d565b9050919050565b60006020820190508181036000830152612c3a81612760565b9050919050565b60006020820190508181036000830152612c5a816127a6565b9050919050565b60006020820190508181036000830152612c7a816127c9565b9050919050565b60006020820190508181036000830152612c9a816127ec565b9050919050565b60006020820190508181036000830152612cba8161280f565b9050919050565b60006020820190508181036000830152612cdb8184612832565b905092915050565b60006020820190508181036000830152612cfd8184612889565b905092915050565b60006020820190508181036000830152612d1f8184612999565b905092915050565b6000602082019050612d3c6000830184612ae3565b92915050565b600061012082019050612d58600083018c612ae3565b612d65602083018b612512565b612d72604083018a612512565b612d7f6060830189612ae3565b8181036080830152612d918188612678565b905081810360a0830152612da58187612678565b905081810360c0830152612db98186612678565b9050612dc860e0830185612ae3565b612dd6610100830184612621565b9a9950505050505050505050565b6000612dee612dff565b9050612dfa8282612ffc565b919050565b6000604051905090565b600067ffffffffffffffff821115612e2457612e23613103565b5b612e2d82613132565b9050602081019050919050565b6000819050602082019050919050565b6000819050602082019050919050565b600081519050919050565b600081519050919050565b600081519050919050565b6000602082019050919050565b6000602082019050919050565b600082825260208201905092915050565b600082825260208201905092915050565b600081905092915050565b600082825260208201905092915050565b600082825260208201905092915050565b6000612eef82612f3a565b9050919050565b6000612f0182612f3a565b9050919050565b60008115159050919050565b6000819050612f22826133c4565b919050565b6000819050612f35826133d8565b919050565b600073ffffffffffffffffffffffffffffffffffffffff82169050919050565b6000819050919050565b6000612f6f82612f14565b9050919050565b6000612f8182612f27565b9050919050565b82818337600083830152505050565b60005b83811015612fb5578082015181840152602081019050612f9a565b83811115612fc4576000848401525b50505050565b60006002820490506001821680612fe257607f821691505b60208210811415612ff657612ff56130d4565b5b50919050565b61300582613132565b810181811067ffffffffffffffff8211171561302457613023613103565b5b80604052505050565b600061303882612f5a565b91507fffffffffffffffffffffffffffffffffffffffffffffffffffffffffffffffff82141561306b5761306a613076565b5b600182019050919050565b7f4e487b7100000000000000000000000000000000000000000000000000000000600052601160045260246000fd5b7f4e487b7100000000000000000000000000000000000000000000000000000000600052602160045260246000fd5b7f4e487b7100000000000000000000000000000000000000000000000000000000600052602260045260246000fd5b7f4e487b7100000000000000000000000000000000000000000000000000000000600052604160045260246000fd5b6000601f19601f8301169050919050565b7f596f752068617665206e6f2061636365737320746f20766965772070726f706f60008201527f73656420736f6c7574696f6e7300000000000000000000000000000000000000602082015250565b7f436f6d70616e79206164647265737320616c726561647920726567697374657260008201527f6564000000000000000000000000000000000000000000000000000000000000602082015250565b7f48756e746572206164647265737320616c72656164792072656769737465726560008201527f6400000000000000000000000000000000000000000000000000000000000000602082015250565b7f43616e277420706f7374207468697320736f6c7574696f6e2070726f706f736160008201527f6c00000000000000000000000000000000000000000000000000000000000000602082015250565b7f436f6d70616e79206973206e6f74207265676973746572656420796574000000600082015250565b7f54686973206163636f756e74206973207265676973746572656420617320612060008201527f68756e7465720000000000000000000000000000000000000000000000000000602082015250565b50565b7f496e73756666696369656e742066756e64732000000000000000000000000000600082015250565b7f48756e746572206973206e6f7420726567697374657265642079657400000000600082015250565b7f546869732061646472657373206973207265676973746572656420617320612060008201527f636f6d70616e7900000000000000000000000000000000000000000000000000602082015250565b7f6661696c6564207472616e7361636374696f6e00000000000000000000000000600082015250565b600381106133d5576133d46130a5565b5b50565b600381106133e9576133e86130a5565b5b50565b6133f581612ef6565b811461340057600080fd5b50565b61340c81612f5a565b811461341757600080fd5b5056fea264697066735822122035ca949b7e82db93a65e45469ff9e4f0a47d12e5a4a147d02e0ad8f2bee0d62f64736f6c63430008040033",
  "linkReferences": {},
  "deployedLinkReferences": {}
}